:100000000C94FD040C9425050C9425050C944E19B4
:100010000C944E190C944E190C9425050C9425053E
:100020000C9425050C9425050C9425050C949D082D
:100030000C9425050C9425050C9425050C94250598
:100040000C94C6140C9425050C94A2130C947C13E8
:100050000C9425050C9425050C9425050C94250578
:100060000C9425050C942505BE16C916D416DF166A
:10007000EA16F51600173E17431748174D17521783
:100080005717601741542B434D47533D2200FFE063
:10009000FFD1AFFF32FFD0FFFEFFE0FFD1AEFFD0B8
:1000A000FFFEFFE0FFD11000FFFEFFD0FFE0FFC129
:1000B000FFD1AED580A83FD300408D142000A1C849
:1000C000DA1281CFD9F1DB402EA4A6AFFFD0FFFE1C
:1000D000002730FBF518000000002A3A001AFB1830
:1000E000000A0B160D010F0C000C004C80EDC07FB8
:1000F000803F001E003F007380E1C040801110303F
:1001000013010101C00001C00001C00001C00001D5
:10011000C00001C00001C000FFFF80FFFF80FFFFA3
:100120008001C00001C00001C00001C00001C0008A
:1001300001C0000309090903FBE0E0E0E020606082
:10014000C0800802020B0108FFFF0304040903003A
:10015000E0E0E0E009183009000001800180018042
:100160000300030003000600060006000C000C005C
:100170000C00080018001800180030003000300093
:10018000600060006000C000C0000F183012010065
:1001900007C01FF03FF83C78783C701C701CE00EE4
:1001A000E00EE00EE00EE00EE00EE00EE00EE00EDF
:1001B000E00E701C701C703C3C783FF81FF007C0CC
:1001C0000818181203000307070F3FFFFF07070770
:1001D00007070707070707070707070707070F1896
:1001E0003012010007C01FF03FF8783C701CF00E81
:1001F000E00EE00E000E001C003C007800F003E072
:1002000007C01F003C0078007000E000E000FFFE27
:10021000FFFEFFFE0F183012010007C01FF03FF86D
:100220003838701C701C701C701C001C003803F8DF
:1002300003F003F8003C001E000EE00EE00EE00E9E
:10024000701C783C3FF81FF007C0101830120000F7
:10025000001800380078007800F801F803B803B8F7
:1002600007380E380E381C38383838387038E038CF
:10027000FFFFFFFFFFFF003800380038003800386C
:100280000F18301201003FFC3FFC3FFC38003800E3
:1002900038007000700077C07FF07FF8787C701CA9
:1002A000001E000E000E000EE00EE01EF01C787C1A
:1002B0007FF83FF00F800F183012010003C00FF0DD
:1002C0001FF83C38381C701C700070006000E3C0E0
:1002D000EFF0FFF8F83CF01CF00EE00EE00E600EC0
:1002E000700E701C383C3FF81FF007C00F1830121A
:1002F0000100FFFEFFFEFFFE000E001C001800388C
:100300000070007000E000E001C001C003800380C5
:100310000700070007000E000E000E001C001C0066
:100320001C000F183012010007C01FF03FF8383CC6
:10033000701C701C701C701C783C3C781FF00FE027
:100340003FF8783C701CE00EE00EE00EE00EF01C72
:10035000783C3FF81FF007C00F183012010007C0AB
:100360001FF03FF8787C703CF01CE01EE00EE00EC1
:10037000E00EE01EE01E703E7FFE3FEE0FCE000E50
:10038000001CE01CF03C78783FF03FE00F80031247
:1003900012090400E0E0E0E00000000000000000BE
:1003A0000000E0E0E0E001070D00FE09016902D86D
:1003B000207FFE0BFE09FE0D0070222979C0C0C00F
:1003C000C0C0C000C0C0185373D8D8D812597950D3
:1003D00050F8F850F8F850500269793078B4B07895
:1003E00034B47830026979E4ACE81830605CD49CAD
:1003F00002697970D8D8D870D4DCD874272474C036
:10040000C0C0C0124979306060C0C0C060603012A6
:100410004979C060603030306060C0036676483033
:10042000FCFC30480366763030FCFC3030114474FC
:10043000707060C0056171FC11437360F060026907
:10044000790C0C1818306060C0C00269793048CC53
:10045000CCCCCCCC48300269793070B03030303000
:1004600030FC02697978CCCC0C3860C0C0FC0269E1
:1004700079FC0C1830780C0CCC780269790C1C3C97
:100480006CCCCCFC0C0C026979FCC0C0F8CC0C0C18
:10049000CC7802697978CCC0C0F8CCCCCC78026931
:1004A00079FC0C0C18183030606002697978CCCC7B
:1004B000CC78CCCCCC7802697978CCCCCC7C0C0CC8
:1004C000CC7811487860F060000060F060114878E6
:1004D00060F06000707060C00269790C183060C014
:1004E0006030180C046474FC0000FC026979C06080
:1004F00030180C183060C002697978CCCC0C3830D8
:10050000003030026979788C8CBCACBC808C78026D
:10051000697978CCCCCCFCCCCCCCCC026979F8CC49
:10052000CCCCF8CCCCCCF802697978CCC0C0C0C0B7
:10053000C0CC78026979F8CCCCCCCCCCCCCCF8024D
:100540006979FCC0C0C0F8C0C0C0FC026979FCC0B9
:10055000C0C0F8C0C0C0C002697978CCC0C0DCCCD3
:10056000CCCC7C026979CCCCCCCCFCCCCCCCCC0235
:100570006979FC30303030303030FC0269790C0C55
:100580000C0C0C0C0CCC78026979C4CCD8F0E0F0DF
:10059000D8CCC4026979C0C0C0C0C0C0C0C0FC0211
:1005A000697984CCFCFCCCCCCCCCCC026979CCCCA9
:1005B000ECECFCDCDCCCCC02697978CCCCCCCCCCBF
:1005C000CCCC78026979F8CCCCCCF8C0C0C0C001E2
:1005D0006A7A78CCCCCCCCCCECDC780C026979F89B
:1005E000CCCCCCF8F0D8CCC402697978CCC0C07837
:1005F0000C0CCC78026979FC30303030303030303F
:10060000026979CCCCCCCCCCCCCCCC78026979CC7E
:10061000CCCC484878303030026979CCCCCCCCCCCA
:10062000FCFCCC8402697984CC4878307848CC844E
:10063000026979CCCC78783030303030026979FC7E
:100640000C0C183060C0C0FC124979F0C0C0C0C0AA
:10065000C0C0C0F0026979C0C060603018180C0CCE
:10066000124979F030303030303030F00764743077
:1006700078CC84016272FCFC194373C0603002665E
:1006800076780C7CCCCC7C026979C0C0C0F8CCCC2C
:10069000CCCCF802667678CCC0C0CC780269790CF4
:1006A0000C0C7CCCCCCCCC7C02667678CCFCC0CC60
:1006B00078026979386C6060F0606060600068782A
:1006C00074CCCC78C078CC78026979C0C0C0F8CC42
:1006D000CCCCCCCC0269793030007030303030FC7A
:1006E000006B7B0C0C000C0C0C0C0C0CCC78026915
:1006F00079C0C0C0CCD8F0F0D8CC02697970303065
:100700003030303030FC026676D8FCFCCCCCCC02E9
:100710006676F8CCCCCCCCCC02667678CCCCCCCC83
:1007200078006878F8CCCCCCF8C0C0C00068787C81
:10073000CCCCCC7C0C0C0C026676F8CCC0C0C0C013
:1007400002667678CC6018CC780268786060F860D1
:1007500060606C38026676CCCCCCCCCC7C02667601
:10076000CCCCCC787830026676CCCCCCFCFC480281
:100770006676CCCC7878CCCC006878CCCCCCCC7CF1
:100780000CCC78026676FC0C1860C0FC12497970BB
:10079000C0C060C060C0C070222979C0C0C0C0C0E5
:1007A000C0C0C0C0124979E030306030603030E005
:1007B00008637364FC98FF41542B434D474C3D2222
:1007C000414C4C220041542B434D47523D00415473
:1007D0002B434D47443D0000000000250028002B1E
:1007E0000000000000230026002900040404040483
:1007F00004040402020202020203030303030301CE
:1008000002040810204080010204081020010204A4
:1008100008102041542B434950534855540041542B
:100820002B435042533D22534D220041542B434D04
:1008300047463D310041542B434D45453D30004135
:10084000542B434C49503D310041542B4950523DAB
:100850000041542B4950523D0041542B4950523DC8
:10086000393630300D0041542B4950523D39363025
:10087000300D0041542B4950523D393630300D0077
:1008800041542B4950523D393630300D0041542BE4
:100890004950523D393630300D0041542B495052A9
:1008A0003D393630300D0041542B4950523D3936D8
:1008B00030300D0041542B4950523D393630300D07
:1008C0000041542B4950523D393630300D00000064
:1008D0000000240027002A00000000080002010098
:1008E000000304070000000000000000005EBCE2FE
:1008F000613FDD83C29C7E20A3FD1F419DC3217FFC
:10090000FCA2401E5F01E3BD3E6082DC237D9FC1EF
:10091000421CFEA0E1BF5D0380DE3C62BEE0025CE3
:10092000DF81633D7C22C09E1D43A1FF4618FAA4CF
:1009300027799BC584DA3866E5BB5907DB856739BB
:10094000BAE406581947A5FB7826C49A653BD987AF
:10095000045AB8E6A7F91B45C6987A24F8A6441AA3
:1009600099C7257B3A6486D85B05E7B98CD2306E8F
:10097000EDB3510F4E10F2AC2F7193CD114FADF37B
:10098000702ECC92D38D6F31B2EC0E50AFF1134D6F
:10099000CE90722C6D33D18F0C52B0EE326C8ED063
:1009A000530DEFB1F0AE4C1291CF2D73CA9476284F
:1009B000ABF517490856B4EA6937D58B5709EBB53B
:1009C00036688AD495CB2977F4AA4816E9B7550B2F
:1009D00088D6346A2B7597C94A14F6A8742AC89623
:1009E000154BA9F7B6E80A54D7896B3541542B4308
:1009F0005042523D00003B27C62811241FBECFEFB6
:100A0000D8E0DEBFCDBF13E0A0E0B1E0E8EAFEE54C
:100A100002C005900D92A836B107D9F726E0A8E6E6
:100A2000B3E001C01D92A33CB207E1F714E0CCEFA4
:100A3000D4E004C02197FE010E942F29CB3FD107AB
:100A4000C9F70E9409200C94472F0C940000FC0168
:100A5000E60FF11D849190E0982F88273196E4915C
:100A60008E0F911D08952EE93FE0009729F0F901BE
:100A70003197F1F70197F9CF089510927003109212
:100A80006F0308958093C2061092B90084FF02C0DC
:100A90008CE001C088E48093B8000C943D05DB0134
:100AA0001496ED91FC91159720E030E065E00994F3
:100AB000CF92DF92EF92FF920F931F93CF93DF932A
:100AC0008C017B016A0180E0F601C49181110BC0A9
:100AD000CF3F09F457C04C2FB701C8010E944F0502
:100AE00081114EC054C0CF3F11F44FEFF5CFCE3F30
:100AF00009F44FC0C03F08F043C0C03E58F04C2F2F
:100B00004F70D7011496ED91FC91159720E030E0DD
:100B100062E00CC0C03D68F04C2F4F70D7011496B6
:100B2000ED91FC91159720E030E063E0C801099554
:100B300027C0C03CF8F0D7011496ED91FC911597B1
:100B400020E030E040E064E0C8010995C295C07F34
:100B5000CE5FD0E0CE010E943305D7011496ED910F
:100B6000FC91159720E030E041E064E0C801099570
:100B7000CE0104C0C7FD04C08C2F90E00E94330555
:100B800080E001C081E0BFEFCB1ADB0A9DCF80E09F
:100B900001C081E0DF91CF911F910F91FF90EF9005
:100BA000DF90CF9008958F929F92AF92BF92CF9295
:100BB000DF92FF920F931F93CF93DF9300D0CDB7B7
:100BC000DEB76C018B01F42E490120E1421709F4D4
:100BD00056C02417A0F03AE043135BC0DB01149623
:100BE000ED91FC91159720E030E042E061E009953D
:100BF0004AEA50E0B801C6010E9458054AC081E1A6
:100C0000481709F43FC0A5E14A1343C0FB01A28085
:100C1000B38042EA50E0C6010E945805D5011496FF
:100C20004C91406BB801C6010E944F05D801149643
:100C3000ED91FC91159720E030E041E062E0C601C3
:100C40000995F50126813781D8011496ED91FC9123
:100C50001597D50115964C9166E0C601099581114D
:100C600002C080E0D3C0D8011496ED91FC91159795
:100C700020E030E040E063E0C60109950AC049E9A0
:100C800050E002C04EE850E0B801C6010E9458058D
:100C9000BCC0F80102811381F2E3FF1609F479C0A8
:100CA000FF15B8F025E1F21609F480C037E1F3161C
:100CB00009F492C084E1F812A8C0D8011696ED910B
:100CC000FC91179715968C919F01280F311DC90132
:100CD00065C0A6E4FA1609F48FC0B7E4FB1609F460
:100CE0008FC0EBE3FE1291C0D40111968C91119745
:100CF00013969C91913029F0933031F4482F88500D
:100D000004C048E0480F01C0482F21E0F8013381BA
:100D1000381708F420E031E0D80112965C914517AD
:100D200008F430E051E0481708F050E0822F852B9E
:100D3000382319F4252309F468C0F401F2809130B6
:100D400051F030F0923049F0933051F42FEF09C058
:100D500020E031E007C021E004C020E03FEF02C006
:100D600020E030E0F7FE08C0B401C8012A833983CF
:100D70000E948F1B39812A81D4018C91830F8C931F
:100D800011968C911197820F11968C93FF0C51F74D
:100D90003CC0B401C8010E948F1B37C01192E817F4
:100DA000F907E1F7C8010E94BB1B2FC0C8010E94D0
:100DB000A51B882309F455CFD8011696ED91FC9117
:100DC000179715968C919F01280F311DC90111921B
:100DD000E817F907E1F719C0D4011C92F8018281E4
:100DE00011968C9311978581815012968C9312974E
:100DF000838113968C9309C0D80115968C9103C0FA
:100E0000D80111968C91F401808381E00F900F90AE
:100E1000DF91CF911F910F91FF90DF90CF90BF9006
:100E2000AF909F908F9008950F931F93CF93DF9370
:100E300000D000D0CDB7DEB710926A0319828F3F81
:100E4000910531F481E08093690360EF71E006C0A1
:100E5000009781F41092690365EF71E08AE693E0F0
:100E60000F900F900F900F90DF91CF911F910F91E6
:100E70000C94E42B22E0209369039F938F938DEAD7
:100E800091E09F938F938E010F5F1F4F1F930F93DE
:100E90000E94332CB8018AE693E00E94E42B0F9065
:100EA0000F900F900F900F900F900F900F900F904A
:100EB0000F90DF91CF911F910F910895CF92DF9204
:100EC000EF92FF920F931F93CF93DF931F92CDB7B3
:100ED000DEB76C01DC01DC961C91DC97DB960C9193
:100EE0007C01B4E0EB0EF11CDC015996ED91FC9114
:100EF0005A97C70169830995482F410F2981602FAF
:100F0000C7010E94301CF60123AD082E000C990B7E
:100F1000820F911D83AF81E090E00F90DF91CF9120
:100F20001F910F91FF90EF90DF90CF90089568E0B0
:100F30000C94270566E00C942705FC018491089524
:100F40000E949D07882321F0823011F083E00895EC
:100F500086E0089590917003911104C0809370030E
:100F600060936F0308951F93CF93DF9300D0CDB7A5
:100F7000DEB720ED37E03A8329839091BC009823B7
:100F800099F429813A81232B51F48091C206182FBC
:100F9000127081FD09C081E00E94AA0706C0298164
:100FA0003A8121503109E7CF11E0812F0F900F9046
:100FB000DF91CF911F91089584E98093BC0064E094
:100FC00080E10C94B307CF938093BB0084E88093B7
:100FD000BC0063E080E80E94B307C82F882389F033
:100FE0008091C206C82FC27081FD0AC08091B900ED
:100FF000887F883229F063E082E00E94AA0701C05E
:10100000C1E08C2FCF910895CF93DF93FC0123A5EE
:10101000222379F0EC010E94481F811102C080E078
:1010200009C08EA1811180E40E94E3078823B9F3EF
:101030001BA681E0DF91CF9108950F931F93CF936B
:10104000C42F89016330C1F050F4613081F0623007
:1010500009F048C0FC0146A321E023A743C0663045
:1010600011F1673079F1653009F03CC00EC0FC0128
:1010700086A50E94420536C0FC0116A221E023A7E6
:10108000411130C00E94DC072DC00E94040881116C
:1010900004C00E94DC0780E026C08C2F0E94E3077A
:1010A000811120C0F6CF0E940408882391F3CC233D
:1010B000C9F0F80181918F010E94E307882349F369
:1010C000C150F5CF0E940408882319F3CC2351F0B6
:1010D000F80184910E94E307882329F00F5F1F4FD6
:1010E000C150F4CF81E0CF911F910F9108950F93DC
:1010F000FC010150040F84A996A9941718F0081751
:1011000028F402C0081750F0041740F42150260FAD
:1011100083A995A9961720F4281720F480E007C02A
:10112000281720F481E0261710F0F8CF81E00F9106
:1011300008950C94022F0C94FA2E1F920F920FB662
:101140000F9211242F933F934F935F936F937F934D
:101150008F939F93AF93BF93EF93FF932091A60339
:10116000222301F180916D0390916E03009739F471
:1011700060E08BE00E94FD1381E090E006C08A30C1
:10118000910544F4213031F4019690936E038093DD
:101190006D0308C061E08BE00E94FD1310926E03A6
:1011A00010926D03FF91EF91BF91AF919F918F913D
:1011B0007F916F915F914F913F912F910F900FBE53
:1011C0000F901F901895AF92BF92CF92DF92EF923F
:1011D000FF920F931F93CF93DF93CDB7DEB7649742
:1011E0000FB6F894DEBF0FBECDBF8091AE0388234B
:1011F00019F0833009F07EC020E04AE060E080E032
:101200000E94BB1020E045E06AE085E00E94BB1030
:1012100025E045E060E080E00E94BB1020E04AE06D
:1012200065E085E00E94BB1080919103823030F030
:1012300028E049E06AE089E00E94BB1080919103B8
:10124000833030F026E04CE06AE08CE00E94BB1076
:1012500080919103843030F024E04FE06AE08FE029
:101260000E94BB1080919103853030F022E042E172
:101270006AE082E10E94BB1080919103863030F0D9
:1012800020E045E16AE085E10E94BB108091710396
:10129000813091F42BE04FE060E089E10E94C411BD
:1012A00025E040E261E08AE10E94BB1021E046E2D5
:1012B00065E080E20E94BB108091A6038823D1F0F4
:1012C0002CE04CE060E08AE50E94C41128E048E090
:1012D00062E08CE50E94C4118091A603823051F433
:1012E00080917203813031F428E048E062E08CE5BF
:1012F0000E94A01129E041E161E08CE60E94C41146
:1013000025E042E063E08AE60E94A011809190030C
:10131000811104C0809172038130C1F425E042E064
:1013200063E08EE60E94A01125E043E063E081E7E0
:101330000E94A01125E043E063E085E70E94A01130
:1013400025E042E063E089E70E94A0111982E09164
:10135000AD03F0E0EA5FFE4F808190E020917403DE
:1013600030E0821793073CF06CE172E0CE01019609
:101370000E94E42B25C0880F991F880F991FFC013C
:10138000E958FC4F60817181828193810E942D2AEE
:101390007F936F9381EB91E09F938F938E010F5E0C
:1013A0001F4F1F930F930E94332CB801CE0101965B
:1013B0000E94E42B0F900F900F900F900F900F90C2
:1013C00080917503843008F441C080ED90E00E9464
:1013D0002E11AE014F5F5F4F67E385E50E94E50E7A
:1013E00006E026E04BE168E78EE895E00E9477088A
:1013F000882319F082E00E947B1108E028E04AE18E
:1014000067E78EE895E00E947708882319F083E06B
:101410000E947B118091AD0390E001969F938F9382
:101420008DE291E09F938F938E010F5E1F4F1F936C
:101430000F930E94332CA80167E380E00E94E50E21
:101440000F900F900F900F900F900F908091750359
:10145000843008F0CDC086EA93E00E942E11AE01E0
:101460004F5F5F4F6BE18AE60E94E50E198245EB04
:1014700051E067E28DE60E94E50EE091AD03F0E0F9
:10148000E955FC4F808190E00E9414076AE673E002
:10149000CE0101960E94E42B80916903823031F4E1
:1014A00067EB71E0CE0101960E94E42BAE014F5F25
:1014B0005F4F6BE180E00E94E50E7E0121E1E20ECC
:1014C000F11CB701CE0101960E94E42B198299E527
:1014D000C92E91E0D92E00E011E062EA72E0CE015F
:1014E00001960E94E42BF601B1906F018B2D0E94B2
:1014F000D413019779F4F8018081811103C069EB5D
:1015000071E004C0813031F46BEB71E0CE010196E3
:101510000E94E42B8B2D0E94D413892B79F4F801BF
:101520008081811103C06BEB71E004C0813031F424
:1015300069EB71E0CE0101960E94E42B0F5F1F4F13
:10154000F1E006301F0749F6AE014F5F5F4F62E2E0
:1015500082E10E94E50E198200E010E08DEBA82EDA
:1015600081E0B82E62EA72E0CE0101960E94E42B7F
:101570008091AD0390E098012F5F3F4F69010817FC
:10158000190759F480917603811107C062EA72E06D
:10159000CE0101960E94E42B13C0DF92CF92BF923E
:1015A000AF92FF92EF920E94332CB701CE010196C9
:1015B0000E94E42B0F900F900F900F900F900F90C0
:1015C00086010630110571F6AE014F5F5F4F6EE286
:1015D00082E10E94E50E198222E34DE762E380E09A
:1015E0000E94BB104CE051E060E480E00E94E50EF8
:1015F00064960FB6F894DEBF0FBECDBFDF91CF91DA
:101600001F910F91FF90EF90DF90CF90BF90AF9020
:10161000089580E00E9469149C01C29774F0283AF2
:1016200082E0380764F0243393E0390754F081E016
:10163000203733403CF080E0089584E0089583E053
:10164000089582E008950F931F93CF93DF9307EAE5
:1016500013E0C0E0D0E0CE010E949B08F801819326
:101660008F012196C630D105B1F7DF91CF911F913F
:101670000F9108953F924F925F926F927F928F9257
:101680009F92AF92BF92CF92DF92EF92FF920F9311
:101690001F93CF93DF93CDB7DEB7CC59D1090FB6E7
:1016A000F894DEBF0FBECDBF109268031092730393
:1016B000198281E0809371030E94B00E0E94E308BA
:1016C0000E948F1E8111FACF1092710380919203B4
:1016D0008B3291F4809193038B3271F48091940357
:1016E0008B3251F481E08093A6038093AF0361E0D5
:1016F00089E090E00E949908809192038D3289F4EC
:10170000809193038D3269F4809194038D3249F472
:101710001092A6031092AF0360E089E090E00E946F
:101720009908E0916803F0E0EE56FC4F80818F331A
:1017300009F070C18091A603823019F460EC71E069
:1017400004C0813031F469EC71E0CE0101960E9451
:10175000E42B80919003811106C06EEC71E0CE0104
:1017600001960E94E42B6AED71E0CE0101960E9481
:10177000E42B6CE672E0CE0101960E94E42B80918E
:1017800091031F928F938DEB91E09F938F938E0126
:1017900009561F4F1F930F930E94332CB801CE019F
:1017A00001960E94E42B63EE71E0CE0101960E9447
:1017B000E42B36E0832E31E0932E47EA442E43E0BB
:1017C000542E59E5652E51E0752E60E0C62E61E07D
:1017D000D62E0F900F900F900F900F900F90E12C3E
:1017E000F12C7DEBA72E71E0B72E2FEFE21AF20A53
:1017F000FF92EF92BF92AF921F930F930E94332CF0
:10180000B801CE0101960E94E42B67EE71E0CE0193
:1018100001960E94E42BF40181914F0190E0209108
:10182000740330E00F900F900F900F900F900F9077
:10183000821793071CF06CE172E013C0880F991FA8
:10184000880F991FFC01E958FC4F608171818281EA
:1018500093810E942D2A6138FFEF7F0739F469EEEA
:1018600071E0CE0101960E94E42B13C07F936F9329
:10187000BF92AF921F930F930E94332CB801CE01F9
:1018800001960E94E42B0F900F900F900F900F90F5
:101890000F906DEE71E0CE0101960E94E42BF301F2
:1018A00031903F01832D0E94D413019779F4F60102
:1018B0008081811103C06FEE71E004C0813031F48A
:1018C00064EF71E0CE0101960E94E42B832D0E940B
:1018D000D413892B79F4F6018081811103C064EF60
:1018E00071E004C0813031F46FEE71E0CE010196F9
:1018F0000E94E42B69EF71E0CE0101960E94E42B77
:10190000F20181912F0190E00E9414076AE673E0D2
:10191000CE0101960E94E42B62E772E0CE010196AF
:101920000E94E42BFFEFCF1ADF0A26E0E216F10453
:1019300009F05BCFBE016D577F4F81E00E94331EDF
:10194000813009F067C08AE1C556DF4F8883CB59E3
:10195000D040C456DF4F1882CC59D040E09180046B
:10196000F091810436978081918164E870E0845A17
:101970009A4F0E942D13E0918004F09181043697D4
:1019800080819181BE016D577F4F845A9A4F0E948A
:101990007A13E0918004F0918104369780819181DF
:1019A00065E673E0845A9A4F0E9466132AE532E096
:1019B00044EF51E068EE73E082E894E00E94B318CF
:1019C000823031F5E0918004F09181043697808176
:1019D0009181BE016F5F7F4F845A9A4F0E947A13A4
:1019E000E0918004F0918104369780819181BE015D
:1019F00065567F4F845A9A4F0E9466132CEF31E050
:101A000048E853E168E57BE182E894E00E94B3187E
:101A100010924F05E2E9F3E001900020E9F73197D9
:101A2000E259F340339768F4109268030E94230B45
:101A300080917303882309F460C081508093AD03C3
:101A40005CC002E913E0E0916803D8010D9000202A
:101A5000E9F7F0E0CD0185599340E817F90720F741
:101A6000EE56FC4F8081833209F041C082818A3377
:101A7000F1F581818053809373032381CD57DF4F2C
:101A80002883C358D0409481CC57DF4F9883C458E3
:101A9000D0402D3239F49D3229F490E060E0019776
:101AA0000E949908CD57DF4F8881C358D0408B32B0
:101AB00071F4CC57DF4F8881C458D0408B3239F451
:101AC0008091730390E06FEF01970E949908CE0117
:101AD0008D579F4F0E94D42E1816190644F420915A
:101AE000730330E0682FC90101970E949908809123
:101AF00068038B5F80936803A6CFC456DF4F0FB691
:101B0000F894DEBF0FBECDBFDF91CF911F910F9133
:101B1000FF90EF90DF90CF90BF90AF909F908F900D
:101B20007F906F905F904F903F900895962FEAE8D6
:101B3000F5E06681778180A391A32AEA35E042E34C
:101B40008EE895E00C94C21BCF92DF92EF92FF9249
:101B50000F931F93CF93DF93C82FD62F0EE1C02E84
:101B6000C61A8BE7D82EDC0E6C2D8D2D0E94960D9B
:101B70000C1B9BE7E92EED0E602F8E2D0E94960D1B
:101B80001BE7F12EFC1A6C2D8F2D0E94960D1D1B4C
:101B9000602F812F0E94960DD25E6D2F8D2D0E9499
:101BA000960DC25E6C2F8E2D0E94960D6D2F8F2D7F
:101BB0000E94960D6C2F812FDF91CF911F910F9175
:101BC000FF90EF90DF90CF900C94960DEF92FF92E4
:101BD0000F931F93CF93DF93D82F062FC42F142F6B
:101BE000F82EF40EEE24EA948F2D811B1830A8F005
:101BF00060919005709191058093AA050093AB05C3
:101C00001092AD05E092AC052AEA35E04BE38EE890
:101C100095E00E94C21B1850E7CF8C2F887FD80F09
:101C20004C2F477019F197E049276091900570910A
:101C30009105D093AA050093AB051092AD054F5FB7
:101C400047708FEF90E001C0880F4A95EAF78093C4
:101C5000AC052AEA35E04BE38EE895E0DF91CF91C1
:101C60001F910F91FF90EF900C94C21BDF91CF91C9
:101C70001F910F91FF90EF9008950F931F93CF93B3
:101C8000DF93182F042FC62FD62FD20F402F6C2F83
:101C9000812F0E94E60DCF5FDC13F8CFDF91CF914B
:101CA0001F910F910895DF92EF92FF920F931F9370
:101CB000CF93DF93082FD62FC42F142FF62EF40EB8
:101CC000EE24E394DD24DA948F2D811B1830A8F0E4
:101CD00060919005709191050093AA058093AB05E2
:101CE000E092AD05D092AC052AEA35E04BE38EE8F0
:101CF00095E00E94C21B1850E7CF8C2F887FD80F29
:101D00004C2F477029F197E0492760919005709119
:101D100091050093AA05D093AB0581E08093AD05B2
:101D20004F5F47708FEF90E001C0880F4A95EAF748
:101D30008093AC052AEA35E04BE38EE895E0DF912D
:101D4000CF911F910F91FF90EF90DF900C94C21BE9
:101D5000DF91CF911F910F91FF90EF90DF90089549
:101D6000CF93DF938091C705811107C081E08093F5
:101D7000C7058EE895E00E94C61BC0919005D091E2
:101D80009105E091BF05F091C00582E00995E091D1
:101D9000BF05F091C00581E0099520E030E044E105
:101DA000BE018EE895E00E94C21B21EC35E047E1C0
:101DB000BE018EE895E00E94C21BE091BF05F09144
:101DC000C00580E0DF91CF910994CF92DF92FF921E
:101DD0000F931F93CF93DF9300D0CDB7DEB7F82ECC
:101DE000062FE091A305F091A4058EE895E04983C4
:101DF0005A830995080F4981C42E5A81D52E10E0C7
:101E0000F60121916F01222349F0402F6F2D8EE8BA
:101E100095E00E94301CF80E180FF2CF812F0F9022
:101E20000F90DF91CF911F910F91FF90DF90CF9096
:101E30000895AF92BF92CF92DF92EF92FF920F93ED
:101E40001F93CF93DF93EC018B018091CD0590918F
:101E5000CE050E94591B8823A1F1BE018091CD05BA
:101E60009091CE050E942C1B40E06EEB8091CD0539
:101E70009091CE050E94EA1AE801680189E0C80E37
:101E8000D11CA090CD05B090CE0588E0E82EF12CB5
:101E900001E010E0C5010E94971A8111102B000F7C
:101EA00081E0E81AF108B1F71993CC15DD0549F77F
:101EB0008091CD059091CE050E94591B91E0813013
:101EC00009F090E0892FDF91CF911F910F91FF9042
:101ED000EF90DF90CF90BF90AF9008950F931F9336
:101EE000CF93DF93CDB7DEB729970FB6F894DEBF57
:101EF0000FBECDBF8C01BE016F5F7F4F0E94190FD7
:101F00008823B1F168E0CE0101960E948A1A998572
:101F100089132EC0298158E0259FB00111249A8190
:101F2000292F30E0322F2227330F330F330F262B88
:101F3000372BF80180818031C9F4688570E08F818A
:101F4000AB01481B5109CA019695982F8827979590
:101F500087950E94DA28CB014097207F53E0220F1B
:101F6000331F5A95E1F7820F931F04C0C90102C0C5
:101F700080E894EE29960FB6F894DEBF0FBECDBF71
:101F8000DF91CF911F910F910895AF92BF92CF92A1
:101F9000DF92EF92FF920F931F93CF93DF931F92E5
:101FA000CDB7DEB75C01D62EE72EFC018585811109
:101FB00005C0C5010E94591B811106C0F501138699
:101FC0001586148680E065C040E060EFC5010E9480
:101FD000EA1A01E0F12CC12C11E0C5010E94971A08
:101FE000682FC50169830E94971A6981613019F4CD
:101FF0008130B9F433C04F2D50E068131BC0F50198
:102000008385181730F4E40FF51F8381802349F48A
:1020100002C0181731F060E0193058F4F501148748
:1020200008C0F501EF0DF11D8381802B838361E0F2
:1020300009C0C12EF501E40FF51F9381802F809513
:1020400089238383C5010E94BB1A1F5F000F11F40F
:10205000F39401E0F7E0FF1508F0BFCF113408F466
:10206000ADCFF501C386C11002C081E08587F501BF
:102070008381882309F4A2CFD5011396ED2DFE2D7F
:102080009501255F3F4F8D918193A217B307D9F733
:1020900081E00F90DF91CF911F910F91FF90EF9012
:1020A000DF90CF90BF90AF9008950F931F93CF9381
:1020B000DF938C01D62FE091CD05F091CE051386EC
:1020C00015861486DF011B9633961E92AE17BF0746
:1020D000E1F7C0E0B8018091CD059091CE050E9456
:1020E000C50F811102C080E010C0CD130AC067E0A7
:1020F000C8010E948A1AF8019781891302C081E001
:1021000004C0CF5FDC1778F3E5CFDF91CF911F914B
:102110000F9108958091CD059091CE050E94591B95
:1021200040E06CEC8091CD059091CE050E94EA1ABA
:102130004091C80564E48091CD059091CE050E9440
:10214000EA1A8091CA058823A9F0E091C905E950EF
:10215000E33040F4F0E0EE0FFF1FE15AFE4F6081E4
:10216000718102C06EEE72E0072E000C880B990B95
:102170000C9480140895BF92CF92DF92EF92FF9259
:102180000F931F93CF93DF931F92CDB7DEB7B82E77
:10219000162F042F481718F4C82EC41A02C0C42ED4
:1021A000C81A211758F4F12EF21ACF14C0F4812F57
:1021B000102F082F8B2DB22E282F0AC0F22EF11AC5
:1021C000CF1470F5802F022F282F8B2DB12E182FB2
:1021D000DD24D394EF2CE694121768F02DC00B1574
:1021E00068F5EC2CE6948C2DCF2CF82E802F0B2D3F
:1021F000B82E122FD12C91E00B1528F1D11003C06D
:10220000612F8B2D02C06B2D812F99830E94960D1B
:102210009981EC18E7FE02C0190FEF0CB394ECCFD4
:102220000B1560F4EC2CE6948C2DCF2CF82E802F1F
:102230000B2DB82E122FD12C9FEFDECF8F2DFC2C23
:10224000C82ED12CC7CF0F90DF91CF911F910F9146
:10225000FF90EF90DF90CF90BF900895209192056E
:10226000309193052817390709F444C090939305DA
:1022700080939205009709F437C02091A505FC01D1
:10228000211107C03596E491E093A605FC013C9628
:102290000FC0213039F43F96E491E093A605FC018C
:1022A000709606C03D96E491E093A605FC013E962B
:1022B00084918093A7058091A605082E000C990BA8
:1022C0002091A705821B910927FD93952091A805D0
:1022D000203441F0829FC001112426E09695879515
:1022E0002A95E1F78093A90584E499E19093A405E8
:1022F0008093A30508950F931F93CF93DF93C82F67
:10230000D1E0D81B082F0195000F682F80E00E94B4
:10231000A40D10E01C1778F4D7FD03C0C1500E5F68
:10232000D00F1F5F812F880F8F5FD80F6C2F812FE9
:102330000E94A40DEFCFDF91CF911F910F910895CF
:10234000FF920F931F93CF93DF93C82FD62F142F95
:10235000F22E022F242F462F682F8EE895E00E9440
:102360007708882359F02F2D412F6D2F8C2FDF9167
:10237000CF911F910F91FF900C943D0EDF91CF9163
:102380001F910F91FF900895FF920F931F93CF938A
:10239000DF93182FC62FF42ED22F022F242F462F73
:1023A000682F8EE895E00E9477088823E9F04F2D8A
:1023B0006C2F812F0E94E60D4D2F6C2F812F0E94D4
:1023C000530E8FEF8F0D4D2F6C2F810F0E94530EE8
:1023D000D1506D2F6C0F4F2D812FDF91CF911F9119
:1023E0000F91FF900C94E60DDF91CF911F910F910B
:1023F000FF900895CF92DF92EF92FF920F931F9379
:10240000CF93DF936C017A018B01C0E0D0E0CE1551
:10241000DF0589F0D8016D918D01D601ED91FC9118
:102420000190F081E02DC6010995892B11F47E0100
:1024300002C02196ECCFC701DF91CF911F910F9180
:10244000FF90EF90DF90CF900895833081F028F4D3
:10245000813099F08230A1F008958730A9F088305A
:10246000B9F08430D1F4809180008F7D03C08091D9
:1024700080008F7780938000089584B58F7702C0A5
:1024800084B58F7D84BD08958091B0008F7703C09F
:102490008091B0008F7D8093B00008953FB7F8948D
:1024A0008091BE069091BF06A091C006B091C10672
:1024B00026B5A89B05C02F3F19F00196A11DB11D9F
:1024C0003FBFBA2FA92F982F8827820F911DA11DDA
:1024D000B11DBC01CD0142E0660F771F881F991F17
:1024E0004A95D1F7089508952091B7063091B8061E
:1024F0002817390771F49091B6068091B5069817A0
:1025000041F0E091B606F0E0EB58F94F808190E0A1
:1025100008958FEF9FEF08951F93CF93DF93DC0112
:102520005C962D913C915D972115310539F481E040
:1025300090E013969C938E9312973DC05196ED9127
:10254000FC91529750969C915097892F80951FB778
:102550005E964C915E9741FB772770F941FD60953F
:10256000F8944081772311F0492B01C04823408320
:10257000E9012197F1F748E0508160FF02C0592B33
:1025800001C058235083E9012197F1F76695415026
:1025900099F7772321F090818923808303C080817C
:1025A000982B90831FBF5C968D919C915D970197AE
:1025B000F1F721E030E0C901DF91CF911F9108953B
:1025C000DC01ED91FC91369720813181820F931FC0
:1025D00084529F4F0E9403190895CF92DF92FF9279
:1025E0000F931F93CF93DF936B01EA0100E010E09C
:1025F0000C171D07CCF480E894E00E94E012F82E3E
:1026000018167CF4E091E303F091E4030190F0816B
:10261000E02D682F83EE93E00995F601E00FF11F9E
:10262000F0820F5F1F4FE4CFCE01D7FF02C080E0E2
:1026300090E0DF91CF911F910F91FF90DF90CF90AD
:1026400008950E94DF2B83EE93E00E949C1D21E001
:10265000892B09F420E0822F0895EF92FF920F93C7
:102660001F93CF93DF938C017B01C0E0D0E0F70193
:10267000EC0FFD1F6491662361F0D801ED91FC9190
:102680000190F081E02DC8010995892B11F0219668
:10269000EECFCE01DF91CF911F910F91FF90EF9080
:1026A00008956115710579F0FB0101900020E9F7AB
:1026B0003197AF01461B570BDC01ED91FC91028075
:1026C000F381E02D099480E090E008950F931F932B
:1026D000CF93DF93EC010E9451138C0161E772E00C
:1026E000CE010E945113800F911FDF91CF911F9156
:1026F0000F9108950C9451131F920F920FB60F92E1
:1027000011242F933F934F935F936F937F938F93F6
:102710009F93AF93BF93EF93FF9383EE93E00E9459
:102720007F1FFF91EF91BF91AF919F918F917F910B
:102730006F915F914F913F912F910F900FBE0F902E
:102740001F9018951F920F920FB60F9211242F937E
:102750008F939F93EF93FF93E091F303F091F40332
:102760008081E091F903F091FA0382FD12C090811B
:102770008091FC038F5F8F732091FD03821751F0CE
:10278000E091FC03F0E0ED51FC4F958F8093FC034A
:1027900001C08081FF91EF919F918F912F910F90B8
:1027A0000FBE0F901F901895CF93DF93282F30E026
:1027B000F901E852F74F8491F901E150F84FD491B3
:1027C000F901E551F84FC491CC2391F081110E9499
:1027D0002512EC2FF0E0EE0FFF1FEF51F84FA591FF
:1027E000B491EC91ED2381E090E021F480E002C00F
:1027F00080E090E0DF91CF9108951F93CF93DF9316
:10280000282F30E0F901E852F74F8491F901E150A7
:10281000F84FD491F901E551F84FC491CC23C9F098
:10282000162F81110E942512EC2FF0E0EE0FFF1FF2
:10283000E952F84FA591B4918FB7F894111105C0E2
:102840009C91ED2FE095E92302C0EC91ED2BEC93E8
:102850008FBFDF91CF911F910895CF93DF9390E0C9
:10286000FC01E150F84F2491FC01E551F84F8491AF
:10287000882361F190E0880F991FFC01E253F74F24
:10288000C591D491FC01E952F84FA591B491611121
:1028900009C09FB7F8948881209582238883EC91A2
:1028A0002E230BC0623061F49FB7F8943881822FD9
:1028B000809583238883EC912E2B2C939FBF06C099
:1028C0008FB7F894E8812E2B28838FBFDF91CF91AB
:1028D00008958E3008F08E508770806480937C005D
:1028E00080917A00806480937A0080917A0086FDDE
:1028F000FCCF809178002091790090E0922B089590
:102900008F929F92AF92BF92CF92DF92EF92FF92FF
:102910006B017C010E944E124B015C01C114D10479
:10292000E104F104F1F00E944E12DC01CB018819A0
:102930009909AA09BB09883E9340A105B10570F326
:1029400021E0C21AD108E108F10888EE880E83E080
:10295000981EA11CB11CC114D104E104F10419F7A3
:10296000DDCFFF90EF90DF90CF90BF90AF909F9022
:102970008F9008952FB7F8946091BA067091BB06B6
:102980008091BC069091BD062FBF08951F920F92B3
:102990000FB60F9211242F933F938F939F93AF9372
:1029A000BF938091BA069091BB06A091BC06B091EE
:1029B000BD063091B90623E0230F2D3720F4019690
:1029C000A11DB11D05C026E8230F0296A11DB11D52
:1029D0002093B9068093BA069093BB06A093BC06D9
:1029E000B093BD068091BE069091BF06A091C0062F
:1029F000B091C1060196A11DB11D8093BE069093B2
:102A0000BF06A093C006B093C106BF91AF919F913E
:102A10008F913F912F910F900FBE0F901F9018959F
:102A2000FC01EF52FF4F2081222331F002960E94D9
:102A3000192C21E0892B09F420E0822F08958F9230
:102A40009F92AF92BF92CF92DF92EF92FF920F933D
:102A50001F93CF93DF93EC017C0182EDE80EF11C14
:102A6000F7018081811133C0CE0184529F4F0E94B3
:102A7000EB188E0109521F4F892BF9F40E94BA14EA
:102A8000F8010081118122813381AB01BC01401B1F
:102A9000510B620B730B349780819181A0E0B0E001
:102AA000481759076A077B0790F032978081FE012B
:102AB000E80FF11D128214E00BC00E94BA14F80155
:102AC000608371838283938381E0F701808310E0C8
:102AD000F7018081813009F05CC07E01FCEDEF0ED2
:102AE000F11CC7010E94EB18082F882349F00E94AF
:102AF000BA14FE01E952FF4F60837183828393838E
:102B00006E0181EDC80ED11C5E01EFECAE0EB11C62
:102B1000002301F10150F6018081883CB8F4F501F1
:102B200080809180C7010E940319F4018083F50120
:102B300080819181019691838083F60180818F5FEE
:102B40008083FE01E80FF11D1282E2CFC7010E94CF
:102B50000319DECF0E94BA14FE01E952FF4FC08074
:102B6000D180E280F380AB01BC014C195D096E0994
:102B70007F09329780819181A0E0B0E04817590722
:102B80006A077B0730F034978081C80FD11D1A8205
:102B900011E0812FDF91CF911F910F91FF90EF9066
:102BA000DF90CF90BF90AF909F908F900895CF937C
:102BB000DF93EC01FC01EE52FF4F108231967183DE
:102BC00060833296518340830E94BA14FE01E95219
:102BD000FF4F60837183828393831A823897CE017B
:102BE00002969183808332961082CE010E941F1537
:102BF0008823D9F3DF91CF9108956F927F928F92BE
:102C00009F92AF92BF92CF92DF92EF92FF920F937B
:102C10001F93CF93DF93EC016B015A014901F12C13
:102C20008FEF3E019CED690E711CFE14F1F0FF2048
:102C300031F064EF71E080E090E00E948014B60112
:102C4000C3010E946613A401B501CE010E94D715ED
:102C5000813039F4B801CE010E941015882311F09B
:102C600003C08FEFF394E1CF81E0DF91CF911F910B
:102C70000F91FF90EF90DF90CF90BF90AF909F901B
:102C80008F907F906F9008952F923F924F925F9216
:102C90006F927F928F929F92AF92BF92CF92DF926C
:102CA000EF92FF920F931F93CF93DF9300D01F9269
:102CB000CDB7DEB76C012A013B014C018DEC880ECB
:102CC000911C81E0F4018083C60184529F4F9B8355
:102CD0008A830E94DE1916019BEC290E311C81E0CB
:102CE00090E0F1019183808373E0A72EB12C65E021
:102CF000E62E07E513E024E630E044EF51E06DEA0C
:102D000072E0C6010E94FD158F3F09F4FFC11982D0
:102D1000F1E0AF1AB10859F755E0E52E07E513E0E9
:102D200024E630E044EF51E06DEA72E0C6010E9413
:102D3000FD15FF24F394813009F0F12C898188235B
:102D400009F47BC060EB72E083EE93E00E946613AF
:102D5000C12CD12CF6013197E730F10520F4EC5C61
:102D6000FF4F0C942F2940EB54E060E070E08A8123
:102D70009B810E94DE1961EC78E04CC040E659E08E
:102D800060E070E08A819B810E94DE1964EB78E04C
:102D900041C040EC52E160E070E08A819B810E947A
:102DA000DE1967EA78E036C040E855E260E070E09E
:102DB0008A819B810E94DE196AE978E02BC040E09D
:102DC0005BE460E070E08A819B810E94DE196DE81F
:102DD00078E020C040E056E960E070E08A819B81A5
:102DE0000E94DE1960E878E015C040E051EE60E036
:102DF00070E08A819B810E94DE1963E778E00AC057
:102E000040E052EC61E070E08A819B810E94DE1913
:102E100066E678E08A819B810E942D139FEFC91A94
:102E2000D90AE8E0CE16D10409F094CF67ED72E03C
:102E300083EE93E00E94661366C145E0E42E07E549
:102E400013E024E630E044EF51E06DEA72E0C601A1
:102E50000E94FD158111A4C0F110A2C0A12CB12CBB
:102E6000F5013197E730F10520F4E55CFF4F0C9454
:102E70002F2940EB54E060E070E01DC040E659E0CF
:102E800060E070E018C040EC52E160E070E013C018
:102E900040E855E260E070E00EC040E05BE460E0D6
:102EA00070E009C040E056E960E070E004C040E036
:102EB00051EE60E070E08A819B810E94DE191CC0A7
:102EC00040E052EC61E070E08A819B810E94DE1953
:102ED00069E578E08A819B810E942D1340E855E2E4
:102EE00060E070E08A819B810E94DE1964EF71E0EE
:102EF00080E090E00E94801464E670E080E090E062
:102F00000E94801435E0E32E07E513E024E630E06C
:102F100044EF51E06DEA72E0C6010E94FD15813078
:102F200081F561E578E08A819B810E942D13B301D0
:102F3000A2018A819B810E94B21D6CE173E08A81AB
:102F40009B810E947A1364EF71E080E090E00E9420
:102F50008014B301A2018A819B810E94DE1964E67C
:102F600070E080E090E00E94801424E630E044EFBE
:102F700051E06DEA72E0C6010E94FD15FF24F39452
:102F800008C0FFEFAF1ABF0A88E0A816B10409F025
:102F900067CFF601E153FF4FC6010296918380830C
:102FA000F4011082FF2009F48EC042E350E062E396
:102FB00070E0C6010E94D715FF24F394F401F0825B
:102FC00085E0E82E07E513E022E330E048EE53E029
:102FD0006EE173E0C6010E94FD1522E330E044EF8C
:102FE00051E063E273E0C6010E94FD15F401F08236
:102FF000980144EF51E06FE378E0C6010E94C91EDA
:10300000980144EF51E065E378E0C6010E94C91ED3
:10301000980144EF51E06BE278E0C6010E94C91EBE
:10302000F401F08292E0E92E22E330E048EE53E032
:1030300068E273E0C6010E94FD152AE0E22E04E377
:1030400013E028EE33E048EE53E06BE373E0C60193
:103050000E94FD15F401108227E533E048EE53E0AD
:103060006EE178E0C6010E94C91E22E533E044EF1C
:1030700051E063E178E0C6010E94C91EF401F082CC
:103080006AE573E08A819B810E947A1340E050E0F8
:10309000BA018A819B810E94B21D6CE173E08A8132
:1030A0009B810E947A1364EF71E080E090E00E94BF
:1030B0008014F401108282E090E0F101918380831A
:1030C00081E090E03AC040E052EC61E070E08A813B
:1030D0009B810E94DE1968EE73E080E090E00E9420
:1030E000801469E478E08A819B810E942D13B301EA
:1030F000A2018A819B810E94B21D6CE173E08A81EA
:103100009B810E947A1380E090E017C061E088E024
:103110000E94FD1360EB74E080E090E00E94801458
:1031200060E088E00E94FD1360E177E280E090E0DB
:103130000E948014F1E0F983EBCD0F900F900F9077
:10314000DF91CF911F910F91FF90EF90DF90CF9083
:10315000BF90AF909F908F907F906F905F904F90B7
:103160003F902F9008950F931F93CF93DF93EC011F
:103170008901FC01EE52FF4F10823196718360830A
:103180003296518340830E94BA14FE01E952FF4FE8
:1031900060837183828393831A823897CE0102966B
:1031A0009183808332961082CE010E941F1588235E
:1031B000D9F3813041F4B801CE010E94101581117C
:1031C00004C083E003C084E001C082E0DF91CF91BE
:1031D0001F910F9108952091B7063091B8062817D6
:1031E000390771F48091B5062091B60690E0805CB5
:1031F0009F4F821B910960E470E00E94DA280895D5
:1032000080E090E008952091B7063091B806281725
:103210003907B9F49091B6068091B506981789F0F0
:10322000E091B606F0E0EB58F94F80812091B606A8
:1032300030E02F5F3F4F2F7333272093B60690E087
:1032400008958FEF9FEF089508950895DC01169675
:10325000ED91FC91179712968C91481B477081E075
:1032600090E001C0880F4A95EAF7E60FF11D308122
:10327000222311F0832B02C080958323808308953D
:10328000FC01808D8F5F089580E008950B96FC010E
:10329000849108950A96FC01849108951F920F92DB
:1032A0000FB60F9211242F933F934F935F936F9319
:1032B0007F938F939F93AF93BF93EF93FF93E0918F
:1032C000B706F091B806309709F451C0968DA685DF
:1032D000B785858591FF04C09C91892329F447C057
:1032E0009C91892309F043C0A389B4899C91858965
:1032F000809589238C93868997890197F1F7608D52
:10330000718DA685B785558538E020E0CB01019702
:10331000F1F7822F90E095958795282F4C914523C2
:1033200009F02068315091F7868D81FD20958091BC
:10333000B50690E001968F7399273091B60638173D
:1033400049F0A091B506B0E0AB58B94F2C938093EB
:10335000B50603C0868D8160868F828D938D01971F
:10336000F1F7A389B4899C918589892B8C93FF916E
:10337000EF91BF91AF919F918F917F916F915F91ED
:103380004F913F912F910F900FBE0F901F90189566
:10339000E091B706F091B806E817F90769F4A38938
:1033A000B4899C918589809589238C931092B80665
:1033B0001092B70681E0089580E00895CF93DF93DF
:1033C000EC019A01AB011B8E1A8E198E188E1F8A82
:1033D0001E8A60E079E08DE390E00E941029F901F7
:1033E0002430310518F0C901039702C081E090E054
:1033F0009D8F8C8F6C85663108F069C0C9019695E8
:1034000087958431910510F0439702C081E090E0E8
:103410009F8B8E8B369718F0C901059702C081E00B
:1034200090E0998F888FC901880F991F280F391F45
:1034300036952795369527952D30310518F02C5067
:10344000310902C021E030E03B8F2A8F9091680063
:10345000683050F021E06E3008F420E081E001C0D7
:10346000880F2A95EAF701C084E0892B80936800D1
:103470009C85983038F09E3040F0963148F020E03E
:1034800030E008C02DE630E005C02BE630E002C099
:103490002CE630E03C8B2B8B983030F481E001C07F
:1034A000880F9A95EAF70EC0292F30E09E3018F465
:1034B0002850310902C02E50310981E001C0880F27
:1034C0002A95EAF78D8B8C8D9D8D0197F1F78A8D6A
:1034D0009B8D892BE1F08091B7069091B8068C17EF
:1034E0009D07A9F0009711F00E94C8198E8D8E7F5C
:1034F0008E8F1092B5061092B606D093B806C09380
:10350000B706EB89FC8990818D89892B8083DF91B7
:10351000CF910895DC01E0E0615038F08D91E8270B
:10352000F0E0E451F74FE491F7CF8E2F0895FC01BE
:1035300090810180F281E02DF8948181892B818333
:103540002281892F809528232283A7E0B0E011975C
:10355000F1F7218182238183A3E2B0E01197F1F793
:1035600080817894EFECF0E03197F1F7982381E0D7
:1035700009F480E00895FC0190810180F281E02D42
:10358000892F809560FF12C0F89422818223828364
:103590008181892B8183A3E2B0E01197F1F78281C9
:1035A000982B9283789487ED90E011C0F894228153
:1035B000822382838181892B8183AFEFB0E01197D1
:1035C000F1F78281982B928378948FE090E00197B5
:1035D000F1F70895CF92DF92EF92FF920F931F932E
:1035E000CF93DF931F92CDB7DEB76C01E62E08E0D4
:1035F00010E0FF24F39461E08F2D8E2109F460E048
:10360000C60149830E94BB1AFF0C01501109498170
:103610000115110581F7411115C0F894D6011196D5
:10362000ED91FC91129791818C91809589238183F2
:103630001196ED91FC91129792818C91809589233E
:10364000828378940F90DF91CF911F910F91FF901B
:10365000EF90DF90CF900895CF92DF92EF92FF929C
:103660000F931F93CF93DF931F92CDB7DEB78C01DB
:10367000F62E40E065E579830E94EA1ACF2C798125
:10368000D72E760188E0E80EF11CF60161916F01FA
:1036900040E0C8010E94EA1ACE14DF04B1F70F908F
:1036A000DF91CF911F910F91FF90EF90DF90CF901E
:1036B0000895FC0190810180F281E02DF8948181D0
:1036C000292F20958223818378948DE743E050E071
:1036D000815021F1DA011197F1F730813923C1F3DB
:1036E000F8948281822382838181892B81837894DB
:1036F000ABE7B7E01197F1F7F89481812823218394
:10370000A3E1B1E01197F1F78081982381E009F0FE
:1037100080E07894E3E6F6E03197F1F70895FB0155
:103720004181DC0112962C911297421768F0139692
:103730002C911397241740F0608115962C916217F5
:1037400018F424810C9426190895FC01808192813B
:10375000980F92832181921760F494819F5F9483E4
:103760009381890F821710F08FEF820F838381E09E
:10377000089580E00895FC01128280818150838346
:1037800014820895DB01ED91FC910994EF92FF9270
:103790000F931F93CF93DF931F92CDB7DEB78C01AA
:1037A000DC011296ED90FC901397D196ED91FC916F
:1037B000D29782E0099520E030E04AE0B701C801E5
:1037C0000E94C21BF82ED801D196ED91FC91D297A0
:1037D00083E00995D801D196ED91FC91D29780E0D4
:1037E0000995FF20A1F1F801628173819E012F5F8D
:1037F0003F4F46E4C8010E94C21B8981D8018C93C7
:1038000012966D917C9113979E012F5F3F4F47E475
:10381000C8010E94C21B8981F80181836281738182
:1038200020E030E048E4C8010E94C21BD8011B968A
:103830008C931B9798012D5C3F4F12966D917C9154
:10384000139747E1C8010E94C21B81E001C080E0DC
:103850000F90DF91CF911F910F91FF90EF900895FE
:103860002F923F925F926F927F928F929F92AF9230
:10387000BF92CF92DF92EF92FF920F931F93CF935D
:10388000DF931F92CDB7DEB71C01C62E142FD22EA8
:10389000DC011496ED90FC901597C7010E949D07DE
:1038A000082FF101848195810E94A007982E013094
:1038B00019F48FE0A82E02C0AA24AA94D10114966C
:1038C0008D919C9115970E944A19082FF1018481CE
:1038D00095810E944619B82ED10114968D919C9124
:1038E00015970E949707B0E6BD1530F4009721F0B8
:1038F000E80EF91E01E611C0F101848195810E9454
:103900009A07F0E4FD1530F4009721F0E80EF91E57
:1039100001E403C021E1E20EF11CBD1480F4D101E9
:1039200050961C92509753961C92539754961C9203
:10393000549751961C92519752961C92C7C0B0163C
:1039400070F3892D90E0F70124912F3F21F4FFEFD0
:10395000EF1AFF0A5AC00D114FC0D10114968D9174
:103960009C9115970E949D0797012F5F3F4FF7018C
:10397000882311F08230E1F48491D10153968C9325
:103980005397F901249154962C935497F701339649
:10399000E4915096EC935097F7013496E491519648
:1039A000EC935197F7013596E4915296EC9320C031
:1039B0008491982F9F709250D10152969C93529768
:1039C00082958F7051968C935197F9012491822F93
:1039D0008F7054968C93549722952F7053962C93F6
:1039E0005397F7013296E491E295EF705096EC937D
:1039F000E114F10479F46AC0F7013296E491EA2106
:103A00009C012E0F311DE20EF31E0B1509F487CF1A
:103A10000F5F99CFF101848195810E94A007B82E94
:103A2000D10153969C9053975496DC90549751969D
:103A30008C915197C80E52969C919D0D512E591AFA
:103A40000D2D292D452D6C2DC1010E94770888234D
:103A5000D1F1C7018B0D911D5C0187E0890DF82E16
:103A6000F694F694F694D50C41019CE1890E911CD4
:103A70006F2C712C5D1439F15C2D8501802F8A1912
:103A80008F15E8F4F8018491D10112966D917C9123
:103A900013975C965C935C975D965C925D975F96DE
:103AA0001C925F975E968C9394014BE3C1015983FE
:103AB0000E94C21B0F5F1F4F5981585FDFCFA60CBA
:103AC000B71C5394D7CFF101808901C080E00F90DB
:103AD000DF91CF911F910F91FF90EF90DF90CF90EA
:103AE000BF90AF909F908F907F906F905F903F902E
:103AF0002F900895FC01918D828D981761F0828D31
:103B0000DF01A80FB11D5D968C91928D9F5F9F7311
:103B1000928F90E008958FEF9FEF0895FC01918DB3
:103B2000828D981731F0828DE80FF11D858D90E020
:103B300008958FEF9FEF0895FC01918D228D892FBD
:103B400090E0805C9F4F821B91098F7399270895A5
:103B500080E090E0892B29F00E94231381110C94BE
:103B6000000008954F925F926F927F928F929F9282
:103B7000AF92BF92CF92DF92EF92FF920F931F937B
:103B8000CF93DF93CDB7DEB7A1970FB6F894DEBF22
:103B90000FBECDBF8C016A017B0177FF2FC0DC0116
:103BA000ED91FC910190F081E02D6DE209955C01B1
:103BB00022273327A9012C193D094E095F0919A2B3
:103BC000FE01B1967F019AE0492E512C612C712C97
:103BD000CA01B901A30192010E94EE28605DD701DC
:103BE0006E937D01211531054105510589F7BD0110
:103BF000C8010E9451138A0D9B1D1EC09A01AB0182
:103C000019A2FE01B1967F018AE0882E912CA12C89
:103C1000B12CCA01B901A50194010E94EE28605D92
:103C2000D7016E937D01211531054105510589F7B5
:103C3000BD01C8010E945113A1960FB6F894DEBFD2
:103C40000FBECDBFDF91CF911F910F91FF90EF90ED
:103C5000DF90CF90BF90AF909F908F907F906F90AC
:103C60005F904F9008950F931F93CF93DF93482F4A
:103C7000882309F44CC080914F0581114AC08B0103
:103C8000C42F81E080934F05FB0110826CEE79E038
:103C90008EE595E00E942D134C2F50E060E070E01F
:103CA0008EE595E00E94B21D6CE173E08EE595E033
:103CB0000E947A132EE533E042E350E068E873E1B6
:103CC00082E894E00E94B318823021F08430D9F465
:103CD0008EEF1AC064E673E084E894E00E94192C29
:103CE000009789F0EC01229662E270E0CE010E941A
:103CF000EF2B009711F0FC011082BE01C8010E9459
:103D0000032C81E001C080E010924F0503C08DEFCD
:103D100001C08FEFDF91CF911F910F9108950F9305
:103D20001F93CF93E0919C05F0919D05309719F07A
:103D30008EE895E009950091900510919105E0912C
:103D4000BF05F091C00582E00995E091BF05F091B3
:103D5000C00581E0099520E030E045E1B8018EE83A
:103D600095E00E94C21BC82F882341F021EC35E06A
:103D700047E1B8018EE895E00E94C21BE091BF05C3
:103D8000F091C00580E009958C2FCF911F910F9184
:103D900008959F92AF92BF92CF92DF92EF92FF92DF
:103DA0000F931F93CF93DF93EC017B016A015901BD
:103DB000912C8C0104521F4FB701C8010E942D1392
:103DC00061E772E0C8010E94511342E350E0B6017E
:103DD000CE010E94D715813039F4B501CE010E9481
:103DE0001015882311F00CC08FEF939495E099166D
:103DF00041F064EF71E080E090E00E948014DCCF3D
:103E000081E0DF91CF911F910F91FF90EF90DF90B4
:103E1000CF90BF90AF909F900895CF93DF93CDB791
:103E2000DEB729970FB6F894DEBF0FBECDBFFC01F9
:103E30002081203119F1BE016F5F7F4F0E94190F61
:103E4000882379F068E0CE0101960E948A1A99854C
:103E5000891307C008C0803458F08F3569F08F3758
:103E600069F080E00CC08D818F33A9F78AE007C02C
:103E70008F31B9F789E003C08BE001C08CE029964F
:103E80000FB6F894DEBF0FBECDBFDF91CF9108957E
:103E9000CF9384EA8093BC0061E080E80E94B3077E
:103EA000882359F08091B900887F883041F08031B3
:103EB00031F061E082E00E94AA07C0E01DC088E7FF
:103EC0008093BB0084E88093BC0062E080E80E949D
:103ED000B307882391F38091C206C82FC27081FD79
:103EE0000AC08091B900887F883129F062E082E0C1
:103EF0000E94AA0701C0C1E08C2FCF910895FC0158
:103F0000848DDF01A80FB11DA35ABF4F2C91848D62
:103F100090E001968F739927848FA689B7892C9397
:103F2000A089B1898C9180648C93938D848D981332
:103F300006C00288F389E02D80818F7D80830895FB
:103F4000EF92FF920F931F93CF93DF93EC0181E0E9
:103F5000888F9B8D8C8D981305C0E889F9898081A5
:103F600085FD24C0F62E0B8D10E00F5F1F4F0F73E1
:103F70001127E02E8C8DE8120CC00FB607FCFACF8B
:103F8000E889F989808185FFF5CFCE010E947F1FE6
:103F9000F1CF8B8DFE01E80FF11DE35AFF4FF08248
:103FA0000B8FEA89FB898081806207C0EE89FF89D7
:103FB0006083E889F98980818064808381E090E072
:103FC000DF91CF911F910F91FF90EF900895CF93C4
:103FD000DF93EC01888D8823C9F0EA89FB89808111
:103FE00085FD05C0A889B9898C9186FD0FC00FB6E3
:103FF00007FCF5CF808185FFF2CFA889B9898C9124
:1040000085FFEDCFCE010E947F1FE7CFDF91CF91DB
:104010000895CF93DF93CDB7DEB7E4970FB6F8944A
:10402000DEBF0FBECDBF789484B5826084BD84B5F9
:10403000816084BD85B5826085BD85B5816085BDA3
:1040400080916E00816080936E001092810080915B
:1040500081008260809381008091810081608093E3
:104060008100809180008160809380008091B10008
:1040700084608093B1008091B00081608093B00033
:1040800080917A00846080937A0080917A008260C7
:1040900080937A0080917A00816080937A00809189
:1040A0007A00806880937A001092C10061E08BE012
:1040B0000E942D1461E08AE00E942D14F894109261
:1040C000800010928100109285001092840080ED93
:1040D00097E09093890080938800809181008860A8
:1040E0008093810080918100856080938100809120
:1040F0006F00826080936F00789480E499E19093E0
:10410000A4058093A30586EA93E00E942E11E09116
:10411000CD05F091CE05138615861486DF011B961A
:1041200033961E92AE17BF07E1F71092CC0511E04F
:10413000BE01675E7F4F8091CD059091CE050E94B4
:10414000C50F882309F451C067E0CE0149960E944B
:104150008A1A98A18913ECCF8091C805811127C0D4
:104160008091CD059091CE050E94591BBE01675EDE
:104170007F4F8091CD059091CE050E942C1B40E091
:1041800064EB8091CD059091CE050E94EA1A809152
:10419000CD059091CE050E94971A082F8091CD05EC
:1041A0009091CE050E94591B002309F449C6BE0117
:1041B0006F5F7F4FCE0149960E94190F0091C9058C
:1041C000CE0149960E940D1F801718F48091C905F1
:1041D00004C0CE0149960E940D1F8093C9058091AD
:1041E000CC058F5F8093CC05A3CF0091CC050093C5
:1041F000740361EBC62E63E0D62EE12CF12C10E0A7
:10420000E016F1065CF46E2DC6010E9455102FEFEA
:10421000E21AF20A38E0C30ED11CF2CF0E94090B59
:104220008430E1F00E94B00E9DC142E052E06AE0AD
:104230008AE00E94E50E43E152E060E48DE40E94D2
:10424000E50E0E948F1E8111F0CF0E94090B182FDE
:104250008093E2038FEF810F823018F00E94B00E3E
:10426000E4CF68EE73E080E090E00E9480141230AA
:10427000A1F41092060181E08093070110930801D8
:1042800083E08093090184E080930A0185E08093B4
:104290000B011092E203109273038091E2038130CC
:1042A00061F041EB642E41E0742E8E01035D1F4FDF
:1042B0005FE1C52E52E0D52E1DC026E0C22E21E0C2
:1042C000D22E30E0E32E31E0F32E0AE010E0C801F8
:1042D0000E949B08D6018D936D01C80106960E942D
:1042E0009B08F70181937F010F5F1F4F003111057C
:1042F00071F7D7CF0E94B00E0E94090B813029F4CC
:10430000809173038F5F8093730380917303873071
:1043100010F0109273030E94090B823051F4E09167
:104320007303F0E0E050FF4F81E09081911180E055
:1043300080830E94090B833059F4E0917303F0E00D
:10434000EA5FFE4F80818F5F8083863008F01082A5
:104350000E948A1091EBA92E93E0B92EE12CF12C4A
:104360008091740390E0E816F90674F5C5010E9487
:104370006E0F8138F4EE9F076CF0BC01990F880B2B
:10438000990B0E94652A20E030E040E05CE30E9447
:10439000722B04C060E070E08EEF92EC0E942D2A38
:1043A0007F936F937F926F921F930F930E94332C92
:1043B000B801CE0101960E94E42B0F900F900F9050
:1043C0000F900F900F9006C06BE172E0CE01019646
:1043D0000E94E42B2FEFE21AF20A38E0A30EB11C80
:1043E00086E0E816F10409F0BBCF1C8A1DA6B6E0F2
:1043F0004B2EB1E05B2E80E0282E81E0382E51015B
:104400004201E12CF12CD4018D914D0190E00196F7
:104410009F938F93DF92CF921F930F930E94332C21
:10442000F50181915F010F900F900F900F900F9009
:104430000F90813019F465EB71E002C062EA72E01E
:10444000CE0149960E94E42BB801CE0149960E9404
:10445000E42BF5E0EF16F10431F062EA72E0CE01F0
:1044600049960E94E42B2FEFE21AF20A36E0E31697
:10447000F10449F6A5E1FA2E80917203813069F4C6
:10448000809173038F9D802D112441E1480F24E317
:1044900064E38D5F0E94BB1006C042EA52E06AE00E
:1044A00080E00E94E50E0E94090B882359F043E248
:1044B00052E069E180E20E94E50E4DE252E060E4E4
:1044C0008EE10AC048E352E069E189E00E94E50E0E
:1044D00049E452E060E480E00E94E50EAE014F5FE7
:1044E0005F4F64E280E00E94E50E26E24DE766E25F
:1044F00080E00E94BB10AE01475E5F4F63E385E042
:104500000E94E50E0E948F1E8111B6CF1982198E6E
:1045100080917203813019F41092720303C081E01C
:10452000809372036AEF70E080E090E00E94801454
:104530000E94090B843009F0DDCE0AE010E0D201C0
:104540006D912D01C8010E949908F10161911F012F
:10455000C80106960E9499080F5F1F4F0031110590
:1045600071F760CE4CE552E06AE086E20E94E50E0B
:104570000E948F1E8111F6CF40EC52E160E070E0A6
:1045800082E894E00E944416892B19F081E0809320
:10459000B00370E0A72E71E0B72EE6E0CE2EE1E08A
:1045A000DE2EFAE0EF2EF12CC7010E949B08082FA7
:1045B000D6018D936D01C70106960E949B08882E37
:1045C000F50181935F010093DF0310E0F801E75AE2
:1045D000FE4F908061E0892D0E942D14811002C051
:1045E00060E001C061E0892D0E94FD13C801880FC1
:1045F000991F880F991F9C0129583C4F4901F801C8
:10460000E955FC4F608170E080E090E00E94652AEF
:104610009B01AC01D4016D917D918D919C910E9483
:10462000B629F801E752FC4F87FF03C081E0808381
:1046300001C01082BFEFEB1AFB0AE0E1EE16F104B5
:1046400009F0B2CF0E94230B89E090E00E949B0802
:10465000823018F48093A60302C01092A603109231
:104660007603109272031092710381E0809390039D
:1046700061E080E10E94FD1360E080E10E942D1462
:1046800042E0642E53E0752E11E08091AF0381303B
:1046900069F4609190057091910520E030E040E16F
:1046A0008EE895E00E94C21B6092AF038091AF0339
:1046B00081110DC0609190057091910520E030E06E
:1046C00041E18EE895E00E94C21B7092AF030E9408
:1046D000090B8093E203882341F08091AF0382307D
:1046E00021F41092AF031092E2039091E2038091C3
:1046F000AE03913071F4811125C08091AD038F5FBD
:104700008093AD037092AE038630E0F01092AD035B
:1047100019C0923079F4811115C08091AD03815098
:104720008093AD037092AE038F3F61F4F5E0F09398
:10473000AD0308C0943031F4811104C01093AE036E
:104740001092E2038091AE03813009F05BC00091CA
:10475000E203011106C08091E1038F5F8093E103C2
:1047600002C01092E10363E371E08CE091E00E94EB
:10477000032CE091AD03F0E0EA5FFE4FE0808E2D68
:1047800090E09C0129553C4F7901D9018C91811110
:1047900006C0033021F48FEF8C931092E203F701EF
:1047A0008081882339F08091E203833019F41082EC
:1047B0001092E2030E94090B813081F4D7018C91A1
:1047C000811102C08FE08C93F70180818E3110F04F
:1047D0008DE18083D7018C918F5F8C930E94090BB0
:1047E000823081F4F70180818F3F11F48AE1808368
:1047F000D7018C91813110F481E18C93F701808194
:10480000815080830091A603023028F061E08AE0A5
:104810000E94FD1316C060E08AE00E94FD13013083
:1048200081F483E00E9469148139914054F06092D0
:10483000A6038FE38093920383E00E943A0B1092C9
:104840009203E0918004F0918104369780819181F8
:1048500064E672E0845A9A4F0E94661327E533E0BB
:1048600042E350E06AEF70E082E894E00E94B318FF
:104870006BE672E082E894E00E9410158823A9F1AB
:1048800060E27AE384E894E00E94EF2B43E050E09A
:10489000BC01CE0101960E940A2CCE0101960E9415
:1048A000D42EBC01990F880B990B0E94652A20E039
:1048B00030E048EF51E40E94BB2920E030E048ECB2
:1048C00052E40E94722B20E030E048EC51E40E9458
:1048D000BB2920E030E040EC5FE30E944A290E94BF
:1048E000A02A0E94342A6093910380919003813022
:1048F00031F480E10E94D413019709F4A4C280919D
:104900009003811106C080E10E94D413892B09F421
:10491000A5C21092E00380914F05811173C01093DE
:104920004F05E0918004F091810436978081918158
:104930009C01245A3A4F790167EB77E0C9010E9444
:104940002D1361E772E0C7010E94511310925405C4
:1049500088E893E190935605809355058CED95E09A
:1049600090935805809357050E94BA146093590597
:1049700070935A0580935B0590935C0510928404B4
:1049800084E894E09093520580935105109253056A
:1049900067E573E082E894E00E94101581110CC075
:1049A00082E894E00E941F15882391F3813021F062
:1049B000843009F50EEF20C064E772E082E894E0ED
:1049C0000E941015882369F06AE370E084E894E09F
:1049D0000E94EF2B009729F001960E94D42E082FF9
:1049E00001C000E044E150E064E170E082E894E05E
:1049F0000E94D71501C000E010924F05002309F472
:104A00000BC137C2DD24DA9480914F058111CEC0ED
:104A100010934F05198EE0918004F0918104369730
:104A20008081918165EC77E0845A9A4F0E942D1322
:104A3000E0918004F0918104369780819181DC01BE
:104A4000A45ABA4F7D014D2D50E060E070E0CD01D9
:104A50000E94B21D61E772E0C7010E9451132BE76B
:104A600032E044E650E068E873E182E894E00E94B6
:104A7000B318823029F0843009F05CC00EEF5BC0BF
:104A800061E872E082E894E00E94101581110AC08A
:104A90006EE872E082E894E00E941015811104C073
:104AA00003E003C001E001C002E06CE270E084E8D2
:104AB00094E00E94EF2B02965C0162E270E00E949B
:104AC000EF2B7C01009739F0FC011082B501CE017B
:104AD00049960E94032C6AE070E0C70101960E948B
:104AE000EF2B009741F17C01FFEFEF1AFF0A6DE019
:104AF00070E0C7010E94EF2B009711F0DC011C92BF
:104B0000F70101900020E9F73197EE19FF09E43130
:104B100030F4B70182E993E00E94032C0CC083E1DA
:104B2000F701A2E9B3E001900D928A95E1F71092A6
:104B3000A60301C000E010924F051016BCF502302C
:104B4000A9F5FF24F394BE016F5F7F4F8F2D0E9464
:104B5000331E813019F569E972E083EE93E00E941B
:104B60007A13BE01675E7F4F83EE93E00E94661367
:104B700064EA72E083EE93E00E947A13BE016F5FF5
:104B80007F4F83EE93E00E946613BE016F5F7F4FFD
:104B9000CE0149960E94FA2B892B29F0F394B4E0B8
:104BA000FB12D1CF03C082E00E943A0B80914F05E7
:104BB000811132C010934F05E0918004F09181047F
:104BC0003697808191816EEC77E0845A9A4F0E94EB
:104BD0002D13E0918004F0918104369780819181BA
:104BE000FC01E45AFA4F7F014D2D50E060E070E087
:104BF000CF010E94B21D61E772E0C7010E9451130C
:104C000027E533E042E350E068E873E182E894E0AE
:104C10000E94B31810924F05109292030E948A10BE
:104C200037E7E32E33E0F32E00E0602FCE0101964C
:104C30000E945510811105C060E070E08EEF92EC8B
:104C400014C0CE0101960E946E0F8138F4EE9F07CA
:104C50009CF3BC01990F880B990B0E94652A20E0F8
:104C600030E040E05CE30E94722BD7016D937D93AE
:104C70008D939D937D010F5F0630B9F6E7EAF3E06F
:104C8000FCABEBAB89E5C82E81E0D82E99EDE92E7F
:104C900093E0F92E20E0A22E21E0B22E26E031E0B2
:104CA0003AAB29ABA9A9BAA9ED91BAABA9ABE093EC
:104CB000DF03B4E0EB9FF0011124E958FC4F2080A2
:104CC000318042805380EBA9FCA90191FCABEBAB96
:104CD000802E912CB4016F5F7F4F072E000C880B44
:104CE000990B0E94652A9B01AC01C201B1010E948F
:104CF000B62987FF07C0D7018C91813019F40111C3
:104D000003C012C00F3F81F4F5018081811104C0FE
:104D100061E0D6018C9105C0813041F460E0F6017C
:104D200080810E94FD1302C0D7011C92B401990C2E
:104D3000880B990B0E94652A9B01AC01C201B1014D
:104D40000E946D2B181624F4F7018081882311F03E
:104D5000011110C0D5018C91811104C060E0F601F1
:104D6000808105C0813041F461E0D6018C910E94C0
:104D7000FD1302C0F7011083FFEFCF1ADF0A2FEFF8
:104D8000E21AF20A3FEFA31AB30A89A99AA98C5032
:104D9000914009F087CF0E94B00E0E94E3080E9464
:104DA0008F1E8111FACF8091AE03833041F41092AF
:104DB000AE036AEF70E080E090E00E948014809182
:104DC000AE03823021F08091E1038530F9F466E48E
:104DD00071E08CE091E00E94032C1092AE031092DF
:104DE000E103E091AD03F0E0EA5FFE4F808190E0E7
:104DF000FC01E955FC4F60810E9499080E94230B39
:104E00006AEF70E080E090E00E9480148091760369
:104E10008F5F8093760390917503963021F02091F7
:104E2000AE03213019F41092750303C09F5F909375
:104E30007503823011F4109276030E94A81D25CCD0
:104E40001093C805B4C9109290038FE38093920326
:104E500083E00E943A0B1092920351CD109390037D
:104E60008FE38093920383E00E943A0B10929203A7
:104E700050CDD02EC9CD1092E6031092E50348EE36
:104E800053E060E070E04093E7035093E8036093E1
:104E9000E9037093EA0389E691E09093E403809339
:104EA000E30385EC90E09093F0038093EF0384ECB0
:104EB00090E09093F2038093F10380EC90E0909364
:104EC000F4038093F30381EC90E09093F6038093D6
:104ED000F50382EC90E09093F8038093F70386EC5F
:104EE00090E09093FA038093F9031092FC031092E0
:104EF000FD031092FE031092FF0383E090E0909375
:104F00005C0680935B0690935E0680935D069093AB
:104F1000600680935F06909362068093610690938B
:104F200089058093880589E891E0909383048093B4
:104F3000820481E090E090934E0580934D0510929D
:104F4000610510926005409362055093630560937C
:104F500064057093650589E791E090935F05809300
:104F60005E051092750510927405109277051092E7
:104F70007605109279051092780510927B051092B3
:104F80007A0560917C056E7F6D7F60937C056695E8
:104F9000617081E0682783E00E94FD1361E083E097
:104FA0000E942D14E2E0F8E0E491E0936E05EEEE4D
:104FB000F7E0E491F0E0EE0FFF1FE952F84F859122
:104FC00094919093700580936F0560E082E00E9459
:104FD0002D1480917C0581FD04C061E082E00E9477
:104FE000FD1382E080936A05E1E0F8E0E491E0934C
:104FF0006B05EDEEF7E0E491F0E0EE0FFF1FEF51EF
:10500000F84F8591949190936D0580936C058EE592
:1050100095E090937E0580937D0580E197E2A0E086
:10502000B0E080937F0590938005A0938105B093B5
:10503000820581E08093870581E991E09093810466
:10504000809380048BE991E09093830480938204A1
:1050500083E090E0909364068093630690937406D7
:105060008093730660E08FE00E942D14EEE0F8E07C
:10507000E491E0936506EAEFF7E0E491F0E0EE0FEB
:10508000FF1FEF51F84F859194919093670680939D
:105090006606109270061092720610927106E0E792
:1050A000F6E0129286E0E836F807D9F784E299E153
:1050B0009093DA058093D90585E696E09093CE0526
:1050C0008093CD051092CC051092C80589E080939D
:1050D000C90581E08093CA058093CB0510928D05A8
:1050E00010928C0521EA31E030938B0520938A05DC
:1050F0001092C5051092C6051092C705109293052F
:1051000010929205109295051092940510929705B1
:105110008093960582E28093980510929D051092E7
:105120009C05E1EBF5E09FEF8EE08E0F91938E13DF
:10513000FDCF81E08093AE0524E439E13093A405EE
:105140002093A3058093A5051092A6051092A705AC
:1051500080E48093A8051092A90585E299E19093D7
:10516000C0058093BF0587E291E0909391058093FD
:1051700090051092BC058EE895E00E94C61B89EA56
:1051800091E090938B0580938A050895E0E8F4E020
:1051900081E991E09183808389E891E09383828320
:1051A00089E791E090935F0580935E058EE595E039
:1051B0000C94C81997FB072E16F4009407D077FDBE
:1051C00009D00E94352907FC05D03EF490958195C1
:1051D0009F4F0895709561957F4F0895A1E21A2E13
:1051E000AA1BBB1BFD010DC0AA1FBB1FEE1FFF1F8B
:1051F000A217B307E407F50720F0A21BB30BE40BDB
:10520000F50B661F771F881F991F1A9469F7609521
:105210007095809590959B01AC01BD01CF010895DB
:10522000052E97FB1EF400940E94272957FD07D0F6
:105230000E94EE2807FC03D04EF40C9427295095C9
:105240004095309521953F4F4F4F5F4F0895909572
:105250008095709561957F4F8F4F9F4F0895EE0F0A
:10526000FF1F0590F491E02D0994AA1BBB1B51E18F
:1052700007C0AA1FBB1FA617B70710F0A61BB70BC6
:10528000881F991F5A95A9F780959095BC01CD016B
:1052900008955058BB27AA270E9461290C941B2B04
:1052A0000E940D2B38F00E94142B20F039F49F3F00
:1052B00019F426F40C940A2B0EF4E095E7FB0C94F9
:1052C000DB2AE92F0E942C2B58F3BA1762077307C9
:1052D0008407950720F079F4A6F50C94662B0EF45C
:1052E000E0950B2EBA2FA02D0B01B90190010C01F6
:1052F000CA01A0011124FF27591B99F0593F50F40E
:10530000503E68F11A16F040A22F232F342F442765
:10531000585FF3CF469537952795A795F04053955D
:10532000C9F77EF41F16BA0B620B730B840BBAF02D
:105330009150A1F0FF0FBB1F661F771F881FC2F798
:105340000EC0BA0F621F731F841F48F487957795AC
:105350006795B795F7959E3F08F0B0CF9395880F66
:1053600008F09927EE0F9795879508950E94B72A20
:1053700008F481E008950E94CF290C941B2B0E9411
:10538000142B58F00E940D2B40F029F45F3F29F0B8
:105390000C94DB2A51110C94672B0C940A2B0E945D
:1053A0002C2B68F39923B1F3552391F3951B550BDF
:1053B000BB27AA2762177307840738F09F5F5F4FE8
:1053C000220F331F441FAA1FA9F335D00E2E3AF027
:1053D000E0E832D091505040E695001CCAF72BD03F
:1053E000FE2F29D0660F771F881FBB1F2617370790
:1053F0004807AB07B0E809F0BB0B802DBF01FF27C2
:1054000093585F4F3AF09E3F510578F00C94DB2A99
:105410000C94672B5F3FE4F3983ED4F38695779521
:105420006795B795F7959F5FC9F7880F911D96957A
:10543000879597F90895E1E0660F771F881FBB1FD6
:10544000621773078407BA0720F0621B730B840B83
:10545000BA0BEE1F88F7E09508950E94342A6894ED
:10546000B1110C94672B08950E94342B88F09F573C
:1054700098F0B92F9927B751B0F0E1F0660F771F78
:10548000881F991F1AF0BA95C9F714C0B13091F06E
:105490000E94662BB1E008950C94662B672F782F3D
:1054A0008827B85F39F0B93FCCF386957795679533
:1054B000B395D9F73EF490958095709561957F4F9F
:1054C0008F4F9F4F0895E89409C097FB3EF4909545
:1054D0008095709561957F4F8F4F9F4F9923A9F0CD
:1054E000F92F96E9BB279395F6958795779567955C
:1054F000B795F111F8CFFAF4BB0F11F460FF1BC0A0
:105500006F5F7F4F8F4F9F4F16C0882311F096E932
:1055100011C0772321F09EE8872F762F05C06623E0
:1055200071F096E8862F70E060E02AF09A95660F99
:10553000771F881FDAF7880F9695879597F9089552
:105540000E944E2B90F09F3748F4911116F00C9466
:10555000672B60E070E080E89FEB089526F41B164F
:10556000611D711D811D0C94E12A0C94FC2A990F78
:105570000008550FAA0BE0E8FEEF16161706E8071D
:10558000F907C0F012161306E407F50798F0621B3E
:10559000730B840B950B39F40A2661F0232B242B13
:1055A000252B21F408950A2609F4A140A6958FEF32
:1055B000811D811D089597F99F6780E870E060E084
:1055C0000895882371F4772321F09850872B762F44
:1055D00007C0662311F499270DC09051862B70E007
:1055E00060E02AF09A95660F771F881FDAF7880F18
:1055F0009695879597F908959F3F31F0915020F443
:10560000879577956795B795880F911D969587959E
:1056100097F908959FEF80EC089500240A941616D8
:10562000170618060906089500240A941216130690
:10563000140605060895092E0394000C11F488231E
:1056400052F0BB0F40F4BF2B11F460FF04C06F5F3A
:105650007F4F8F4F9F4F089557FD9058440F551F10
:1056600059F05F3F71F04795880F97FB991F61F0E4
:105670009F3F79F087950895121613061406551F5B
:10568000F2CF4695F1DF08C0161617061806991FC7
:10569000F1CF869571056105089408950E94342B19
:1056A000A0F0BEE7B91788F4BB279F3860F4161640
:1056B000B11D672F782F8827985FF7CF869577954C
:1056C0006795B11D93959639C8F30895E894BB2763
:1056D00066277727CB0197F908950E94B72A08F427
:1056E0008FEF08950E94852B0C941B2B0E940D2B8D
:1056F00038F00E94142B20F0952311F00C94DB2A33
:105700000C940A2B11240C94672B0E942C2B70F301
:10571000959FC1F3950F50E0551F629FF001729F56
:10572000BB27F00DB11D639FAA27F00DB11DAA1F65
:10573000649F6627B00DA11D661F829F2227B00DB2
:10574000A11D621F739FB00DA11D621F839FA00D3D
:10575000611D221F749F3327A00D611D231F849F8D
:10576000600D211D822F762F6A2F11249F575040E4
:105770009AF0F1F088234AF0EE0FFF1FBB1F661F5F
:10578000771F881F91505040A9F79E3F510580F028
:105790000C94DB2A0C94672B5F3FE4F3983ED4F320
:1057A000869577956795B795F795E7959F5FC1F7CC
:1057B000FE2B880F911D9695879597F9089581E0A6
:1057C00090E0F8940C94472FFB01DC010D90002031
:1057D000E9F7119701900D920020E1F70895FC017F
:1057E0008191861721F08823D9F799270895319759
:1057F000CF010895FB01DC018D910190801901100A
:10580000D9F3990B0895FB01DC0101900D92002062
:10581000E1F70895FB01DC014150504048F0019050
:105820000D920020C9F701C01D9241505040E0F791
:105830000895FB0151915523A9F0BF01DC014D9161
:1058400045174111E1F759F4CD010190002049F0CD
:105850004D9140154111C9F3FB014111EFCF81E09A
:1058600090E001970895AEE0B0E0E9E3FCE20C942B
:105870001E2F0D891E8986E08C831A8309838FEF82
:105880009FE79E838D83AE01475E5F4F6F89788D62
:10589000CE0101960E94562C2F813885F801E20F27
:1058A000F31F10822E96E4E00C943A2FACE0B0E0A7
:1058B000ECE5FCE20C94102F7C016B018A01FC01E9
:1058C00017821682838181FFBDC1CE0101964C01F2
:1058D000F7019381F60193FD859193FF81916F010B
:1058E000882309F4ABC1853239F493FD859193FF88
:1058F00081916F01853229F4B70190E00E943E2E1C
:10590000E7CF512C312C20E02032A0F48B3269F00B
:1059100030F4803259F0833269F420612CC08D322A
:1059200039F0803339F4216026C02260246023C01E
:10593000286021C027FD27C030ED380F3A3078F4B9
:1059400026FF06C0FAE05F9E300D1124532E13C0CF
:105950008AE0389E300D1124332E20620CC08E3226
:1059600021F426FD6BC1206406C08C3611F420683A
:1059700002C0883641F4F60193FD859193FF819131
:105980006F018111C1CF982F9F7D9554933028F4DA
:105990000C5F1F4FFFE3F9830DC0833631F083376F
:1059A00071F0833509F05BC022C0F80180818983E2
:1059B0000E5F1F4F44244394512C540115C03801ED
:1059C000F2E06F0E711CF801A080B18026FF03C0C9
:1059D000652D70E002C06FEF7FEFC5012C870E943C
:1059E000332E2C0183012C852F77222E17C03801EE
:1059F000F2E06F0E711CF801A080B18026FF03C099
:105A0000652D70E002C06FEF7FEFC5012C870E940B
:105A1000282E2C012C852068222E830123FC1BC0FC
:105A2000832D90E048165906B0F4B70180E290E06B
:105A30000E943E2E3A94F4CFF50127FC859127FE73
:105A400081915F01B70190E00E943E2E31103A949F
:105A5000F1E04F1A51084114510471F7E5C0843642
:105A600011F0893639F5F80127FF07C0608171818F
:105A7000828193810C5F1F4F08C060817181072E66
:105A8000000C880B990B0E5F1F4F2F76722E97FF1D
:105A900009C090958095709561957F4F8F4F9F4F6E
:105AA0002068722E2AE030E0A4010E94762EA82EF3
:105AB000A81844C0853729F42F7EB22E2AE030E0A2
:105AC00025C0F22FF97FBF2E8F36C1F018F488352C
:105AD00079F0B4C0803719F0883721F0AFC02F2F8C
