:100000000C9423090C944B090C944B090C94132069
:100010000C9413200C9413200C944B090C944B0952
:100020000C944B090C944B090C944B090C947917C4
:100030000C944B090C944B090C944B090C944B09F0
:100040000C9447110C944B090C9423100C94FD0F45
:100050000C944B090C944B090C944B090C944B09D0
:100060000C944B090C944B0980158B159615A11512
:10007000AC15B715C215001605160A160F1614167C
:100080001916221601070D00FE09016902D8207F0A
:10009000FE0BFE09FE0D0070222979C0C0C0C0C051
:1000A000C000C0C0185373D8D8D81259795050F82E
:1000B000F850F8F850500269793078B4B07834B418
:1000C0007830026979E4ACE81830605CD49C02694D
:1000D0007970D8D8D870D4DCD874272474C0C0C044
:1000E000C0124979306060C0C0C060603012497988
:1000F000C060603030306060C00366764830FCFC21
:1001000030480366763030FCFC3030114474707037
:1001100060C0056171FC11437360F0600269790C85
:100120000C1818306060C0C00269793048CCCCCC63
:10013000CCCC48300269793070B03030303030FC8F
:1001400002697978CCCC0C3860C0C0FC026979FCBB
:100150000C1830780C0CCC780269790C1C3C6CCCF7
:10016000CCFC0C0C026979FCC0C0F8CC0C0CCC782F
:1001700002697978CCC0C0F8CCCCCC78026979FC23
:100180000C0C18183030606002697978CCCCCC78CF
:10019000CCCCCC7802697978CCCCCC7C0C0CCC78EB
:1001A00011487860F060000060F06011487860F0FD
:1001B0006000707060C00269790C183060C06030F7
:1001C000180C046474FC0000FC026979C0603018EB
:1001D0000C183060C002697978CCCC0C3830003013
:1001E00030026979788C8CBCACBC808C78026979DF
:1001F00078CCCCCCFCCCCCCCCC026979F8CCCCCCB7
:10020000F8CCCCCCF802697978CCC0C0C0C0C0CCE6
:1002100078026979F8CCCCCCCCCCCCCCF80269791A
:10022000FCC0C0C0F8C0C0C0FC026979FCC0C0C03E
:10023000F8C0C0C0C002697978CCC0C0DCCCCCCCDE
:100240007C026979CCCCCCCCFCCCCCCCCC0269790E
:10025000FC30303030303030FC0269790C0C0C0C42
:100260000C0C0CCC78026979C4CCD8F0E0F0D8CC76
:10027000C4026979C0C0C0C0C0C0C0C0FC026979F6
:1002800084CCFCFCCCCCCCCCCC026979CCCCECECD6
:10029000FCDCDCCCCC02697978CCCCCCCCCCCCCC22
:1002A00078026979F8CCCCCCF8C0C0C0C0016A7AB9
:1002B00078CCCCCCCCCCECDC780C026979F8CCCC0A
:1002C000CCF8F0D8CCC402697978CCC0C0780C0CDA
:1002D000CC78026979FC303030303030303002690F
:1002E00079CCCCCCCCCCCCCCCC78026979CCCCCC75
:1002F000484878303030026979CCCCCCCCCCFCFC8E
:10030000CC8402697984CC4878307848CC840269FE
:1003100079CCCC78783030303030026979FC0C0CF4
:10032000183060C0C0FC124979F0C0C0C0C0C0C065
:10033000C0F0026979C0C060603018180C0C124916
:1003400079F030303030303030F00764743078CCB1
:1003500084016272FCFC194373C0603002667678D7
:100360000C7CCCCC7C026979C0C0C0F8CCCCCCCCA5
:10037000F802667678CCC0C0CC780269790C0C0C97
:100380007CCCCCCCCC7C02667678CCFCC0CC780221
:100390006979386C6060F06060606000687874CC87
:1003A000CC78C078CC78026979C0C0C0F8CCCCCC0D
:1003B000CCCC0269793030007030303030FC006BCA
:1003C0007B0C0C000C0C0C0C0C0CCC78026979C06A
:1003D000C0C0CCD8F0F0D8CC026979703030303061
:1003E000303030FC026676D8FCFCCCCCCC02667691
:1003F000F8CCCCCCCCCC02667678CCCCCCCC78000B
:100400006878F8CCCCCCF8C0C0C00068787CCCCC84
:10041000CC7C0C0C0C026676F8CCC0C0C0C0026666
:100420007678CC6018CC780268786060F86060609C
:100430006C38026676CCCCCCCCCC7C026676CCCC4C
:10044000CC787830026676CCCCCCFCFC4802667660
:10045000CCCC7878CCCC006878CCCCCCCC7C0CCC18
:1004600078026676FC0C1860C0FC12497970C0C036
:1004700060C060C0C070222979C0C0C0C0C0C0C008
:10048000C0C0124979E030306030603030E008633D
:100490007364FC98FF01070D00FE09015F02CF2085
:1004A000FFFE0BFE0AFE0D007032197980808080FD
:1004B0008080800080283373A0A0A013577750500D
:1004C000F850F850501357772078A07028F0200289
:1004D000697944A448101020489488026777609096
:1004E000906094887438137380808022397920401A
:1004F0004080808040402022397980404020202068
:100500004040800465754830FC3048145575202003
:10051000F82020114373706080165171F8213373F5
:1005200040E04012597908081010204040808002B5
:1005300069793048848484848448301259792060F1
:10054000A02020202020F8026979788484040830D3
:100550004080FC026979FC040810380404847802A5
:100560006979081828488888FC0808026979FC809D
:1005700080B8C40404847802697938408080B8C4A3
:10058000848478026979FC0408101020204040021D
:100590006979788484847884848478026979788419
:1005A000848C740404087021387840E040000040D6
:1005B000E040114878207020000070608012597966
:1005C000081020408040201008046474FC0000FCE7
:1005D00012597980402010081020408002697978F3
:1005E00084840408101000100269797884849CA423
:1005F000AC9480780269793048848484FC84848453
:10060000026979F844444478444444F802697978AA
:100610008480808080808478026979F844444444EE
:10062000444444F8026979FC808080F0808080FC3A
:10063000026979FC808080F080808080026979780E
:10064000848080809C848C7402697984848484FC96
:1006500084848484125979F820202020202020F8D6
:100660000269791C080808080808887002697984FA
:100670008890A0C0A0908884026979808080808062
:10068000808080FC02697984CCCCB4B48484848476
:100690000269798484C4A4948C84848402697978FE
:1006A0008484848484848478026979F8848484F8D6
:1006B00080808080016A7A788484848484A4947899
:1006C00004026979F8848484F8A0908884026979A6
:1006D000788480807804048478125979F820202066
:1006E0002020202020026979848484848484848466
:1006F00078026979848484484848303030026979C6
:1007000084848484B4B4CCCC8402697984844848D9
:1007100030484884841259798888505020202020FD
:1007200020026979FC04081030204080FC114B7BCA
:10073000F0808080808080808080F0125979808075
:1007400040402010100808114B7BF01010101010C2
:1007500010101010F0185373205088016171FC2A9A
:100760002272804002667678047C848C74026979F7
:10077000808080B8C48484C4B8026676788480801F
:100780008478026979040404748C84848C7402660D
:10079000767884FC80847802697938444040F0405F
:1007A0004040400068787488887080788478026956
:1007B00079808080B8C48484848412587820006052
:1007C00020202020F8105A7A080018080808088805
:1007D00088700269798080808890E09088841259BE
:1007E000796020202020202020F8125676D0A8A85A
:1007F000A8A888026676B8C4848484840266767861
:100800008484848478006878B8C484C4B880808084
:10081000006878748C848C74040404026676B8448E
:100820004040404002667678846018847802687898
:100830004040F04040404438026676848484848C92
:10084000741256768888885050201256768888A868
:10085000A8A85002667684483030488400687884BE
:1008600084848C74048478026676FC08102040FC32
:10087000115B7B3840404020C02040404038321956
:1008800079808080808080808080115B7BE0101088
:1008900010201820101010E018537348A890FFFF84
:1008A000FFFFFFFFFFFFFFFFFFFFFFFFFFFFFFFF58
:1008B000FFFFFFFFFFFFFFFFFFFFFFFFFFFFFF0D3A
:1008C0000070321979800080808080808080135889
:1008D000782070A8A0A0A870200269793844404010
:1008E000E0404044B80366768478484878840259EA
:1008F0007988885050F820F820203219798080803B
:10090000800080808080124A7A6090806090906041
:1009100010906019427290900269797884B4A4A40E
:10092000A4B48478145777700878887800F803673F
:1009300077142850A0502814145373F8080816414F
:1009400071F00269797884B4ACACB4AC84781A5193
:1009500071F8174474609090601357772020F82046
:100960002000F816367640A0204080E0163676E06B
:10097000204020A0402A227240800167778484842E
:1009800084CCB4800269797CE8E8E86828282828C3
:10099000262171C0202272408016367640C0404029
:1009A00040E01546766090906000F0036777A050B5
:1009B00028142850A0026A7A40C0404044EC141425
:1009C0001C04026A7A40C0404048F40408101C022B
:1009D0006A7AE0204020A44C14141C040269792097
:1009E0000020204080848478026A7A2010003048F9
:1009F0008484FC8484026A7A10200030488484FC59
:100A00008484026A7A30480030488484FC848402FA
:100A10006A7A64980030488484FC8484026A7A4844
:100A2000480030488484FC8484026A7A304830303C
:100A3000488484FC84840269795CA0A0A0B8E0A00A
:100A4000A0BC006B7B7884808080808084781020BC
:100A5000026A7A201000FC8080F08080FC026A7AB2
:100A6000102000FC8080F08080FC026A7A30480010
:100A7000FC8080F08080FC026A7A484800FC80801C
:100A8000F08080FC125A7A402000F820202020209C
:100A9000F8125A7A204000F82020202020F8125A1C
:100AA0007A205000F82020202020F8125A7A8888D6
:100AB00000F82020202020F8026979F8444444E41A
:100AC000444444F8026A7A64980084C4A4A4948CD0
:100AD00084026A7A20100078848484848478026A8C
:100AE0007A10200078848484848478026A7A30487A
:100AF0000078848484848478026A7A649800788494
:100B00008484848478026A7A48480078848484845F
:100B10008478036676844830304884016B7B04789F
:100B20008C9494A4A4A4C47880026A7A20100084CF
:100B3000848484848478026A7A1020008484848483
:100B4000848478026A7A3048008484848484847837
:100B5000026A7A48480084848484848478125A7AA9
:100B60001020008888502020202002697980F88495
:100B70008484F8808080125979609090A0A0908839
:100B800088B002697920100078047C848C74026932
:100B90007910200078047C848C74026979304800D4
:100BA00078047C848C7402697964980078047C846D
:100BB0008C7402697948480078047C848C74026AD9
:100BC0007A3048300078047C848C7402667668142D
:100BD0007C90946800687878848080847810200203
:100BE00069792010007884FC80847802697910206B
:100BF000007884FC8084780269793048007884FC2D
:100C00008084780269794848007884FC808478126E
:100C100059794020006020202020F8125979204086
:100C2000006020202020F812597960900060202078
:100C30002020F81259799090006020202020F8029E
:100C40006A7A4830500878848484847802697964A8
:100C50009800B8C484848484026979201000788460
:100C6000848484780269791020007884848484786C
:100C700002697930480078848484847802697964D0
:100C8000980078848484847802697948480078845C
:100C900084848478135777202000F800202001688E
:100CA0007804788C94A4C478800269792010008438
:100CB0008484848C74026979102000848484848CF8
:100CC00074026979304800848484848C7402697960
:100CD000484800848484848C74006B7B10200084DA
:100CE00084848C74048478006A7A8080B8C4848494
:100CF000C4B88080006B7B4848008484848C740472
:100D00008478002730FBF518000000002A3A001A0A
:100D1000FB18000A0B160D010F0C000C004C80EDA7
:100D2000C07F803F001E003F007380E1C040801103
:100D3000103013010101C00001C00001C00001C05A
:100D40000001C00001C00001C000FFFF80FFFF8064
:100D5000FFFF8001C00001C00001C00001C0000110
:100D6000C00001C0000309090903FBE0E0E0E02046
:100D70006060C0800802020B0108FFFF0304040941
:100D80000300E0E0E0E00918300900000180018084
:100D900001800300030003000600060006000C00AB
:100DA0000C000C000800180018001800300030007B
:100DB0003000600060006000C000C0000F183012FA
:100DC000010007C01FF03FF83C78783C701C701C95
:100DD000E00EE00EE00EE00EE00EE00EE00EE00EA3
:100DE000E00EE00E701C701C703C3C783FF81FF069
:100DF00007C00818181203000307070F3FFFFF077B
:100E00000707070707070707070707070707070772
:100E10000F183012010007C01FF03FF8783C701C1B
:100E2000F00EE00EE00E000E001C003C007800F01A
:100E300003E007C01F003C0078007000E000E00005
:100E4000FFFEFFFEFFFE0F183012010007C01FF06B
:100E50003FF83838701C701C701C701C001C003867
:100E600003F803F003F8003C001E000EE00EE00E55
:100E7000E00E701C783C3FF81FF007C010183012CD
:100E80000000001800380078007800F801F803B876
:100E900003B807380E380E381C38383838387038F0
:100EA000E038FFFFFFFFFFFF003800380038003850
:100EB00000380F18301201003FFC3FFC3FFC3800A7
:100EC000380038007000700077C07FF07FF8787CC1
:100ED000701C001E000E000E000EE00EE01EF01C46
:100EE000787C7FF83FF00F800F183012010003C0AC
:100EF0000FF01FF83C38381C701C70007000600048
:100F0000E3C0EFF0FFF8F83CF01CF00EE00EE00E4E
:100F1000600E700E701C383C3FF81FF007C00F18B1
:100F200030120100FFFEFFFEFFFE000E001C001845
:100F300000380070007000E000E001C001C00380D4
:100F400003800700070007000E000E000E001C00C3
:100F50001C001C000F183012010007C01FF03FF8E2
:100F6000383C701C701C701C701C783C3C781FF066
:100F70000FE03FF8783C701CE00EE00EE00EE00E53
:100F8000F01C783C3FF81FF007C00F18301201002A
:100F900007C01FF03FF8787C703CF01CE01EE00EAC
:100FA000E00EE00EE01EE01E703E7FFE3FEE0FCE34
:100FB000000E001CE01CF03C78783FF03FE00F8012
:100FC000031212090400E0E0E0E00000000000006D
:100FD00000000000E0E0E0E0000000002500280044
:100FE0002B00000000002300260029000404040454
:100FF00004040404020202020202030303030303C3
:10100000010204081020408001020408102001029F
:1010100004081020005EBCE2613FDD83C29C7E209C
:10102000A3FD1F419DC3217FFCA2401E5F01E3BDC4
:101030003E6082DC237D9FC1421CFEA0E1BF5D03B8
:1010400080DE3C62BEE0025CDF81633D7C22C09EAC
:101050001D43A1FF4618FAA427799BC584DA386698
:10106000E5BB5907DB856739BAE406581947A5FB84
:101070007826C49A653BD987045AB8E6A7F91B4578
:10108000C6987A24F8A6441A99C7257B3A6486D86C
:101090005B05E7B98CD2306EEDB3510F4E10F2AC58
:1010A0002F7193CD114FADF3702ECC92D38D6F3144
:1010B000B2EC0E50AFF1134DCE90722C6D33D18F38
:1010C0000C52B0EE326C8ED0530DEFB1F0AE4C122C
:1010D00091CF2D73CA947628ABF517490856B4EA18
:1010E0006937D58B5709EBB536688AD495CB297704
:1010F000F4AA4816E9B7550B88D6346A2B7597C9F8
:101100004A14F6A8742AC896154BA9F7B6E80A54EB
:10111000D7896B3500000000240027002A0000005A
:1011200000080002010000030407000000000000A6
:10113000000041542B434D47533D220041542B4363
:101140005042523D0041542B43495053485554009E
:1011500041542B435042533D22534D220041542BC6
:10116000434D47463D310041542B434D45453D30AD
:101170000041542B434C49503D310041542B4950C0
:10118000523D0041542B4950523D0041542B49508F
:10119000523D393630300D0041542B4950523D39C3
:1011A0003630300D0041542B4950523D39363030E5
:1011B0000D0041542B4950523D393630300D00411D
:1011C000542B4950523D393630300D0041542B4993
:1011D00050523D393630300D0041542B4950523D6C
:1011E000393630300D0041542B4950523D3936309C
:1011F000300D0041542B4950523D393630300D00EE
:10120000FFE0FFD1AFFF32FFD0FFFEFFE0FFD1AE26
:10121000FFD0FFFEFFE0FFD11000FFFEFFD0FFE098
:10122000FFC1FFD1AED580A83FD300408D14200070
:10123000A1C8DA1281CFD9F1DB402EA4A6AFFFD02E
:10124000FFFEA529302B11241FBECFEFD8E0DEBF53
:10125000CDBF13E0A0E0B1E0E4EBFFE502C00590F4
:101260000D92AC3AB107D9F727E0ACEAB3E001C080
:101270001D92A131B207E1F719E0C2E2D9E004C042
:101280002197FE010E949F2CC132D107C9F70E940D
:1012900005220C94CD2F0C940000962FEFECF5E076
:1012A0006681778180A391A32FEE35E042E383ED41
:1012B00095E00C948512CF92DF92EF92FF920F93FC
:1012C0001F93CF93DF93C82FD62F0EE1C02EC61ADF
:1012D0008BE7D82EDC0E6C2D8D2D0E944D090C1B3A
:1012E0009BE7E92EED0E602F8E2D0E944D091BE726
:1012F000F12EFC1A6C2D8F2D0E944D091D1B602FA5
:10130000812F0E944D09D25E6D2F8D2D0E944D09B7
:10131000C25E6C2F8E2D0E944D096D2F8F2D0E9465
:101320004D096C2F812FDF91CF911F910F91FF906D
:10133000EF90DF90CF900C944D09CF93DF93809185
:101340000C06811107C081E080930C0683ED95E0C7
:101350000E948912C091D505D091D605E09104066E
:10136000F091050682E00995E0910406F0910506EA
:1013700081E0099520E030E044E1BE0183ED95E095
:101380000E94851226E036E047E1BE0183ED95E03C
:101390000E948512E0910406F091050680E0DF913D
:1013A000CF910994CF92DF92FF920F931F93CF9327
:1013B000DF9300D0CDB7DEB7F82E062FE091E80519
:1013C000F091E90583ED95E049835A830995080F6B
:1013D0004981C42E5A81D52E10E0F60121916F016A
:1013E000222349F0402F6F2D83ED95E00E94F312E8
:1013F000F80E180FF2CF812F0F900F90DF91CF9141
:101400001F910F91FF90DF90CF9008950F931F933E
:10141000CF93E091E105F091E205309719F083ED6B
:1014200095E009950091D5051091D605E091040647
:10143000F091050682E00995E0910406F091050619
:1014400081E0099520E030E045E1B80183ED95E0C9
:101450000E948512C82F882341F026E036E047E13C
:10146000B80183ED95E00E948512E0910406F091A9
:10147000050680E009958C2FCF911F910F9108955B
:10148000BF92CF92DF92EF92FF920F931F93CF9371
:10149000DF931F92CDB7DEB7B82E162F042F481753
:1014A00018F4C82EC41A02C0C42EC81A211758F442
:1014B000F12EF21ACF14C0F4812F102F082F8B2D8C
:1014C000B22E282F0AC0F22EF11ACF1470F5802FF9
:1014D000022F282F8B2DB12E182FDD24D394EF2C23
:1014E000E694121768F02DC00B1568F5EC2CE69405
:1014F0008C2DCF2CF82E802F0B2DB82E122FD12C07
:1015000091E00B1528F1D11003C0612F8B2D02C083
:101510006B2D812F99830E944D099981EC18E7FE6C
:1015200002C0190FEF0CB394ECCF0B1560F4EC2C48
:10153000E6948C2DCF2CF82E802F0B2DB82E122F49
:10154000D12C9FEFDECF8F2DFC2CC82ED12CC7CFF6
:101550000F90DF91CF911F910F91FF90EF90DF904F
:10156000CF90BF900895EF92FF920F931F93CF9368
:10157000DF93EC01E62E08E010E0FF24F39461E035
:101580008F2D8E2109F460E0CE010E94ED11FF0C39
:1015900001501109A1F7F894E981FA8191818881BC
:1015A000809589238183E981FA8192818881809560
:1015B000892382837894DF91CF911F910F91FF90BF
:1015C000EF900895AF92BF92CF92DF92EF92FF9289
:1015D0000F931F93CF93DF931F92CDB7DEB75C01BC
:1015E000D62EE72EFC018585811105C0C5010E941C
:1015F0001C12811106C0F50113861586148680E041
:1016000064C060EFC5010E94B30A01E0F12CC12C57
:1016100011E0C5010E94C911682FC50169830E94AC
:10162000C9116981613019F48130B9F433C04F2D8B
:1016300050E068131BC0F5018385181730F4E40FE0
:10164000F51F8381802349F402C0181731F060E050
:10165000193058F4F501148708C0F501EF0DF11D9C
:101660008381802B838361E009C0C12EF501E40FE3
:10167000F51F9381802F809589238383C5010E9464
:10168000ED111F5F000F11F4F39401E0F7E0FF1577
:1016900008F0BFCF113408F4AECFF501C386C110F6
:1016A00002C081E08587F5018381882309F4A3CFF7
:1016B000D5011396ED2DFE2D9501255F3F4F8D91A0
:1016C0008193A217B307D9F781E00F90DF91CF91F3
:1016D0001F910F91FF90EF90DF90CF90BF90AF9050
:1016E0000895AF92BF92CF92DF92EF92FF920F9345
:1016F0001F93CF93DF938B01BC01809112069091D1
:1017000013060E949E116EEB8091120690911306B3
:101710000E94B30AE801680189E0C80ED11CA090BC
:101720001206B090130688E0E82EF12C01E010E0DC
:10173000C5010E94C9118111102B000F81E0E81A28
:10174000F108B1F71993CC15DD0549F78091120620
:10175000909113060E941C1291E0813009F090E0F4
:10176000892FDF91CF911F910F91FF90EF90DF9024
:10177000CF90BF90AF9008950F931F93CF93DF93B7
:10178000CDB7DEB729970FB6F894DEBF0FBECDBF39
:10179000FC012081203161F18C0180911206909131
:1017A00013060E941C12882309F1BE016F5F7F4F50
:1017B000C8010E94710B8823C9F068E0CE01019630
:1017C0000E9491119985891311C08D818F3361F029
:1017D00020F48F3159F489E00CC08F3519F08F3720
:1017E00039F004C08BE005C08AE003C080E001C08E
:1017F0008CE029960FB6F894DEBF0FBECDBFDF9107
:10180000CF911F910F9108952091D7053091D80560
:101810002817390709F444C09093D8058093D70559
:10182000009709F437C02091EA05FC01211107C097
:101830003596E491E093EB05FC013C960FC0213016
:1018400039F43F96E491E093EB05FC01709606C0F5
:101850003D96E491E093EB05FC013E9684918093E4
:10186000EC058091EB05082E000C990B2091EC05FE
:10187000821B910927FD93952091ED05203441F0BD
:10188000829FC001112426E0969587952A95E1F75D
:101890008093EE0586E49FE09093E9058093E80548
:1018A0000895CF92DF92EF92FF920F931F93CF9301
:1018B000DF9377FF21C06A017B01EC01E881F981A8
:1018C0000190F081E02D6DE209958C0144275527A8
:1018D000BA014C195D096E097F092AE0CE010E9408
:1018E0009E0F800F911FDF91CF911F910F91FF905D
:1018F000EF90DF90CF9008952AE0DF91CF911F9174
:101900000F91FF90EF90DF90CF900C949E0FCF93AC
:10191000DF93EA011092990590939B0580939A05B5
:1019200070939D0560939C050E943B1160939E05FA
:1019300070939F058093A0059093A1051092C90410
:1019400089EC94E090939705809396051092980502
:1019500087EC94E00E949C208823D1F3813049F4E5
:10196000BE0187EC94E00E948D20811104C083E0C9
:1019700003C084E001C082E0DF91CF9108950F930E
:101980001F93CF93DF93C82FD1E0D81B082F019569
:10199000000F682F80E00E945B0910E01C1778F4AC
:1019A000D7FD03C0C1500E5FD00F1F5F812F880F7E
:1019B0008F5FD80F6C2F812F0E945B09EFCFDF91D3
:1019C000CF911F910F910895EF92FF920F931F9364
:1019D000CF93DF93D82F062FC42F142FF82EF40E99
:1019E000EE24EA948F2D811B1830A8F06091D50564
:1019F0007091D6058093EF050093F0051092F205E3
:101A0000E092F1052FEE35E04BE383ED95E00E9487
:101A100085121850E7CF8C2F887FD80F4C2F477036
:101A200019F197E049276091D5057091D605D093BB
:101A3000EF050093F0051092F2054F5F47708FEFAE
:101A400090E001C0880F4A95EAF78093F1052FEEE8
:101A500035E04BE383ED95E0DF91CF911F910F913E
:101A6000FF90EF900C948512DF91CF911F910F9111
:101A7000FF90EF9008950F931F93CF93DF93182F4C
:101A8000042FC62FD62FD20F402F6C2F812F0E94EC
:101A9000E40CCF5FDC13F8CFDF91CF911F910F9152
:101AA0000895FF920F931F93CF93DF93C82FD62FE4
:101AB000142FF22E022F242F462F682F83ED95E04E
:101AC0000E94451F882359F02F2D412F6D2F8C2FF9
:101AD000DF91CF911F910F91FF900C943B0DDF91FF
:101AE000CF911F910F91FF900895DF92EF92FF9297
:101AF0000F931F93CF93DF93082FD62FC42F142F4C
:101B0000F62EF40EEE24E394DD24DA948F2D811B5F
:101B10001830A8F06091D5057091D6050093EF05B7
:101B20008093F005E092F205D092F1052FEE35E0BA
:101B30004BE383ED95E00E9485121850E7CF8C2F80
:101B4000887FD80F4C2F477029F197E04927609183
:101B5000D5057091D6050093EF05D093F00581E08F
:101B60008093F2054F5F47708FEF90E001C0880FC0
:101B70004A95EAF78093F1052FEE35E04BE383EDCC
:101B800095E0DF91CF911F910F91FF90EF90DF9043
:101B90000C948512DF91CF911F910F91FF90EF90E0
:101BA000DF900895CF92DF92EF92FF920F931F93F1
:101BB000CF93DF936C017A018B01C0E0D0E0CE15AA
:101BC000DF0589F0D8016D918D01D601ED91FC9171
:101BD0000190F081E02DC6010995892B11F47E0159
:101BE00002C02196ECCFC701DF91CF911F910F91D9
:101BF000FF90EF90DF90CF900895FC01538D448DBE
:101C0000252F30E0842F90E0821B930B541710F0A7
:101C1000CF96089501970895FC01918D828D9817B4
:101C200061F0828DDF01A80FB11D5D968C91928DC0
:101C30009F5F9F73928F90E008958FEF9FEF0895BD
:101C4000FC01918D828D981731F0828DE80FF11D86
:101C5000858D90E008958FEF9FEF0895FC01918DA1
:101C6000228D892F90E0805C9F4F821B91098F739A
:101C70009927089588E294E00E942E0E21E0892B96
:101C800009F420E0822F0895FC01848DDF01A80F64
:101C9000B11DA35ABF4F2C91848D90E001968F7394
:101CA0009927848FA689B7892C93A089B1898C91B3
:101CB00080648C93938D848D981306C00288F38979
:101CC000E02D80818F7D80830895EF92FF920F93A6
:101CD0001F93CF93DF93EC0181E0888F9B8D8C8DD8
:101CE000981305C0E889F989808185FD24C0F62E06
:101CF0000B8D10E00F5F1F4F0F731127E02E8C8D9F
:101D0000E8120CC00FB607FCFACFE889F989808188
:101D100085FFF5CFCE010E94440EF1CF8B8DFE01E1
:101D2000E80FF11DE35AFF4FF0820B8FEA89FB8920
:101D30008081806207C0EE89FF896083E889F98924
:101D400080818064808381E090E0DF91CF911F915A
:101D50000F91FF90EF900895CF93DF93EC01888D62
:101D60008823C9F0EA89FB89808185FD05C0A8899F
:101D7000B9898C9186FD0FC00FB607FCF5CF808125
:101D800085FFF2CFA889B9898C9185FFEDCFCE016F
:101D90000E94440EE7CFDF91CF91089580E090E05C
:101DA000892B29F00E943A0E81110C9400000895AD
:101DB000833081F028F4813099F08230A1F00895C9
:101DC0008730A9F08830B9F08430D1F48091800058
:101DD0008F7D03C0809180008F778093800008956D
:101DE00084B58F7702C084B58F7D84BD08958091BE
:101DF000B0008F7703C08091B0008F7D8093B000DA
:101E000008953FB7F8948091BF069091C006A091C5
:101E1000C106B091C20626B5A89B05C02F3F19F098
:101E20000196A11DB11D3FBFBA2FA92F982F88275A
:101E3000820F911DA11DB11DBC01CD0142E0660FB5
:101E4000771F881F991F4A95D1F70895089508951F
:101E5000DC011696ED91FC91179712968C91481B18
:101E6000477081E090E001C0880F4A95EAF7E60FDD
:101E7000F11D3081222311F0832B02C08095832332
:101E800080830895FC01808D8F5F089580E0089520
:101E90000B96FC01849108950A96FC0184910895A3
:101EA000FC01849108950E94500F882321F0823014
:101EB00011F083E0089586E008950E94B92C68E04F
:101EC0000C946C1E66E00C946C1EEF92FF920F93C4
:101ED0001F93CF93DF938C017B01C0E0D0E0F7012B
:101EE000EC0FFD1F6491662361F0D801ED91FC9128
:101EF0000190F081E02DC8010995892B11F0219600
:101F0000EECFCE01DF91CF911F910F91FF90EF9017
:101F100008956115710579F0FB0101900020E9F742
:101F20003197AF01461B570BDC01ED91FC9102800C
:101F3000F381E02D099480E090E008954F925F9244
:101F40006F927F92EF92FF920F931F93CF93DF9345
:101F5000CDB7DEB7A1970FB6F894DEBF0FBECDBFE9
:101F60007C01FA01CB0119A2223008F42AE08E018B
:101F70000F5D1F4F422E512C612C712CBF01A3010C
:101F800092010E945E2CF901CA01015011096A30C8
:101F900014F4605D01C0695CD8016C93232B242B81
:101FA000252B61F7B801C7010E94890FA1960FB6D2
:101FB000F894DEBF0FBECDBFDF91CF911F910F917F
:101FC000FF90EF907F906F905F904F9008950F93E8
:101FD0001F93CF93DF93EC010E94890F8C0162E87D
:101FE00072E0CE010E94890F800F911FDF91CF9187
:101FF0001F910F9108950C94890F1F920F920FB6A5
:102000000F9211242F933F934F935F936F937F937E
:102010008F939F93AF93BF93EF93FF9388E294E0E6
:102020000E94440EFF91EF91BF91AF919F918F91CC
:102030007F916F915F914F913F912F910F900FBEC4
:102040000F901F9018951F920F920FB60F921124A8
:102050002F938F939F93EF93FF93E0913804F09128
:1020600039048081E0913E04F0913F0482FD12C06A
:102070009081809141048F5F8F7320914204821779
:1020800051F0E0914104F0E0E85DFB4F958F8093C3
:10209000410401C08081FF91EF919F918F912F9119
:1020A0000F900FBE0F901F901895CF93DF93282F9E
:1020B00030E0F901E25EFE4E8491F901E050F04F0C
:1020C000D491F901E451F04FC491CC2391F08111E6
:1020D0000E94D80EEC2FF0E0EE0FFF1FEE51F04FF4
:1020E000A591B491EC91ED2381E090E021F480E0A2
:1020F00002C080E090E0DF91CF9108951F93CF93CD
:10210000DF93282F30E0F901E25EFE4E8491F90161
:10211000E050F04FD491F901E451F04FC491CC2339
:10212000C9F0162F81110E94D80EEC2FF0E0EE0FAF
:10213000FF1FE852F04FA591B4918FB7F894111199
:1021400005C09C91ED2FE095E92302C0EC91ED2BA9
:10215000EC938FBFDF91CF911F910895CF93DF93C1
:1021600090E0FC01E050F04F2491FC01E451F04F6D
:102170008491882361F190E0880F991FFC01EC5E47
:10218000FE4EC591D491FC01E852F04FA591B49157
:10219000611109C09FB7F8948881209582238883B4
:1021A000EC912E230BC0623061F49FB7F894388114
:1021B000822F809583238883EC912E2B2C939FBFB5
:1021C00006C08FB7F894E8812E2B28838FBFDF914C
:1021D000CF9108958E3008F08E5087708064809380
:1021E0007C0080917A00806480937A0080917A00EC
:1021F00086FDFCCF809178002091790090E0922BB1
:1022000008958F929F92AF92BF92CF92DF92EF92FA
:10221000FF926B017C010E94010F4B015C01C11414
:10222000D104E104F104F1F00E94010FDC01CB01C3
:1022300088199909AA09BB09883E9340A105B105EF
:1022400070F321E0C21AD108E108F10888EE880E87
:1022500083E0981EA11CB11CC114D104E104F10457
:1022600019F7DDCFFF90EF90DF90CF90BF90AF9048
:102270009F908F9008952FB7F8946091BB0670914E
:10228000BC068091BD069091BE062FBF08951F9297
:102290000F920FB60F9211242F933F938F939F931A
:1022A000AF93BF938091BB069091BC06A091BD06F1
:1022B000B091BE063091BA0623E0230F2D3720F4EB
:1022C0000196A11DB11D05C026E8230F0296A11D90
:1022D000B11D2093BA068093BB069093BC06A093D1
:1022E000BD06B093BE068091BF069091C006A09136
:1022F000C106B091C2060196A11DB11D8093BF0613
:102300009093C006A093C106B093C206BF91AF914F
:102310009F918F913F912F910F900FBE0F901F9023
:102320001895DC01E0E0615038F08D91E827F0E08D
:10233000EC5EFF4EE491F7CF8E2F0895CF92DF929F
:10234000EF92FF920F931F93CF93DF931F92CDB71E
:10235000DEB78C01F62E65E579830E94B30ACF2C97
:102360007981D72E760188E0E80EF11CF6016191A3
:102370006F01C8010E94B30ACE14DF04B9F70F90B1
:10238000DF91CF911F910F91FF90EF90DF90CF9051
:102390000895FC0190810180F281E02DF894818103
:1023A000892B81832281892F809528232283A7E08E
:1023B000B0E01197F1F7218182238183A3E2B0E09D
:1023C0001197F1F780817894EFECF0E03197F1F715
:1023D000982381E009F480E00895FC019081018058
:1023E000F281E02D892F809560FF12C0F894228140
:1023F000822382838181892B8183A3E2B0E01197BC
:10240000F1F78281982B9283789487ED90E011C048
:10241000F8942281822382838181892B8183AFEF8B
:10242000B0E01197F1F78281982B928378948FE036
:1024300090E00197F1F70895FC0190810180F2810D
:10244000E02DF8948181292F20958223818378942F
:102450008DE743E050E0815021F1DA011197F1F767
:1024600030813923C1F3F894828182238283818170
:10247000892B81837894ABE7B7E01197F1F7F89453
:10248000818128232183A3E1B1E01197F1F78081B5
:10249000982381E009F080E07894E3E6F6E0319754
:1024A000F1F70895FB014181DC0112962C911297FE
:1024B000421768F013962C911397241740F060810F
:1024C00015962C91621718F424810C94280F089506
:1024D000FC0180819281980F92832181921760F490
:1024E00094819F5F94839381890F821710F08FEFFF
:1024F000820F838381E0089580E00895FC011282B9
:1025000080818150838314820895DB01ED91FC91D9
:102510000994EF92FF920F931F93CF93DF931F9233
:10252000CDB7DEB78C01DC011296ED90FC901397CD
:10253000D196ED91FC91D29782E0099520E030E0B0
:102540004AE0B701C8010E948512F82ED801D19641
:10255000ED91FC91D29783E00995D801D196ED9148
:10256000FC91D29780E00995FF20A1F1F8016281EA
:1025700073819E012F5F3F4F46E4C8010E94851280
:102580008981D8018C9312966D917C9113979E014D
:102590002F5F3F4F47E4C8010E9485128981F801EF
:1025A00081836281738120E030E048E4C8010E94A9
:1025B0008512D8011B968C931B9798012D5C3F4F79
:1025C00012966D917C91139747E1C8010E94851284
:1025D00081E001C080E00F90DF91CF911F910F91BA
:1025E000FF90EF9008952F923F925F926F927F92AB
:1025F0008F929F92AF92BF92CF92DF92EF92FF9213
:102600000F931F93CF93DF931F92CDB7DEB71C01BB
:10261000C62E142FD22EDC011496ED90FC90159747
:10262000C7010E94500F082FF101848195810E94FB
:10263000530F982E013019F48FE0A82E02C0AA245F
:10264000AA94D10114968D919C9115970E944C0FDC
:10265000082FF101848195810E94480FB82ED10185
:1026600014968D919C9115970E945F0FB0E6BD1551
:1026700030F4009721F0E80EF91E01E611C0F101D7
:10268000848195810E94620FF0E4FD1530F400977B
:1026900021F0E80EF91E01E403C021E1E20EF11C75
:1026A000BD1480F4D10150961C92509753961C9201
:1026B000539754961C92549751961C925197529648
:1026C0001C92C7C0B01670F3892D90E0F7012491D9
:1026D0002F3F21F4FFEFEF1AFF0A5AC00D114FC030
:1026E000D10114968D919C9115970E94500F9701DE
:1026F0002F5F3F4FF701882311F08230E1F484917E
:10270000D10153968C935397F901249154962C93AD
:102710005497F7013396E4915096EC935097F70154
:102720003496E4915196EC935197F7013596E491E4
:102730005296EC9320C08491982F9F709250D101B3
:1027400052969C93529782958F7051968C93519785
:10275000F9012491822F8F7054968C93549722956F
:102760002F7053962C935397F7013296E491E2958C
:10277000EF705096EC93E114F10479F46AC0F7011C
:102780003296E491EA219C012E0F311DE20EF31ED8
:102790000B1509F487CF0F5F99CFF10184819581E3
:1027A0000E94530FB82ED10153969C905397549684
:1027B000DC90549751968C915197C80E52969C91EB
:1027C0009D0D512E591A0D2D292D452D6C2DC10110
:1027D0000E94451F8823D1F1C7018B0D911D5C011B
:1027E00087E0890DF82EF694F694F694D50C410105
:1027F0009CE1890E911C6F2C712C5D1439F15C2DBC
:102800008501802F8A198F15E8F4F8018491D10190
:1028100012966D917C9113975C965C935C975D9694
:102820005C925D975F961C925F975E968C93940185
:102830004BE3C10159830E9485120F5F1F4F5981DD
:10284000585FDFCFA60CB71C5394D7CFF101808916
:1028500001C080E00F90DF91CF911F910F91FF9009
:10286000EF90DF90CF90BF90AF909F908F907F9030
:102870006F905F903F902F900895089580E090E0D2
:102880000895CF93DF93EC011C161D06B4F464E6A3
:1028900070E080E090E00E94011161E08AE00E9417
:1028A0007E1064E670E080E090E00E94011160E03C
:1028B0008AE00E947E102197E7CFDF91CF910895A3
:1028C000CF92DF92EF92FF920F931F93CF93DF93FC
:1028D0001F92CDB7DEB76C01DC01DC961C91DC9752
:1028E000DB960C917C01B4E0EB0EF11CDC015996F7
:1028F000ED91FC915A97C70169830995482F410FC3
:102900002981602FC7010E94F312F60123AD082E22
:10291000000C990B820F911D83AF81E090E00F9026
:10292000DF91CF911F910F91FF90EF90DF90CF90AB
:102930000895CF93DF93EC01FC01EE52FF4F10821C
:102940003196718360833296518340830E943B119C
:10295000FE01E952FF4F60837183828393831A8261
:102960003897CE0102969183808332961082CE01F1
:102970000E949C208823D9F3DF91CF9108956F9214
:102980007F928F929F92AF92BF92CF92DF92EF92FF
:10299000FF920F931F93CF93DF93EC016B015A01CA
:1029A0004901F12C8FEF3E019CED690E711CFE1464
:1029B000F1F0FF2031F064EF71E080E090E00E94E0
:1029C0000111B601C3010E94E70FA401B501CE01B8
:1029D0000E949914813039F4B801CE010E948D20F3
:1029E000882311F003C08FEFF394E1CF81E0DF91F2
:1029F000CF911F910F91FF90EF90DF90CF90BF90FC
:102A0000AF909F908F907F906F9008952F923F92FC
:102A10004F925F926F927F928F929F92AF92BF92EE
:102A2000CF92DF92EF92FF920F931F93CF93DF939A
:102A300000D01F92CDB7DEB76C012A013B014C01DB
:102A40008DEC880E911C81E0F4018083C6018452D4
:102A50009F4F9B838A830E94671F16019BEC290E60
:102A6000311C81E090E0F1019183808373E0A72E17
:102A7000B12C65E0E62E0FE213E024E630E044EFEF
:102A800051E065E872E0C6010E94BF148F3F09F46F
:102A9000FFC11982F1E0AF1AB10859F755E0E52EF0
:102AA0000FE213E024E630E044EF51E065E872E025
:102AB000C6010E94BF14FF24F394813009F0F12C69
:102AC0008981882309F47BC068E872E088E294E099
:102AD0000E94E70FC12CD12CF6013197E730F105A8
:102AE00020F4EC5CFF4F0C949F2C40EB54E060E032
:102AF00070E08A819B810E94671F63EF71E14CC087
:102B000040E659E060E070E08A819B810E94671F87
:102B100066EE71E141C040EC52E160E070E08A8114
:102B20009B810E94671F69ED71E136C040E855E264
:102B300060E070E08A819B810E94671F6CEC71E10C
:102B40002BC040E05BE460E070E08A819B810E94E2
:102B5000671F6FEB71E120C040E056E960E070E074
:102B60008A819B810E94671F62EB71E115C040E082
:102B700051EE60E070E08A819B810E94671F65EAE8
:102B800071E10AC040E052EC61E070E08A819B8113
:102B90000E94671F68E971E18A819B810E94650F2D
:102BA0009FEFC91AD90AE8E0CE16D10409F094CFF4
:102BB0006FEA72E088E294E00E94E70F66C145E0A8
:102BC000E42E0FE213E024E630E044EF51E065E844
:102BD00072E0C6010E94BF148111A4C0F110A2C00E
:102BE000A12CB12CF5013197E730F10520F4E55C1B
:102BF000FF4F0C949F2C40EB54E060E070E01DC050
:102C000040E659E060E070E018C040EC52E160E05E
:102C100070E013C040E855E260E070E00EC040E0B4
:102C20005BE460E070E009C040E056E960E070E01D
:102C300004C040E051EE60E070E08A819B810E9418
:102C4000671F1CC040E052EC61E070E08A819B810C
:102C50000E94671F6BE871E18A819B810E94650F6A
:102C600040E855E260E070E08A819B810E94671F26
:102C700064EF71E080E090E00E94011164E670E092
:102C800080E090E00E94011135E0E32E0FE213E0B6
:102C900024E630E044EF51E065E872E0C6010E94AE
:102CA000BF14813081F563E871E18A819B810E94C4
:102CB000650FB301A2018A819B810E94510C64EFD0
:102CC00072E08A819B810E94FB0F64EF71E080E0DB
:102CD00090E00E940111B301A2018A819B810E94B0
:102CE000671F64E670E080E090E00E94011124E636
:102CF00030E044EF51E065E872E0C6010E94BF1485
:102D0000FF24F39408C0FFEFAF1ABF0A88E0A816AB
:102D1000B10409F067CFF601E153FF4FC6010296F7
:102D200091838083F4011082FF2009F48EC042E376
:102D300050E062E370E0C6010E949914FF24F3940E
:102D4000F401F08285E0E82E0FE213E022E330E0A8
:102D500048EE53E066EF72E0C6010E94BF1422E322
:102D600030E044EF51E06BEF72E0C6010E94BF1407
:102D7000F401F082980144EF51E061E771E1C6018E
:102D80000E948A21980144EF51E067E671E1C60193
:102D90000E948A21980144EF51E06DE571E1C6017E
:102DA0000E948A21F401F08292E0E92E22E330E0D1
:102DB00048EE53E060E073E0C6010E94BF142AE0D1
:102DC000E22E0CE013E028EE33E048EE53E063E13E
:102DD00073E0C6010E94BF14F40110822FE233E0B9
:102DE00048EE53E060E571E1C6010E948A212AE2C3
:102DF00033E044EF51E065E471E1C6010E948A21AD
:102E0000F401F08262E373E08A819B810E94FB0FF0
:102E100040E050E0BA018A819B810E94510C64EF2E
:102E200072E08A819B810E94FB0F64EF71E080E079
:102E300090E00E940111F401108282E090E0F10123
:102E40009183808381E090E03AC040E052EC61E001
:102E500070E08A819B810E94671F68EE73E080E0CA
:102E600090E00E9401116BE771E18A819B810E94D1
:102E7000650FB301A2018A819B810E94510C64EF0E
:102E800072E08A819B810E94FB0F80E090E017C076
:102E900061E088E00E947E1060EB74E080E090E0EA
:102EA0000E94011160E088E00E947E1060E177E2FC
:102EB00080E090E00E940111F1E0F983EBCD0F90EA
:102EC0000F900F90DF91CF911F910F91FF90EF9096
:102ED000DF90CF90BF90AF909F908F907F906F903A
:102EE0005F904F903F902F9008950C94722B0C940C
:102EF0006A2B1F920F920FB60F9211242F933F93BC
:102F00004F935F936F937F938F939F93AF93BF93F1
:102F1000EF93FF938091AE039091AF03009769F018
:102F200001979093AF038093AE03892B31F4E09126
:102F3000B003F0E0E651FC4F10822091EA03222317
:102F400071F18091C8069091C906009759F460E02C
:102F50008BE00E947E1060E08AE00E947E1081E09B
:102F600090E006C08A30910544F4213031F4019696
:102F70009093C9068093C80612C0223041F4809114
:102F8000E903882321F061E08AE00E947E1061E07D
:102F90008BE00E947E101092C9061092C806FF9125
:102FA000EF91BF91AF919F918F917F916F915F91C1
:102FB0004F913F912F910F900FBE0F901F9018953A
:102FC00023EC36E01092C3068F3F9105B1F00097D5
:102FD00089F09F938F938CEC91E09F938F933F9315
:102FE0002F930E94F52C0F900F900F900F900F9041
:102FF0000F9009C066E373E002C06AE373E083ECFC
:1030000096E00E94BE2C83EC96E0089580E00E943A
:10301000EA109C01C29774F0283A82E0380764F005
:10302000243393E0390754F081E0203733403CF0FB
:1030300080E0089584E0089583E0089582E0089593
:103040000F931F93CF93DF930BEE13E0C0E0D0E01C
:10305000CE010E947717F80181938F012196C63027
:10306000D105B1F7DF91CF911F910F9108953F9254
:103070004F925F926F927F928F929F92AF92BF9288
:10308000CF92DF92EF92FF920F931F93CF93DF9334
:10309000CDB7DEB7CA5BD1090FB6F894DEBF0FBE5D
:1030A000CDBF382E6DE373E088E294E00E94FB0F01
:1030B0006BEC73E088E294E00E94E70F8091CB0311
:1030C000813271F48091CC03813251F48091CD032F
:1030D000803331F482E08093EA038FE38093CB0363
:1030E0009091CB03913279F48091CC03813259F4E1
:1030F0008091CD03813311F482E003C0823319F44F
:1031000083E08093CA031092C7061092AC03198221
:1031100081E08093B1039B32C1F49091CC039B3248
:10312000A1F49091CD039B3281F48093EA038093C4
:10313000F20388E28093E90361E089E090E00E9475
:10314000751781E090E00E9441148091CB038D328D
:10315000C9F48091CC038D32A9F48091CD038D32D6
:1031600089F41092EA031092F20360E089E090E0A3
:103170000E94751760E08BE00E947E1082E090E074
:103180000E944114E091C706F0E0E553FC4F8081B6
:103190008F3309F0F4C18091EA03823049F460E48E
:1031A00073E0CE0101960E94BE2C1092F20308C07B
:1031B000813031F468E473E0CE0101960E94BE2CA8
:1031C0008091CA03811106C06DE473E0CE010196BF
:1031D0000E94BE2C69E573E0CE0101960E94BE2CD0
:1031E00062E673E0CE0101960E94BE2C8091F3034B
:1031F0001F928F938FE792E09F938F938E010B54D2
:103200001F4F1F930F930E94F52CB801CE0101961A
:103210000E94BE2C67E673E0CE0101960E94BE2C90
:1032200037E0632E31E0732E4BEE442E43E0542EF4
:1032300051E0A52E51E0B52E0F900F900F900F90FA
:103240000F900F90E12CF12C6FE7862E62E0962E06
:1032500067012FEFC21AD20ADF92CF929F928F920C
:103260001F930F930E94F52CB801CE0101960E9486
:10327000BE2C6BE673E0CE0101960E94BE2CF301DA
:1032800081913F0190E02091AD0330E00F900F90CD
:103290000F900F900F900F90821793071CF06DE620
:1032A00073E013C0880F991F880F991FFC01EE541B
:1032B000FC4F60817181828193810E94852B6138EE
:1032C000FFEF7F0739F460E773E0CE0101960E94BB
:1032D000BE2C13C07F936F939F928F921F930F9377
:1032E0000E94F52CB801CE0101960E94BE2C0F90D1
:1032F0000F900F900F900F900F9064E773E0CE0146
:1033000001960E94BE2C8091B00390E001978E152B
:103310009F0549F48091AE039091AF03892B19F07A
:1033200066E872E028C0F601E25AFE4FF0808F2D69
:103330000E945510019779F4F5018081811103C035
:103340006AE373E004C0813031F466E373E0CE01D8
:1033500001960E94BE2C8F2D0E945510892B79F466
:10336000F5018081811103C066E373E004C0813000
:1033700031F46AE373E0CE0101960E94BE2C66E749
:1033800073E0CE0101960E94BE2CF20181912F01C3
:1033900090E00E94E017BC01CE0101960E94BE2C75
:1033A0006EE373E0CE0101960E94BE2CFFEFAF1AD0
:1033B000BF0A760126E0C216D10409F049CFBE014A
:1033C0006F5F7F4F88E294E00E94FB0F42E034126F
:1033D000B3C0809194058111AFC081E080939405C2
:1033E000CF55DF4F1882C15AD0406CE371E183EAB8
:1033F00095E00E94650F41E050E060E070E083EAF4
:1034000095E00E94510C64EF72E083EA95E00E941F
:10341000FB0F49E753E062E370E088E893E10E9424
:10342000870C823021F08430F1F48EEF1DC06FE7FD
:1034300073E089EC94E00E94DB2C0097A1F08C01F2
:103440000E5F1F4F62E270E0C8010E94C92C009716
:1034500011F0FC011082B801CE018F559F4F0E94E0
:10346000D42C81E001C080E010929405813009F0F5
:1034700063C08AE1C754DF4F8883C95BD040C6541C
:10348000DF4F1882CA5BD040E091C504F091C604BA
:1034900036978081918162E371E18F559A4F0E9446
:1034A000650FE091C504F091C60436978081918143
:1034B000BE016F557F4F8F559A4F0E94FB0FE091D1
:1034C000C504F091C60436978081918160E873E06D
:1034D0008F559A4F0E94E70F4BE252E064EF71E084
:1034E00088EE93E00E94870C823021F5E091C504BC
:1034F000F091C604369780819181BE016F5F7F4F46
:103500008F559A4F0E94FB0FE091C504F091C604BD
:10351000369780819181BE0167547F4F8F559A4FB6
:103520000E94E70F42E853E068EE73E080ED97E019
:103530000E94870C1092940568E873E088E294E09A
:103540000E94FB0F4091F10350E04F5F5F4F052E4B
:10355000000C660B770B88E294E00E94510C6AE93C
:1035600073E088E294E00E94FB0F4091EA0350E090
:1035700060E070E02AE088E294E00E949E0FEBECAD
:10358000F3E001900020E9F73197EB5CF3403397CB
:1035900008F49AC08091CB038332C9F58091CD03A2
:1035A0008D36A9F58091AE039091AF03892B79F503
:1035B0001091CC0310531093B0038091CE03CF55DC
:1035C000DF4F8883C15AD0408091CF03CE55DF4F63
:1035D0008883C25AD040CE018F559F4F0E94442B02
:1035E00021ED31E0AC01429FC001439F900D529FFD
:1035F000900D11249093AF038093AE03E12FF0E080
:10360000E651FC4F8FEF80831093AC035DC00BEC51
:1036100013E0E091C706D8010D900020E9F7F0E033
:10362000CD018E5C9340E817F90708F04DC0E553D3
:10363000FC4F8081833209F041C082818A33F1F5E9
:10364000818180538093AC032381CF55DF4F288342
:10365000C15AD0409481CE55DF4F9883C25AD04092
:103660002D3239F49D3229F490E060E001970E94F8
:103670007517CF55DF4F8881C15AD0408B3271F416
:10368000CE55DF4F8881C25AD0408B3239F48091B9
:10369000AC0390E06FEF01970E947517CE018F5534
:1036A0009F4F0E94442B1816190644F42091AC0336
:1036B00030E0682FC90101970E9475178091C706F5
:1036C0008B5F8093C706A5CF1092C7068091AE038B
:1036D0009091AF03892B11F40E9420188091AC03C4
:1036E000882319F081508093F103C654DF4F0FB641
:1036F000F894DEBF0FBECDBFDF91CF911F910F9128
:10370000FF90EF90DF90CF90BF90AF909F908F9001
:103710007F906F905F904F903F9008952EE93FE02B
:10372000009729F0F9013197F1F70197F9CF089542
:1037300010920F0710920E070895809310071092B1
:10374000B90084FF02C08CE001C088E48093B80017
:103750000C94981BDB011496ED91FC91159720E0D9
:1037600030E065E00994CF92DF92EF92FF920F93E1
:103770001F93CF93DF938C017B016A0180E0F601F8
:10378000C49181110BC0CF3F09F457C04C2FB70132
:10379000C8010E94AA1B81114EC054C0CF3F11F432
:1037A0004FEFF5CFCE3F09F44FC0C03F08F043C004
:1037B000C03E58F04C2F4F70D7011496ED91FC91FC
:1037C000159720E030E062E00CC0C03D68F04C2F5F
:1037D0004F70D7011496ED91FC91159720E030E0E1
:1037E00063E0C801099527C0C03CF8F0D7011496E2
:1037F000ED91FC91159720E030E040E064E0C801D5
:103800000995C295C07FCE5FD0E0CE010E948E1B8D
:10381000D7011496ED91FC91159720E030E041E03E
:1038200064E0C8010995CE0104C0C7FD04C08C2F17
:1038300090E00E948E1B80E001C081E0BFEFCB1AB8
:10384000DB0A9DCF80E001C081E0DF91CF911F9125
:103850000F91FF90EF90DF90CF90089520910C078B
:1038600030910D072817390771F490910B0780915B
:103870000A07981741F0E0910B07F0E0E653F94F83
:10388000808190E008958FEF9FEF089508951F9332
:10389000CF93DF93DC015C962D913C915D972115D0
:1038A000310539F481E090E013969C938E93129742
:1038B0003DC05196ED91FC91529750969C91509736
:1038C000892F80951FB75E964C915E9741FB7727B5
:1038D00070F941FD6095F8944081772311F0492BF0
:1038E00001C048234083E9012197F1F748E0508166
:1038F00060FF02C0592B01C058235083E901219772
:10390000F1F76695415099F7772321F0908189234B
:10391000808303C08081982B90831FBF5C968D911C
:103920009C915D970197F1F721E030E0C901DF91AB
:10393000CF911F91089520910C0730910D07281702
:10394000390771F480910A0720910B0790E0805CA1
:103950009F4F821B910960E470E00E944A2C0895F9
:1039600080E090E0089520910C0730910D07281712
:103970003907B9F490910B0780910A07981789F0DD
:10398000E0910B07F0E0E653F94F808120910B079F
:1039900030E02F5F3F4F2F73332720930B0790E0CA
:1039A00008958FEF9FEF0895E0910C07F0910D07B8
:1039B000E817F90769F4A389B4899C9185898095F2
:1039C00089238C9310920D0710920C0781E00895C3
:1039D00080E00895DC01ED91FC91369720813181E2
:1039E000820F931F84529F4F0E94B31C0895CF9261
:1039F000DF92FF920F931F93CF93DF936B01EA0146
:103A000000E010E00C171D07CCF485EC94E00E9458
:103A1000EA1CF82E18167CF4E0912804F091290491
:103A20000190F081E02D682F88E294E00995F6017D
:103A3000E00FF11FF0820F5F1F4FE4CFCE01D7FFE1
:103A400002C080E090E0DF91CF911F910F91FF9035
:103A5000DF90CF9008958F929F92AF92BF92CF92B6
:103A6000DF92FF920F931F93CF93DF9300D0CDB7D8
:103A7000DEB76C018B01F42E490120E1421709F4F5
:103A800056C02417A0F03AE043135BC0DB01149644
:103A9000ED91FC91159720E030E042E061E009955E
:103AA0004CE152E1B801C6010E94B31B4AC081E15A
:103AB000481709F43FC0A5E14A1343C0FB01A280A7
:103AC000B38044E152E1C6010E94B31BD5011496B4
:103AD0004C91406BB801C6010E94AA1BD8011496F4
:103AE000ED91FC91159720E030E041E062E0C601E5
:103AF0000995F50126813781D8011496ED91FC9145
:103B00001597D50115964C9166E0C601099581116E
:103B100002C080E0D3C0D8011496ED91FC911597B6
:103B200020E030E040E063E0C60109950AC04BE0C8
:103B300052E102C040E052E1B801C6010E94B31B4D
:103B4000BCC0F80102811381F2E3FF1609F479C0C9
:103B5000FF15B8F025E1F21609F480C037E1F3163D
:103B600009F492C084E1F812A8C0D8011696ED912C
:103B7000FC91179715968C919F01280F311DC90153
:103B800065C0A6E4FA1609F48FC0B7E4FB1609F481
:103B90008FC0EBE3FE1291C0D40111968C91119766
:103BA00013969C91913029F0933031F4482F88502E
:103BB00004C048E0480F01C0482F21E0F8013381DC
:103BC000381708F420E031E0D80112965C914517CF
:103BD00008F430E051E0481708F050E0822F852BC0
:103BE000382319F4252309F468C0F401F2809130D8
:103BF00051F030F0923049F0933051F42FEF09C07A
:103C000020E031E007C021E004C020E03FEF02C027
:103C100020E030E0F7FE08C0B401C8012A833983F0
:103C20000E94521239812A81D4018C91830F8C9386
:103C300011968C911197820F11968C93FF0C51F76E
:103C40003CC0B401C8010E94521237C01192E8175B
:103C5000F907E1F7C8010E947E122FC0C8010E9437
:103C60006812882309F455CFD8011696ED91FC917E
:103C7000179715968C919F01280F311DC90111923C
:103C8000E817F907E1F719C0D4011C92F801828105
:103C900011968C9311978581815012968C9312976F
:103CA000838113968C9309C0D80115968C9103C01B
:103CB000D80111968C91F401808381E00F900F90D0
:103CC000DF91CF911F910F91FF90DF90CF90BF9028
:103CD000AF909F908F900895FC01E60FF11D8491A5
:103CE00090E0982F88273196E4918E0F911D0895CA
:103CF00090910F07911104C080930F0760930E07F6
:103D000008951F93CF93DF9300D0CDB7DEB720ED9A
:103D100037E03A8329839091BC00982399F4298154
:103D20003A81232B51F480911007182F127081FDD6
:103D300009C081E00E94781E06C029813A81215085
:103D40003109E7CF11E0812F0F900F90DF91CF91D4
:103D50001F91089584E98093BC0064E080E10C9495
:103D6000811ECF938093BB0084E88093BC0063E006
:103D700080E80E94811EC82F882389F08091100757
:103D8000C82FC27081FD0AC08091B900887F883237
:103D900029F063E082E00E94781E01C0C1E08C2F10
:103DA000CF910895CF93DF93FC0123A5222379F0CF
:103DB000EC010E94CE21811102C080E009C08EA1D9
:103DC000811180E40E94B11E8823B9F31BA681E013
:103DD000DF91CF9108950F931F93CF93C42F890143
:103DE0006330C1F050F4613081F0623009F048C0B6
:103DF000FC0146A321E023A743C0663011F16730E0
:103E000079F1653009F03CC00EC0FC0186A50E9426
:103E10009D1B36C0FC0116A221E023A7411130C032
:103E20000E94AA1E2DC00E94D21E811104C00E94B1
:103E3000AA1E80E026C08C2F0E94B11E811120C0D6
:103E4000F6CF0E94D21E882391F3CC23C9F0F8014B
:103E500081918F010E94B11E882349F3C150F5CF93
:103E60000E94D21E882319F3CC2351F0F8018491CB
:103E70000E94B11E882329F00F5F1F4FC150F4CF5D
:103E800081E0CF911F910F9108950F93FC01015094
:103E9000040F84A996A9941718F0081728F402C0F3
:103EA000081750F0041740F42150260F83A995A954
:103EB000961720F4281720F480E007C0281720F474
:103EC00081E0261710F0F8CF81E00F910895CF938D
:103ED000DF93EC019A01AB011B8E1A8E198E188E9E
:103EE0001F8A1E8A60E079E08DE390E00E94802CBA
:103EF000F9012430310518F0C901039702C081E0AF
:103F000090E09D8F8C8F6C85663108F069C0C90187
:103F1000969587958431910510F0439702C081E012
:103F200090E09F8B8E8B369718F0C901059702C0E1
:103F300081E090E0998F888FC901880F991F280F21
:103F4000391F36952795369527952D30310518F070
:103F50002C50310902C021E030E03B8F2A8F909134
:103F60006800683050F021E06E3008F420E081E015
:103F700001C0880F2A95EAF701C084E0892B80935D
:103F800068009C85983038F09E3040F0963148F0BB
:103F900020E030E008C02DE630E005C02BE630E040
:103FA00002C02CE630E03C8B2B8B983030F481E063
:103FB00001C0880F9A95EAF70EC0292F30E09E3095
:103FC00018F42850310902C02E50310981E001C097
:103FD000880F2A95EAF78D8B8C8D9D8D0197F1F7CF
:103FE0008A8D9B8D892BE1F080910C0790910D07B4
:103FF0008C179D07A9F0009711F00E94D41C8E8D9C
:104000008E7F8E8F10920A0710920B07D0930D07A8
:10401000C0930C07EB89FC8990818D89892B808363
:10402000DF91CF9108951F920F920FB60F92112436
:104030002F933F934F935F936F937F938F939F93B0
:10404000AF93BF93EF93FF93E0910C07F0910D07AF
:10405000309709F451C0968DA685B785858591FF67
:1040600004C09C91892329F447C09C91892309F0BD
:1040700043C0A389B4899C918589809589238C93B9
:10408000868997890197F1F7608D718DA685B7852F
:10409000558538E020E0CB010197F1F7822F90E0C1
:1040A00095958795282F4C91452309F0206831502C
:1040B00091F7868D81FD209580910A0790E0019609
:1040C0008F73992730910B07381749F0A0910A0791
:1040D000B0E0A653B94F2C9380930A0703C0868D96
:1040E0008160868F828D938D0197F1F7A389B489C2
:1040F0009C918589892B8C93FF91EF91BF91AF9112
:104100009F918F917F916F915F914F913F912F91EF
:104110000F900FBE0F901F901895FC01EF52FF4FAC
:104120002081222331F002960E94DB2C21E0892B92
:1041300009F420E0822F08958F929F92AF92BF9250
:10414000CF92DF92EF92FF920F931F93CF93DF9363
:10415000EC017C0182EDE80EF11CF70180818111F8
:1041600033C0CE0184529F4F0E949B1C8E01095286
:104170001F4F892BF9F40E943B11F8010081118136
:1041800022813381AB01BC01401B510B620B730BCD
:10419000349780819181A0E0B0E0481759076A0701
:1041A0007B0790F032978081FE01E80FF11D1282AB
:1041B00014E00BC00E943B11F8016083718382837D
:1041C000938381E0F701808310E0F70180818130E3
:1041D00009F05CC07E01FCEDEF0EF11CC7010E94EE
:1041E0009B1C082F882349F00E943B11FE01E952D5
:1041F000FF4F60837183828393836E0181EDC80ECC
:10420000D11C5E01EFECAE0EB11C002301F1015098
:10421000F6018081883CB8F4F50180809180C70167
:104220000E94B31CF4018083F50180819181019685
:1042300091838083F60180818F5F8083FE01E80F88
:10424000F11D1282E2CFC7010E94B31CDECF0E9493
:104250003B11FE01E952FF4FC080D180E280F38024
:10426000AB01BC014C195D096E097F093297808151
:104270009181A0E0B0E0481759076A077B0730F04A
:1042800034978081C80FD11D1A8211E0812FDF91F0
:10429000CF911F910F91FF90EF90DF90CF90BF9043
:1042A000AF909F908F900895FF920F931F93CF939D
:1042B000DF93182FC62FF42ED22F022F242F462F34
:1042C000682F83ED95E00E94451F8823E9F04F2D6C
:1042D0006C2F812F0E94E40C4D2F6C2F812F0E9498
:1042E000750D8FEF8F0D4D2F6C2F810F0E94750D67
:1042F000D1506D2F6C0F4F2D812FDF91CF911F91DA
:104300000F91FF900C94E40CDF91CF911F910F91CE
:10431000FF9008959F92AF92BF92CF92DF92EF925B
:10432000FF920F931F93CF93DF93EC017B016A0100
:104330005901912C8C0104521F4FB701C8010E94F2
:10434000650F62E872E0C8010E94890F42E350E005
:10435000B601CE010E949914813039F4B501CE0125
:104360000E948D20882311F00CC08FEF939495E06C
:10437000991641F064EF71E080E090E00E94011135
:10438000DCCF81E0DF91CF911F910F91FF90EF90F3
:10439000DF90CF90BF90AF909F900895CF9384EA25
:1043A0008093BC0061E080E80E94811E882359F060
:1043B0008091B900887F883041F0803131F061E030
:1043C00082E00E94781EC0E01DC088E78093BB0099
:1043D00084E88093BC0062E080E80E94811E88230C
:1043E00091F380911007C82FC27081FD0AC080919F
:1043F000B900887F883129F062E082E00E94781E4F
:1044000001C0C1E08C2FCF910895CF93DF93CDB73A
:10441000DEB7EF970FB6F894DEBF0FBECDBF78942E
:1044200084B5826084BD84B5816084BD85B58260B9
:1044300085BD85B5816085BD80916E00816080936A
:104440006E001092810080918100826080938100D3
:1044500080918100816080938100809180008160E3
:10446000809380008091B10084608093B10080913E
:10447000B00081608093B00080917A008460809366
:104480007A0080917A00826080937A0080917A002D
:10449000816080937A0080917A00806880937A00AE
:1044A0001092C1000FB6F894A895809160008861C1
:1044B00080936000109260000FBE61E08BE00E946C
:1044C000AE1061E08AE00E94AE10F8941092800075
:1044D00010928100109285001092840080ED97E088
:1044E00090938900809388008091810088608093F8
:1044F00081008091810085608093810080916F00B0
:10450000826080936F007894809147019091480178
:104510009A838983FE01339626E1DF011D922A9555
:10452000E9F79A8F898F789681E1DF011D928A954C
:10453000E9F7E0913804F091390482E08083E0915A
:104540003404F09135041082E0913604F091370480
:104550008FEC808310924004E0913C04F0913D0484
:1045600086E08083E0913A04F0913B048081806191
:104570008083E0913A04F0913B04808188608083DD
:10458000E0913A04F0913B04808180688083E0915F
:104590003A04F0913B0480818F7D808382E49FE028
:1045A0009093E9058093E80584E890E00E94040C6C
:1045B000E0911206F0911306138615861486DF012A
:1045C0001B9633961E92AE17BF07E1F710921106A5
:1045D00001E0BE016B5C7F4F809112069091130643
:1045E0000E94E20A182F882309F458C067E0CE0120
:1045F000C5960E9491119CAD8913EBCF80910D0659
:10460000811126C080911206909113060E941C12FF
:10461000BE016B5C7F4F80911206909113060E9441
:104620009E1164EB80911206909113060E94B30ACA
:1046300080911206909113060E94C911182F809143
:104640001206909113060E941C12112309F46AC6E7
:1046500080911206909113060E941C12882339F053
:10466000BE01645D7F4FCE01C5960E94710B109113
:104670000E06CE01C5960E94BC0B811718F48091DE
:104680000E0604C0CE01C5960E94BC0B80930E0698
:10469000809111068F5F809311069BCF86E08093F7
:1046A000AD0395EFE92E93E0F92EE0911206F0911B
:1046B0001306138615861486DF011B9633961E9209
:1046C000AE17BF07E1F700E0B701809112069091A5
:1046D00013060E94E20A811128C6F8E0EF0EF11CD1
:1046E0001F5F163011F70E9406188430E1F00E9417
:1046F0009D0950C141ED51E06AE08AE00E94D20973
:1047000042EE51E060E48DE40E94D2090E94060A64
:104710008111F0CF0E940618182F809327048FEF85
:10472000810F823018F00E949D09E4CF68EE73E09B
:1047300080E090E00E940111123081F400E010E06E
:1047400060E0C8010E9475170F5F1F4F011524E03C
:104750001207B1F7109227041092AC03809127043E
:10476000813049F08EEE682E81E0782E7E013CE2A9
:10477000E30EF11C1DC017E0C12E11E0D12E01E0A7
:10478000E02E01E0F02E0AE010E0C8010E94771749
:10479000D6018D936D01C80106960E947717F70127
:1047A00081937F010F5F1F4F0031110571F7DACF41
:1047B0000E949D098091AC03873010F01092AC03E9
:1047C0000E940618813029F48091AC038F5F80939A
:1047D000AC030E940618823051F4E091AC03F0E083
:1047E000EF5FFE4F81E09081911180E080830E9415
:1047F0000618833059F4E091AC03F0E0E95FFE4F16
:1048000080818F5F8083863008F0108206E010E0A0
:104810006AEE71E0CE0101960E94BE2C0150110992
:10482000B9F7198E1CA6A7E0CA2EA1E0DA2EB1E0D6
:104830004B2EB1E05B2E5201460100E010E0D401A6
:104840008D914D0190E001969F938F937F926F928F
:10485000FF92EF920E94F52CF50181915F010F907C
:104860000F900F900F900F900F90813019F462EF1E
:1048700071E002C068E973E0CE0149960E94BE2C47
:10488000B701CE0149960E94BE2C0530110531F0CA
:1048900068E973E0CE0149960E94BE2C0F5F1F4F5E
:1048A0000630110561F615E18091F403813069F459
:1048B0008091AC03819F802D112441E1480F24E3B6
:1048C00064E38D5F0E94400A06C048E953E06AE055
:1048D00080E00E94D2090E940618882359F044EF14
:1048E00051E069E180E20E94D2094EEF51E060E4BC
:1048F0008EE10AC049E052E069E189E00E94D209F4
:104900004AE152E060E480E00E94D209AE014F5FCC
:104910005F4F64E280E00E94D20926E24DE766E242
:1049200080E00E94400AAE01475E5F4F63E385E08E
:104930000E94D2090E94060A8111B6CF1982198EEF
:104940008091F403813019F41092F40303C081E0E4
:104950008093F4036AEF70E080E090E00E94011120
:104960000E940618843009F023CF0AE010E0D60137
:104970006D916D01C8010E947517F20161912F01BF
:10498000C80106960E9475170F5F1F4F0031110571
:1049900071F7ADCE4EE252E06AE08AE00E94D209A1
:1049A0000E94060A8111F6CF6DE272E088E294E07F
:1049B0000E94FB0F60E472E088E294E00E94FB0F2B
:1049C00068E873E180E090E00E94011168E572E020
:1049D00088E294E00E94FB0F71E0A72E71E0B72EF1
:1049E000E7E0CE2EE1E0DE2EFAE0EF2EF12CC7015B
:1049F0000E947717082FD6018D936D01C701069687
:104A00000E947717882EF50181935F01009323049C
:104A100010E0F801E15AFE4F908061E0892D0E947C
:104A2000AE10811002C060E001C061E0892D0E94DB
:104A30007E10C801880F991F880F991F9C012E5462
:104A40003C4F4901F801E551FC4F608170E080E086
:104A500090E00E94BD2B9B01AC01D4016D917D9132
:104A60008D919C910E94802BF801E35EFB4F87FFA4
:104A700003C081E0808301C01082BFEFEB1AFB0A04
:104A8000E0E1EE16F10409F0B2CF0E94201889E0AF
:104A900090E00E947717823018F48093EA0302C0F6
:104AA0001092EA031092F4031092B10381E0809314
:104AB000CA0361E080E10E947E1060E080E10E9414
:104AC000AE1099E288E10FB6F894A8958093600043
:104AD0000FBE9093600066E672E088E294E00E9468
:104AE000FB0F1092CB037E01F9E1EF0EF11C85E084
:104AF0008093F3038091F203813071F46091D505C6
:104B00007091D60520E030E040E183ED95E00E9411
:104B1000851282E08093F2038091F20381110EC02E
:104B20006091D5057091D60520E030E041E183ED3C
:104B300095E00E94851283E08093F2030E9406189C
:104B400080932704882341F08091F203823021F47E
:104B50001092F2031092270490912704809126046A
:104B6000913079F4811128C08091F1038F5F809397
:104B7000F10393E0909326048630F0F01092F10355
:104B80001BC0923081F4811117C08091F1038150D4
:104B90008093F10393E0909326048F3F69F485E0BE
:104BA0008093F10309C0943039F4811105C081E08C
:104BB000809326041092270480912604813009F006
:104BC0005AC0D0902704D11006C0809125048F5F71
:104BD0008093250402C0109225046BE171E085E604
:104BE00091E00E94D42CE091F103F0E0E95FFE4FE8
:104BF000008110E005511C4FD8018C91811108C033
:104C0000B3E0DB1205C08FEFF80180831092270418
:104C1000D8018C91882339F080912704833019F4CE
:104C20001C92109227040E940618813081F4F8012A
:104C30008081811102C08FE08083D8018C918E31F8
:104C400010F08DE18C93F80180818F5F80830E944A
:104C50000618823081F4D8018C918F3F11F48AE1DB
:104C60008C93F8018081813110F481E18083D80137
:104C70008C9181508C931091EA03123040F0809116
:104C8000E903882321F081508093E90317C060E095
:104C90008AE00E947E10113089F483E00E94EA10BD
:104CA000813991405CF082E08093EA038FE3809346
:104CB000CB0383E00E9437181092CB038091CA0384
:104CC000823061F41092CA038FE38093CB03109279
:104CD000CC0383E00E9437181092CB038091CA0363
:104CE000833069F481E08093CA038FE38093CB0320
:104CF0001092CC0383E00E9437181092CB031092DD
:104D0000240488E294E00E942E0E892B29F164E6A7
:104D100070E080E090E00E94011188E294E00E943F
:104D20002E0E109124041816190674F488E294E0EB
:104D30000E940C0EE12FF0E0E553FC4F8083E1E090
:104D4000E10FE0932404E9CFE12FF0E0E553FC4FBD
:104D5000108281E00E94371802EB13E0F80180E036
:104D600090E0A0EAB1E481939193A193B1938F0174
:104D700068EC70E080E090E00E940111F3E00A3CF2
:104D80001F0761F72BEE33E03FAF2EAF0DE114E0CC
:104D900031E0A32E31E0B32E4FE5C42E41E0D42EF6
:104DA00057E0852E51E0952ED401ED914D01E09311
:104DB0002304B4E0EB9FF0011124EE54FC4F40803B
:104DC000518062807380EEADFFAD2191FFAFEEAFF9
:104DD0002DAF222E312CB1016F5F7F4F072E000CBB
:104DE000880B990B0E94BD2B9B01AC01C301B20142
:104DF0000E94802B87FF04C0D8018C91813019F06C
:104E0000BDADBF3F81F4F5018081811104C061E037
:104E1000D6018C9105C0813041F460E0F6018081BB
:104E20000E947E1002C0D8011C92B101330C880B85
:104E3000990B0E94BD2B9B01AC01C301B2010E94E2
:104E4000452C181624F4F8018081882319F0FDAD53
:104E5000F11110C0D5018C91811104C060E0F60100
:104E6000808105C0813049F461E0D6018C910E94B7
:104E70007E1003C081E0F8018083FFEFCF1ADF0AC4
:104E80000F5F1F4F2FEFA21AB20A3DE0831631E0E9
:104E9000930609F089CF0E949D0920EB922E809104
:104EA0002604882319F0833009F07EC020E04AE010
:104EB00060E080E00E94400A20E045E06AE085E092
:104EC0000E94400A25E045E060E080E00E94400A40
:104ED00020E04AE065E085E00E94400A8091F3030B
:104EE000823030F028E049E06AE089E00E94400A20
:104EF0008091F303833030F026E04CE06AE08CE0F0
:104F00000E94400A8091F303843030F024E04FE0A7
:104F10006AE08FE00E94400A8091F303853030F010
:104F200022E042E16AE082E10E94400A8091F303BC
:104F3000863030F020E045E16AE085E10E94400AD9
:104F40008091B103813091F42BE04FE060E089E182
:104F50000E94542125E040E261E08AE10E94400A7B
:104F600021E046E265E080E20E94400A8091EA0387
:104F70008823D1F02CE04CE060E08AE50E945421C7
:104F800028E048E062E08CE50E9454218091EA0329
:104F9000823051F48091000180FF06C028E048E093
:104FA00062E08CE50E94510D29E041E161E08CE670
:104FB0000E94542125E042E063E08AE60E94510D00
:104FC0008091CA03811104C08091000180FF18C044
:104FD00025E042E063E08EE60E94510D25E043E0CB
:104FE00063E081E70E94510D25E043E063E085E73F
:104FF0000E94510D25E042E063E089E70E94510DD7
:1050000019826BEE71E0CE0101960E94BE2C809158
:10501000000182FD3EC082E09DE00E94040CAE01D2
:105020004F5F5F4F67E385E50E94D20906E026E007
:105030004BE168E783ED95E00E94451F882319F056
:1050400082E00E94BF0C08E028E04AE167E783EDB8
:1050500095E00E94451F882319F083E00E94BF0C51
:105060008091F10390E001969F938F93AEE2B1E0BF
:10507000BF93AF93FF92EF920E94F52CA70167E3D5
:1050800080E00E94D2090F900F900F900F900F9028
:105090000F908091000182FFE5C085E994E00E94B5
:1050A000040CAE014F5F5F4F6BE18AE60E94D209AC
:1050B000198249E752E067E28DE60E94D209E09149
:1050C000F103F0E0E551FC4F808190E00E94E01791
:1050D000BC01CE0101960E94BE2C8981082E000CD5
:1050E000990BC0970A9708F49B82AE014F5F5F4F00
:1050F0006BE180E00E94D209198281E0C82E81E034
:10510000D82E9FE5A92E91E0B92E00E010E068E9C5
:1051100073E0CE0101960E94BE2CD5018D905D01F9
:10512000882D0E9455100197F9F4F60180818111B4
:1051300013C08091B00390E001978017910749F464
:105140008091AE039091AF03892B19F066E872E06D
:1051500007C06BE772E004C0813031F46DE772E0A4
:10516000CE0101960E94BE2C882D0E945510892BDD
:10517000F9F4D6018C91811103C06DE772E014C07F
:105180008130B1F48091B00390E0019780179107CE
:1051900049F48091AE039091AF03892B19F066E832
:1051A00072E002C06BE772E0CE0101960E94BE2C55
:1051B0000F5F1F4FBFEFCB1ADB0A0630110509F056
:1051C000A6CFAE014F5F5F4F62E282E10E94D2093B
:1051D0001982C12CD12C68E973E0CE0101960E949E
:1051E000BE2C8091F10390E086010F5F1F4FC8161F
:1051F000D90659F48091000180FF07C068E973E087
:10520000CE0101960E94BE2C15C01F930F93AFE7ED
:10521000B2E0BF93AF93FF92EF920E94F52CB701DB
:10522000CE0101960E94BE2C0F900F900F900F9010
:105230000F900F9068010630110569F6AE014F5FBF
:105240005F4F6EE282E10E94D209198222E34DE7AC
:1052500062E380E00E94400A45E651E060E480E0BD
:105260000E94D2090E94060A811119CE809126045B
:10527000833041F4109226046AEF70E080E090E001
:105280000E94011180912604823021F08091250432
:105290008530F9F464E371E085E691E00E94D42C56
:1052A0001092260410922504E091F103F0E0E95FEA
:1052B000FE4F808190E0FC01E551FC4F60810E942F
:1052C00075170E9420186AEF70E080E090E00E945D
:1052D000011183E00E94EA10813991407CF080E165
:1052E000809300016091D5057091D60520E030E0F3
:1052F00041E183ED95E00E9485120EC0809100018E
:10530000815080930001882321F080912604813010
:1053100019F480E180930001A8951092B1030E94D6
:10532000CE0EE5CB00930D0693C9011309C067E0CB
:10533000C7010E949111F7019781891709F4CDC91E
:105340000F5F101708F4C9C9BFC910922B0410923F
:105350002A0448EE53E060E070E040932C04509340
:105360002D0460932E0470932F048CE791E09093AA
:1053700029048093280485EC90E090933504809371
:10538000340484EC90E0909337048093360480ECEE
:1053900090E0909339048093380481EC90E09093EE
:1053A0003B0480933A0482EC90E090933D04809318
:1053B0003C0486EC90E090933F0480933E0410926E
:1053C000410410924204109243041092440483E07A
:1053D00090E09093A1068093A0069093A3068093FB
:1053E000A2069093A5068093A4069093A7068093A7
:1053F000A6069093CE058093CD0580EA91E0909328
:10540000C8048093C70481E090E090939305809353
:1054100092051092A6051092A5054093A7055093FA
:10542000A8056093A9057093AA058EE891E0909372
:10543000A4058093A3051092BA051092B9051092A5
:10544000BC051092BB051092BE051092BD051092CE
:10545000C0051092BF056091C1056E7F6D7F60939E
:10546000C1056695617081E0682783E00E947E1027
:1054700061E083E00E94AE10E3E0F0E1E491E093AC
:10548000B305EFEEFFE0E491F0E0EE0FFF1FE8520E
:10549000F04F859194919093B5058093B40560E0A9
:1054A00082E00E94AE108091C10581FD04C061E0E0
:1054B00082E00E947E1082E08093AF05E2E0F0E19E
:1054C000E491E093B005EEEEFFE0E491F0E0EE0F42
:1054D000FF1FEE51F04F859194919093B205809308
:1054E000B10583EA95E09093C3058093C20580E1FE
:1054F00097E2A0E0B0E08093C4059093C505A09327
:10550000C605B093C70581E08093CC0588EA91E099
:105510009093C6048093C50482EB91E09093C804F5
:105520008093C70483E090E09093A9068093A80637
:105530009093B9068093B80660E08FE00E94AE10A9
:10554000EFE0F0E1E491E093AA06EBEFFFE0E491F5
:10555000F0E0EE0FFF1FEE51F04F85919491909384
:10556000AC068093AB061092B5061092B706109267
:10557000B606E5EBF6E0129286E0ED3AF807D9F7C9
:1055800086E29FE090931F0680931E068AEA96E0CB
:1055900090931306809312061092110610920D0636
:1055A00089E080930E0681E080930F0680931006B9
:1055B0001092D2051092D10528EB31E03093D0053E
:1055C0002093CF0510920A0610920B0610920C063B
:1055D0001092D8051092D7051092DA051092D905CD
:1055E0001092DC058093DB0582E28093DD0510924A
:1055F000E2051092E105E6EFF5E09FEF8EE08E0FF9
:1056000091938E13FDCF81E08093F30526E43FE074
:105610003093E9052093E8058093EA051092EB05A5
:105620001092EC0580E48093ED051092EE0587E280
:105630009FE0909305068093040685E191E09093A6
:10564000D6058093D5051092010683ED95E00E9462
:10565000891284EC91E09093D0058093CF05089552
:10566000E5ECF4E088EA91E09183808380EA91E0C0
:10567000938382838EE891E09093A4058093A305A1
:1056800083EA95E00C94D41CFC0188279927E894C0
:1056900021912032E9F3293010F02E30C8F32B325B
:1056A00041F02D3239F4689404C00E94622B820FBD
:1056B000911D219120532A30C0F31EF490958195BD
:1056C0009F4F08957AE0979F902D879F802D910D91
:1056D00011240895F999FECF92BD81BDF89A9927BA
:1056E00080B50895262FF999FECF1FBA92BD81BDCE
:1056F00020BD0FB6F894FA9AF99A0FBE0196089554
:105700000E94F82B08F481E008950E948C2B689485
:10571000B1110C943F2C08950E94242C88F09F57BF
:1057200098F0B92F9927B751B0F0E1F0660F771FC5
:10573000881F991F1AF0BA95C9F714C0B13091F0BB
:105740000E943E2CB1E008950C943E2C672F782FD8
:105750008827B85F39F0B93FCCF386957795679580
:10576000B395D9F73EF490958095709561957F4FEC
:105770008F4F9F4F0895E89409C097FB3EF4909592
:105780008095709561957F4F8F4F9F4F9923A9F01A
:10579000F92F96E9BB279395F695879577956795A9
:1057A000B795F111F8CFFAF4BB0F11F460FF1BC0ED
:1057B0006F5F7F4F8F4F9F4F16C0882311F096E980
:1057C00011C0772321F09EE8872F762F05C066232E
:1057D00071F096E8862F70E060E02AF09A95660FE7
:1057E000771F881FDAF7880F9695879597F90895A0
:1057F000990F0008550FAA0BE0E8FEEF16161706E2
:10580000E807F907C0F012161306E407F50798F049
:10581000621B730B840B950B39F40A2661F0232B62
:10582000242B252B21F408950A2609F4A140A695DE
:105830008FEF811D811D089557FD9058440F551F0E
:1058400059F05F3F71F04795880F97FB991F61F002
:105850009F3F79F087950895121613061406551F79
:10586000F2CF4695F1DF08C0161617061806991FE5
:10587000F1CF86957105610508940895E894BB27DA
:1058800066277727CB0197F908950E94F82B08F433
:105890008FEF089597FB072E16F4009407D077FD3D
:1058A00009D00E94A52C07FC05D03EF49095819567
:1058B0009F4F0895709561957F4F0895A1E21A2E2C
:1058C000AA1BBB1BFD010DC0AA1FBB1FEE1FFF1FA4
:1058D000A217B307E407F50720F0A21BB30BE40BF4
:1058E000F50B661F771F881F991F1A9469F760953B
:1058F0007095809590959B01AC01BD01CF010895F5
:10590000052E97FB1EF400940E94972C57FD07D09C
:105910000E945E2C07FC03D04EF40C94972C5095FB
:105920004095309521953F4F4F4F5F4F089590958B
:105930008095709561957F4F8F4F9F4F0895EE0F23
:10594000FF1F0590F491E02D0994AA1BBB1B51E1A8
:1059500007C0AA1FBB1FA617B70710F0A61BB70BDF
:10596000881F991F5A95A9F780959095BC01CD0184
:10597000089581E090E0F8940C94CD2FFB01DC01B8
:105980000D900020E9F7119701900D920020E1F7AA
:105990000895FC018191861721F08823D9F7992772
:1059A00008953197CF010895FB01DC0101900D921C
:1059B0000020E1F70895FB0151915523A9F0BF01A3
:1059C000DC014D9145174111E1F759F4CD010190EA
:1059D000002049F04D9140154111C9F3FB014111DF
:1059E000EFCF81E090E001970895AEE0B0E0EBEFFB
:1059F000FCE20C94A42F0D891E8986E08C831A8307
:105A000009838FEF9FE79E838D83AE01475E5F4FD3
:105A10006F89788DCE0101960E94182D2F813885CF
:105A2000F801E20FF31F10822E96E4E00C94C02FD1
:105A3000ACE0B0E0EEE1FDE20C94962F7C016B014E
:105A40008A01FC0117821682838181FFBDC1CE01CC
:105A500001964C01F7019381F60193FD859193FF27
:105A600081916F01882309F4ABC1853239F493FD2C
:105A7000859193FF81916F01853229F4B70190E000
:105A80000E94002FE7CF512C312C20E02032A0F4CF
:105A90008B3269F030F4803259F0833269F420613E
:105AA0002CC08D3239F0803339F4216026C0226059
:105AB000246023C0286021C027FD27C030ED380FA7
:105AC0003A3078F426FF06C0FAE05F9E300D1124CC
:105AD000532E13C08AE0389E300D1124332E2062DD
