:100000000C9433090C945B090C945B090C947F12DB
:100010000C947F120C947F120C945B090C945B0976
:100020000C945B090C945B090C945B090C94B61C52
:100030000C945B090C945B090C945B090C945B09B0
:100040000C9475160C945B090C9451150C942B159B
:100050000C945B090C945B090C945B090C945B0990
:100060000C945B090C945B094C1A571A621A6D1AAE
:10007000781A831A8E1ACC1AD11AD61ADB1AE01AF9
:10008000E51AEE1A01070D00FE09016902D8207F6A
:10009000FE0BFE09FE0D0070222979C0C0C0C0C051
:1000A000C000C0C0185373D8D8D81259795050F82E
:1000B000F850F8F850500269793078B4B07834B418
:1000C0007830026979E4ACE81830605CD49C02694D
:1000D0007970D8D8D870D4DCD874272474C0C0C044
:1000E000C0124979306060C0C0C060603012497988
:1000F000C060603030306060C00366764830FCFC21
:1001000030480366763030FCFC3030114474707037
:1001100060C0056171FC11437360F0600269790C85
:100120000C1818306060C0C00269793048CCCCCC63
:10013000CCCC48300269793070B03030303030FC8F
:1001400002697978CCCC0C3860C0C0FC026979FCBB
:100150000C1830780C0CCC780269790C1C3C6CCCF7
:10016000CCFC0C0C026979FCC0C0F8CC0C0CCC782F
:1001700002697978CCC0C0F8CCCCCC78026979FC23
:100180000C0C18183030606002697978CCCCCC78CF
:10019000CCCCCC7802697978CCCCCC7C0C0CCC78EB
:1001A00011487860F060000060F06011487860F0FD
:1001B0006000707060C00269790C183060C06030F7
:1001C000180C046474FC0000FC026979C0603018EB
:1001D0000C183060C002697978CCCC0C3830003013
:1001E00030026979788C8CBCACBC808C78026979DF
:1001F00078CCCCCCFCCCCCCCCC026979F8CCCCCCB7
:10020000F8CCCCCCF802697978CCC0C0C0C0C0CCE6
:1002100078026979F8CCCCCCCCCCCCCCF80269791A
:10022000FCC0C0C0F8C0C0C0FC026979FCC0C0C03E
:10023000F8C0C0C0C002697978CCC0C0DCCCCCCCDE
:100240007C026979CCCCCCCCFCCCCCCCCC0269790E
:10025000FC30303030303030FC0269790C0C0C0C42
:100260000C0C0CCC78026979C4CCD8F0E0F0D8CC76
:10027000C4026979C0C0C0C0C0C0C0C0FC026979F6
:1002800084CCFCFCCCCCCCCCCC026979CCCCECECD6
:10029000FCDCDCCCCC02697978CCCCCCCCCCCCCC22
:1002A00078026979F8CCCCCCF8C0C0C0C0016A7AB9
:1002B00078CCCCCCCCCCECDC780C026979F8CCCC0A
:1002C000CCF8F0D8CCC402697978CCC0C0780C0CDA
:1002D000CC78026979FC303030303030303002690F
:1002E00079CCCCCCCCCCCCCCCC78026979CCCCCC75
:1002F000484878303030026979CCCCCCCCCCFCFC8E
:10030000CC8402697984CC4878307848CC840269FE
:1003100079CCCC78783030303030026979FC0C0CF4
:10032000183060C0C0FC124979F0C0C0C0C0C0C065
:10033000C0F0026979C0C060603018180C0C124916
:1003400079F030303030303030F00764743078CCB1
:1003500084016272FCFC194373C0603002667678D7
:100360000C7CCCCC7C026979C0C0C0F8CCCCCCCCA5
:10037000F802667678CCC0C0CC780269790C0C0C97
:100380007CCCCCCCCC7C02667678CCFCC0CC780221
:100390006979386C6060F06060606000687874CC87
:1003A000CC78C078CC78026979C0C0C0F8CCCCCC0D
:1003B000CCCC0269793030007030303030FC006BCA
:1003C0007B0C0C000C0C0C0C0C0CCC78026979C06A
:1003D000C0C0CCD8F0F0D8CC026979703030303061
:1003E000303030FC026676D8FCFCCCCCCC02667691
:1003F000F8CCCCCCCCCC02667678CCCCCCCC78000B
:100400006878F8CCCCCCF8C0C0C00068787CCCCC84
:10041000CC7C0C0C0C026676F8CCC0C0C0C0026666
:100420007678CC6018CC780268786060F86060609C
:100430006C38026676CCCCCCCCCC7C026676CCCC4C
:10044000CC787830026676CCCCCCFCFC4802667660
:10045000CCCC7878CCCC006878CCCCCCCC7C0CCC18
:1004600078026676FC0C1860C0FC12497970C0C036
:1004700060C060C0C070222979C0C0C0C0C0C0C008
:10048000C0C0124979E030306030603030E008633D
:100490007364FC98FF41542B434D474C3D22414C23
:1004A0004C220041542B434D47523D0041542B43B5
:1004B0004D47443D0001070D00FE09015F02CF20BA
:1004C000FFFE0BFE0AFE0D007032197980808080DD
:1004D0008080800080283373A0A0A01357775050ED
:1004E000F850F850501357772078A07028F0200269
:1004F000697944A448101020489488026777609076
:1005000090609488743813738080802239792040F9
:100510004080808040402022397980404020202047
:100520004040800465754830FC30481455752020E3
:10053000F82020114373706080165171F8213373D5
:1005400040E0401259790808101020404080800295
:1005500069793048848484848448301259792060D1
:10056000A02020202020F8026979788484040830B3
:100570004080FC026979FC04081038040484780285
:100580006979081828488888FC0808026979FC807D
:1005900080B8C40404847802697938408080B8C483
:1005A000848478026979FC040810102020404002FD
:1005B00069797884848478848484780269797884F9
:1005C000848C740404087021387840E040000040B6
:1005D000E040114878207020000070608012597946
:1005E000081020408040201008046474FC0000FCC7
:1005F00012597980402010081020408002697978D3
:1006000084840408101000100269797884849CA402
:10061000AC9480780269793048848484FC84848432
:10062000026979F844444478444444F8026979788A
:100630008480808080808478026979F844444444CE
:10064000444444F8026979FC808080F0808080FC1A
:10065000026979FC808080F08080808002697978EE
:10066000848080809C848C7402697984848484FC76
:1006700084848484125979F820202020202020F8B6
:100680000269791C080808080808887002697984DA
:100690008890A0C0A0908884026979808080808042
:1006A000808080FC02697984CCCCB4B48484848456
:1006B0000269798484C4A4948C84848402697978DE
:1006C0008484848484848478026979F8848484F8B6
:1006D00080808080016A7A788484848484A4947879
:1006E00004026979F8848484F8A090888402697986
:1006F000788480807804048478125979F820202046
:100700002020202020026979848484848484848445
:1007100078026979848484484848303030026979A5
:1007200084848484B4B4CCCC8402697984844848B9
:1007300030484884841259798888505020202020DD
:1007400020026979FC04081030204080FC114B7BAA
:10075000F0808080808080808080F0125979808055
:1007600040402010100808114B7BF01010101010A2
:1007700010101010F0185373205088016171FC2A7A
:100780002272804002667678047C848C74026979D7
:10079000808080B8C48484C4B802667678848080FF
:1007A0008478026979040404748C84848C740266ED
:1007B000767884FC80847802697938444040F0403F
:1007C0004040400068787488887080788478026936
:1007D00079808080B8C48484848412587820006032
:1007E00020202020F8105A7A0800180808080888E5
:1007F00088700269798080808890E090888412599E
:10080000796020202020202020F8125676D0A8A839
:10081000A8A888026676B8C4848484840266767840
:100820008484848478006878B8C484C4B880808064
:10083000006878748C848C74040404026676B8446E
:100840004040404002667678846018847802687878
:100850004040F04040404438026676848484848C72
:10086000741256768888885050201256768888A848
:10087000A8A850026676844830304884006878849E
:1008800084848C74048478026676FC08102040FC12
:10089000115B7B3840404020C02040404038321936
:1008A00079808080808080808080115B7BE0101068
:1008B00010201820101010E018537348A890FFFF64
:1008C000FFFFFFFFFFFFFFFFFFFFFFFFFFFFFFFF38
:1008D000FFFFFFFFFFFFFFFFFFFFFFFFFFFFFF0D1A
:1008E0000070321979800080808080808080135869
:1008F000782070A8A0A0A8702002697938444040F0
:10090000E0404044B80366768478484878840259C9
:100910007988885050F820F820203219798080801A
:10092000800080808080124A7A6090806090906021
:1009300010906019427290900269797884B4A4A4EE
:10094000A4B48478145777700878887800F803671F
:1009500077142850A0502814145373F8080816412F
:1009600071F00269797884B4ACACB4AC84781A5173
:1009700071F8174474609090601357772020F82026
:100980002000F816367640A0204080E0163676E04B
:10099000204020A0402A227240800167778484840E
:1009A00084CCB4800269797CE8E8E86828282828A3
:1009B000262171C0202272408016367640C0404009
:1009C00040E01546766090906000F0036777A05095
:1009D00028142850A0026A7A40C0404044EC141405
:1009E0001C04026A7A40C0404048F40408101C020B
:1009F0006A7AE0204020A44C14141C040269792077
:100A00000020204080848478026A7A2010003048D8
:100A10008484FC8484026A7A10200030488484FC38
:100A20008484026A7A30480030488484FC848402DA
:100A30006A7A64980030488484FC8484026A7A4824
:100A4000480030488484FC8484026A7A304830301C
:100A5000488484FC84840269795CA0A0A0B8E0A0EA
:100A6000A0BC006B7B78848080808080847810209C
:100A7000026A7A201000FC8080F08080FC026A7A92
:100A8000102000FC8080F08080FC026A7A304800F0
:100A9000FC8080F08080FC026A7A484800FC8080FC
:100AA000F08080FC125A7A402000F820202020207C
:100AB000F8125A7A204000F82020202020F8125AFC
:100AC0007A205000F82020202020F8125A7A8888B6
:100AD00000F82020202020F8026979F8444444E4FA
:100AE000444444F8026A7A64980084C4A4A4948CB0
:100AF00084026A7A20100078848484848478026A6C
:100B00007A10200078848484848478026A7A304859
:100B10000078848484848478026A7A649800788473
:100B20008484848478026A7A48480078848484843F
:100B30008478036676844830304884016B7B04787F
:100B40008C9494A4A4A4C47880026A7A20100084AF
:100B5000848484848478026A7A1020008484848463
:100B6000848478026A7A3048008484848484847817
:100B7000026A7A48480084848484848478125A7A89
:100B80001020008888502020202002697980F88475
:100B90008484F8808080125979609090A0A0908819
:100BA00088B002697920100078047C848C74026912
:100BB0007910200078047C848C74026979304800B4
:100BC00078047C848C7402697964980078047C844D
:100BD0008C7402697948480078047C848C74026AB9
:100BE0007A3048300078047C848C7402667668140D
:100BF0007C909468006878788480808478102002E3
:100C000069792010007884FC80847802697910204A
:100C1000007884FC8084780269793048007884FC0C
:100C20008084780269794848007884FC808478124E
:100C300059794020006020202020F8125979204066
:100C4000006020202020F812597960900060202058
:100C50002020F81259799090006020202020F8027E
:100C60006A7A483050087884848484780269796488
:100C70009800B8C484848484026979201000788440
:100C8000848484780269791020007884848484784C
:100C900002697930480078848484847802697964B0
:100CA000980078848484847802697948480078843C
:100CB00084848478135777202000F800202001686E
:100CC0007804788C94A4C478800269792010008418
:100CD0008484848C74026979102000848484848CD8
:100CE00074026979304800848484848C7402697940
:100CF000484800848484848C74006B7B10200084BA
:100D000084848C74048478006A7A8080B8C4848473
:100D1000C4B88080006B7B4848008484848C740451
:100D20008478002730FBF518000000002A3A001AEA
:100D3000FB18000A0B160D010F0C000C004C80ED87
:100D4000C07F803F001E003F007380E1C0408011E3
:100D5000103013010101C00001C00001C00001C03A
:100D60000001C00001C00001C000FFFF80FFFF8044
:100D7000FFFF8001C00001C00001C00001C00001F0
:100D8000C00001C0000309090903FBE0E0E0E02026
:100D90006060C0800802020B0108FFFF0304040921
:100DA0000300E0E0E0E00918300900000180018064
:100DB00001800300030003000600060006000C008B
:100DC0000C000C000800180018001800300030005B
:100DD0003000600060006000C000C0000F183012DA
:100DE000010007C01FF03FF83C78783C701C701C75
:100DF000E00EE00EE00EE00EE00EE00EE00EE00E83
:100E0000E00EE00E701C701C703C3C783FF81FF048
:100E100007C00818181203000307070F3FFFFF075A
:100E20000707070707070707070707070707070752
:100E30000F183012010007C01FF03FF8783C701CFB
:100E4000F00EE00EE00E000E001C003C007800F0FA
:100E500003E007C01F003C0078007000E000E000E5
:100E6000FFFEFFFEFFFE0F183012010007C01FF04B
:100E70003FF83838701C701C701C701C001C003847
:100E800003F803F003F8003C001E000EE00EE00E35
:100E9000E00E701C783C3FF81FF007C010183012AD
:100EA0000000001800380078007800F801F803B856
:100EB00003B807380E380E381C38383838387038D0
:100EC000E038FFFFFFFFFFFF003800380038003830
:100ED00000380F18301201003FFC3FFC3FFC380087
:100EE000380038007000700077C07FF07FF8787CA1
:100EF000701C001E000E000E000EE00EE01EF01C26
:100F0000787C7FF83FF00F800F183012010003C08B
:100F10000FF01FF83C38381C701C70007000600027
:100F2000E3C0EFF0FFF8F83CF01CF00EE00EE00E2E
:100F3000600E700E701C383C3FF81FF007C00F1891
:100F400030120100FFFEFFFEFFFE000E001C001825
:100F500000380070007000E000E001C001C00380B4
:100F600003800700070007000E000E000E001C00A3
:100F70001C001C000F183012010007C01FF03FF8C2
:100F8000383C701C701C701C701C783C3C781FF046
:100F90000FE03FF8783C701CE00EE00EE00EE00E33
:100FA000F01C783C3FF81FF007C00F18301201000A
:100FB00007C01FF03FF8787C703CF01CE01EE00E8C
:100FC000E00EE00EE01EE01E703E7FFE3FEE0FCE14
:100FD000000E001CE01CF03C78783FF03FE00F80F2
:100FE000031212090400E0E0E0E00000000000004D
:100FF00000000000E0E0E0E041542B435042523D4D
:101000000000000000250028002B00000000002345
:10101000002600290004040404040404040202025B
:101020000202020303030303030102040810204029
:1010300080010204081020010204081020FFE0FFD4
:10104000D1AFFF32FFD0FFFEFFE0FFD1AEFFD0FFF8
:10105000FEFFE0FFD11000FFFEFFD0FFE0FFC1FF69
:10106000D1AED580A83FD300408D142000A1C8DAAE
:101070001281CFD9F1DB402EA4A6AFFFD0FFFE0036
:101080005EBCE2613FDD83C29C7E20A3FD1F419DCB
:10109000C3217FFCA2401E5F01E3BD3E6082DC23D2
:1010A0007D9FC1421CFEA0E1BF5D0380DE3C62BEAD
:1010B000E0025CDF81633D7C22C09E1D43A1FF46B0
:1010C00018FAA427799BC584DA3866E5BB5907DB93
:1010D000856739BAE406581947A5FB7826C49A658E
:1010E0003BD987045AB8E6A7F91B45C6987A24F875
:1010F000A6441A99C7257B3A6486D85B05E7B98C64
:10110000D2306EEDB3510F4E10F2AC2F7193CD1162
:101110004FADF3702ECC92D38D6F31B2EC0E50AF39
:10112000F1134DCE90722C6D33D18F0C52B0EE3244
:101130006C8ED0530DEFB1F0AE4C1291CF2D73CA1F
:10114000947628ABF517490856B4EA6937D58B571A
:1011500009EBB536688AD495CB2977F4AA4816E905
:10116000B7550B88D6346A2B7597C94A14F6A874FC
:101170002AC896154BA9F7B6E80A54D7896B3500EB
:10118000000000240027002A0000000008000201DF
:101190000000030407000000000000000041542B81
:1011A000434D47533D220041542B4349505348552A
:1011B000540041542B435042533D22534D22004191
:1011C000542B434D47463D310041542B434D45453B
:1011D0003D300041542B434C49503D310041542B8C
:1011E0004950523D0041542B4950523D0041542B2F
:1011F0004950523D393630300D0041542B49505240
:101200003D393630300D0041542B4950523D39366E
:1012100030300D0041542B4950523D393630300D9D
:101220000041542B4950523D393630300D00415465
:101230002B4950523D393630300D0041542B495026
:10124000523D393630300D0041542B4950523D3912
:101250003630300D0041542B4950523D3936303034
:101260000D00482CD32D11241FBECFEFD8E0DEBFD8
:10127000CDBF13E0A0E0B1E0E2ECF8E602C00590DB
:101280000D92AC39B107D9F727E0ACE9B3E001C062
:101290001D92A330B207E1F719E0C2E3D9E004C020
:1012A0002197FE010E940E31C133D107C9F70E9478
:1012B000A1220C9454340C940000962FE1ECF5E03C
:1012C0006681778180A391A321EE35E042E385EC2E
:1012D00095E00C94F717CF92DF92EF92FF920F9365
:1012E0001F93CF93DF93C82FD62F0EE1C02EC61ABF
:1012F0008BE7D82EDC0E6C2D8D2D0E945D090C1B0A
:101300009BE7E92EED0E602F8E2D0E945D091BE7F5
:10131000F12EFC1A6C2D8F2D0E945D091D1B602F74
:10132000812F0E945D09D25E6D2F8D2D0E945D0977
:10133000C25E6C2F8E2D0E945D096D2F8F2D0E9435
:101340005D096C2F812FDF91CF911F910F91FF903D
:10135000EF90DF90CF900C945D09CF93DF93809155
:10136000FE05811107C081E08093FE0585EC95E0C4
:101370000E94FB17C091C705D091C805E091F60502
:10138000F091F70582E00995E091F605F091F705F7
:1013900081E0099520E030E044E1BE0185EC95E074
:1013A0000E94F71728EF35E047E1BE0185EC95E094
:1013B0000E94F717E091F605F091F70580E0DF91C4
:1013C000CF910994CF92DF92FF920F931F93CF9307
:1013D000DF9300D0CDB7DEB7F82E062FE091DA0507
:1013E000F091DB0585EC95E049835A830995080F58
:1013F0004981C42E5A81D52E10E0F60121916F014A
:10140000222349F0402F6F2D85EC95E00E9465184E
:10141000F80E180FF2CF812F0F900F90DF91CF9120
:101420001F910F91FF90DF90CF900895AF92BF92E0
:10143000CF92DF92EF92FF920F931F93CF93DF93A0
:10144000EC018B0180910406909105060E948E1795
:101450008823A1F1BE0180910406909105060E94A7
:10146000611740E06EEB80910406909105060E94A2
:101470001F17E801680189E0C80ED11CA09004067E
:10148000B090050688E0E82EF12C01E010E0C501DF
:101490000E94CC168111102B000F81E0E81AF10890
:1014A000B1F71993CC15DD0549F7809104069091A9
:1014B00005060E948E1791E0813009F090E0892F97
:1014C000DF91CF911F910F91FF90EF90DF90CF9020
:1014D000BF90AF9008950F931F93CF93DF93CDB735
:1014E000DEB729970FB6F894DEBF0FBECDBF8C01D3
:1014F000BE016F5F7F4F0E94160A8823B1F168E03A
:10150000CE0101960E94BF16998589132EC02981AC
:1015100058E0259FB00111249A81292F30E0322F05
:101520002227330F330F330F262B372BF8018081FF
:101530008031C9F4688570E08F81AB01481B510987
:10154000CA019695982F8827979587950E94B9305C
:10155000CB014097207F53E0220F331F5A95E1F7CC
:10156000820F931F04C0C90102C080E894EE29963F
:101570000FB6F894DEBF0FBECDBFDF91CF911F91A4
:101580000F910895AF92BF92CF92DF92EF92FF92A8
:101590000F931F93CF93DF931F92CDB7DEB75C01FC
:1015A000D62EE72EFC018585811105C0C5010E945C
:1015B0008E17811106C0F50113861586148680E00A
:1015C00065C040E060EFC5010E941F1701E0F12CEB
:1015D000C12C11E0C5010E94CC16682FC50169839A
:1015E0000E94CC166981613019F48130B9F433C09E
:1015F0004F2D50E068131BC0F5018385181730F498
:10160000E40FF51F8381802349F402C0181731F0DD
:1016100060E0193058F4F501148708C0F501EF0DAA
:10162000F11D8381802B838361E009C0C12EF50108
:10163000E40FF51F9381802F809589238383C50153
:101640000E94F0161F5F000F11F4F39401E0F7E021
:10165000FF1508F0BFCF113408F4ADCFF501C386F4
:10166000C11002C081E08587F5018381882309F4D8
:10167000A2CFD5011396ED2DFE2D9501255F3F4F8D
:101680008D918193A217B307D9F781E00F90DF9175
:10169000CF911F910F91FF90EF90DF90CF90BF906F
:1016A000AF9008950F931F93CF93DF938C01D62FA4
:1016B000E0910406F0910506138615861486DF0175
:1016C0001B9633961E92AE17BF07E1F7C0E0B80134
:1016D00080910406909105060E94C20A811102C001
:1016E00080E010C0CD130AC067E0C8010E94BF1699
:1016F000F8019781891302C081E004C0CF5FDC1735
:1017000078F3E5CFDF91CF911F910F9108958091EC
:101710000406909105060E948E1740E06CEC8091C3
:101720000406909105060E941F174091FF0564E48E
:1017300080910406909105060E941F178091010672
:101740008823A9F0E0910006E950E33040F4F0E08E
:10175000EE0FFF1FE858FE4F6081718102C06EEEF0
:1017600072E0072E000C880B990B0C942F1608952D
:101770004F925F926F927F928F929F92AF92BF92A1
:10178000CF92DF92EF92FF920F931F93CF93DF934D
:10179000CDB7DEB7A1970FB6F894DEBF0FBECDBFB1
:1017A0008C016A017B0177FF2FC0DC01ED91FC9178
:1017B0000190F081E02D6DE209955C01222733272D
:1017C000A9012C193D094E095F0919A2FE01B19624
:1017D0007F019AE0492E512C612C712CCA01B9016C
:1017E000A30192010E94CD30605DD7016E937D010F
:1017F000211531054105510589F7BD01C8010E9438
:1018000000158A0D9B1D1EC09A01AB0119A2FE0195
:10181000B1967F018AE0882E912CA12CB12CCA01AF
:10182000B901A50194010E94CD30605DD7016E938E
:101830007D01211531054105510589F7BD01C8011B
:101840000E940015A1960FB6F894DEBF0FBECDBF63
:10185000DF91CF911F910F91FF90EF90DF90CF908C
:10186000BF90AF909F908F907F906F905F904F90C0
:1018700008950F931F93CF93DF93482F882309F484
:101880004CC08091860581114AC08B01C42F81E034
:1018900080938605FB01108268EF7FE085E995E083
:1018A0000E94DC144C2F50E060E070E085E995E088
:1018B0000E94B80B63EA72E085E995E00E94291561
:1018C00025EA32E042E350E068E873E189EB94E016
:1018D0000E947A1C823021F08430D9F48EEF1AC035
:1018E0006BEA72E08BEB94E00E946231009789F022
:1018F000EC01229662E270E0CE010E94383100973E
:1019000011F0FC011082BE01C8010E944C3181E03F
:1019100001C080E01092860503C08DEF01C08FEFFB
:10192000DF91CF911F910F910895BF92CF92DF92D7
:10193000EF92FF920F931F93CF93DF931F92CDB738
:10194000DEB7B82E162F042F481718F4C82EC41A65
:1019500002C0C42EC81A211758F4F12EF21ACF145F
:10196000C0F4812F102F082F8B2DB22E282F0AC0E4
:10197000F22EF11ACF1470F5802F022F282F8B2D05
:10198000B12E182FDD24D394EF2CE694121768F0B3
:101990002DC00B1568F5EC2CE6948C2DCF2CF82E71
:1019A000802F0B2DB82E122FD12C91E00B1528F182
:1019B000D11003C0612F8B2D02C06B2D812F998315
:1019C0000E945D099981EC18E7FE02C0190FEF0C27
:1019D000B394ECCF0B1560F4EC2CE6948C2DCF2C4B
:1019E000F82E802F0B2DB82E122FD12C9FEFDECF8B
:1019F0008F2DFC2CC82ED12CC7CF0F90DF91CF910B
:101A00001F910F91FF90EF90DF90CF90BF900895BE
:101A10002091C9053091CA052817390709F444C037
:101A20009093CA058093C905009709F437C02091A7
:101A3000DC05FC01211107C03596E491E093DD053A
:101A4000FC013C960FC0213039F43F96E491E093BD
:101A5000DD05FC01709606C03D96E491E093DD053E
:101A6000FC013E9684918093DE058091DD05082E71
:101A7000000C990B2091DE05821B910927FD93959F
:101A80002091DF05203441F0829FC001112426E01F
:101A9000969587952A95E1F78093E00586EC94E189
:101AA0009093DB058093DA0508950F931F93CF93EE
:101AB000DF93C82FD1E0D81B082F0195000F682FA6
:101AC00080E00E946B0910E01C1778F4D7FD03C07A
:101AD000C1500E5FD00F1F5F812F880F8F5FD80F0F
:101AE0006C2F812F0E946B09EFCFDF91CF911F9157
:101AF0000F910895EF92FF920F931F93CF93DF936F
:101B0000D82F062FC42F142FF82EF40EEE24EA94AB
:101B10008F2D811B1830A8F06091C7057091C80502
:101B20008093E1050093E2051092E405E092E3055D
:101B300021EE35E04BE385EC95E00E94F717185055
:101B4000E7CF8C2F887FD80F4C2F477019F197E083
:101B500049276091C7057091C805D093E1050093AE
:101B6000E2051092E4054F5F47708FEF90E001C0EF
:101B7000880F4A95EAF78093E30521EE35E04BE3C1
:101B800085EC95E0DF91CF911F910F91FF90EF9041
:101B90000C94F717DF91CF911F910F91FF90EF9069
:101BA00008950F931F93CF93DF93182F042FC62F01
:101BB000D62FD20F402F6C2F812F0E947A0DCF5F2E
:101BC000DC13F8CFDF91CF911F910F910895FC01A5
:101BD000E60FF11D849190E0982F88273196E491CB
:101BE0008E0F911D08952EE93FE0009729F0F9012D
:101BF0003197F1F70197F9CF08951092F1061092FD
:101C0000F0060895809302071092B90084FF02C085
:101C10008CE001C088E48093B8000C94FD0DDB01DA
:101C20001496ED91FC91159720E030E065E0099461
:101C3000CF92DF92EF92FF920F931F93CF93DF9398
:101C40008C017B016A0180E0F601C49181110BC017
:101C5000CF3F09F457C04C2FB701C8010E940F0EA7
:101C600081114EC054C0CF3F11F44FEFF5CFCE3F9E
:101C700009F44FC0C03F08F043C0C03E58F04C2F9D
:101C80004F70D7011496ED91FC91159720E030E04C
:101C900062E00CC0C03D68F04C2F4F70D701149625
:101CA000ED91FC91159720E030E063E0C8010995C3
:101CB00027C0C03CF8F0D7011496ED91FC91159720
:101CC00020E030E040E064E0C8010995C295C07FA3
:101CD000CE5FD0E0CE010E94F30DD7011496ED91B6
:101CE000FC91159720E030E041E064E0C8010995DF
:101CF000CE0104C0C7FD04C08C2F90E00E94F30DFC
:101D000080E001C081E0BFEFCB1ADB0A9DCF80E00D
:101D100001C081E0DF91CF911F910F91FF90EF9073
:101D2000DF90CF9008952091EE063091EF062817AE
:101D3000390771F49091ED068091EC06981741F007
:101D4000E091ED06F0E0E455F94F808190E00895D0
:101D50008FEF9FEF089508951F93CF93DF93DC01DA
:101D60005C962D913C915D972115310539F481E008
:101D700090E013969C938E9312973DC05196ED91EF
:101D8000FC91529750969C915097892F80951FB740
:101D90005E964C915E9741FB772770F941FD609507
:101DA000F8944081772311F0492B01C048234083E8
:101DB000E9012197F1F748E0508160FF02C0592BFB
:101DC00001C058235083E9012197F1F766954150EE
:101DD00099F7772321F090818923808303C0808144
:101DE000982B90831FBF5C968D919C915D97019776
:101DF000F1F721E030E0C901DF91CF911F91089503
:101E00002091EE063091EF062817390771F4809182
:101E1000EC062091ED0690E0805C9F4F821B9109BB
:101E200060E470E00E94B930089580E090E0089589
:101E30002091EE063091EF0628173907B9F49091FA
:101E4000ED068091EC06981789F0E091ED06F0E040
:101E5000E455F94F80812091ED0630E02F5F3F4F30
:101E60002F7333272093ED0690E008958FEF9FEFB7
:101E70000895E091EE06F091EF06E817F90769F48E
:101E8000A389B4899C918589809589238C9310922C
:101E9000EF061092EE0681E0089580E00895DC01DF
:101EA000ED91FC91369720813181820F931F8452EE
:101EB0009F4F0E94180F0895CF92DF92FF920F93C9
:101EC0001F93CF93DF936B01EA0100E010E00C1742
:101ED0001D07CCF487EB94E00E944F0FF82E1816E4
:101EE0007CF4E0911A04F0911B040190F081E02D44
:101EF000682F8AE194E00995F601E00FF11FF08266
:101F00000F5F1F4FE4CFCE01D7FF02C080E090E00B
:101F1000DF91CF911F910F91FF90DF90CF900895A7
:101F20008F929F92AF92BF92CF92DF92FF920F93C8
:101F30001F93CF93DF9300D0CDB7DEB76C018B0139
:101F4000F42E490120E1421709F456C02417A0F0ED
:101F50003AE043135BC0DB011496ED91FC911597B9
:101F600020E030E042E061E0099549E550E1B80148
:101F7000C6010E94180E4AC081E1481709F43FC00B
:101F8000A5E14A1343C0FB01A280B38041E550E1C3
:101F9000C6010E94180ED50114964C91406BB801F1
:101FA000C6010E940F0ED8011496ED91FC91159771
:101FB00020E030E041E062E0C6010995F5012681AC
:101FC0003781D8011496ED91FC911597D50115969E
:101FD0004C9166E0C6010995811102C080E0D3C032
:101FE000D8011496ED91FC91159720E030E040E087
:101FF00063E0C60109950AC048E450E102C04DE320
:1020000050E1B801C6010E94180EBCC0F80102815F
:102010001381F2E3FF1609F479C0FF15B8F025E14A
:10202000F21609F480C037E1F31609F492C084E196
:10203000F812A8C0D8011696ED91FC911797159645
:102040008C919F01280F311DC90165C0A6E4FA16C5
:1020500009F48FC0B7E4FB1609F48FC0EBE3FE125E
:1020600091C0D40111968C91119713969C91913047
:1020700029F0933031F4482F885004C048E0480FCD
:1020800001C0482F21E0F8013381381708F420E01F
:1020900031E0D80112965C91451708F430E051E028
:1020A000481708F050E0822F852B382319F4252398
:1020B00009F468C0F401F280913051F030F09230B0
:1020C00049F0933051F42FEF09C020E031E007C010
:1020D00021E004C020E03FEF02C020E030E0F7FE46
:1020E00008C0B401C8012A8339830E94C41739810A
:1020F0002A81D4018C91830F8C9311968C91119726
:10210000820F11968C93FF0C51F73CC0B401C801AB
:102110000E94C41737C01192E817F907E1F7C80108
:102120000E94F0172FC0C8010E94DA17882309F413
:1021300055CFD8011696ED91FC91179715968C9175
:102140009F01280F311DC9011192E817F907E1F726
:1021500019C0D4011C92F801828111968C931197B9
:102160008581815012968C931297838113968C935C
:1021700009C0D80115968C9103C0D80111968C9195
:10218000F401808381E00F900F90DF91CF911F9138
:102190000F91FF90DF90CF90BF90AF909F908F9066
:1021A000089568E00C94E70D66E00C94E70DFC01DF
:1021B000849108950E94D710882321F0823011F075
:1021C00083E0089586E008959091F106911104C08E
:1021D0008093F1066093F00608951F93CF93DF93E9
:1021E00000D0CDB7DEB720ED37E03A832983909158
:1021F000BC00982399F429813A81232B51F48091D2
:102200000207182F127081FD09C081E00E94E410BE
:1022100006C029813A8121503109E7CF11E0812F91
:102220000F900F90DF91CF911F91089584E98093D3
:10223000BC0064E080E10C94ED10CF938093BB0070
:1022400084E88093BC0063E080E80E94ED10C82F12
:10225000882389F080910207C82FC27081FD0AC0CF
:102260008091B900887F883229F063E082E00E9483
:10227000E41001C0C1E08C2FCF910895CF93DF937C
:10228000FC0123A5222379F0EC010E94E0218111B9
:1022900002C080E009C08EA1811180E40E941D115E
:1022A0008823B9F31BA681E0DF91CF9108950F93A6
:1022B0001F93CF93C42F89016330C1F050F4613074
:1022C00081F0623009F048C0FC0146A321E023A759
:1022D00043C0663011F1673079F1653009F03CC0D8
:1022E0000EC0FC0186A50E94020E36C0FC0116A29B
:1022F00021E023A7411130C00E9416112DC00E9479
:102300003E11811104C00E94161180E026C08C2F5E
:102310000E941D11811120C0F6CF0E943E1188231A
:1023200091F3CC23C9F0F80181918F010E941D1116
:10233000882349F3C150F5CF0E943E11882319F339
:10234000CC2351F0F80184910E941D11882329F0BB
:102350000F5F1F4FC150F4CF81E0CF911F910F91BC
:1023600008950F93FC010150040F84A996A99417B6
:1023700018F0081728F402C0081750F0041740F4AA
:102380002150260F83A995A9961720F4281720F429
:1023900080E007C0281720F481E0261710F0F8CF5E
:1023A00081E00F910895CF93DF93EC019A01AB0187
:1023B0001B8E1A8E198E188E1F8A1E8A60E079E095
:1023C0008DE390E00E94EF30F9012430310518F0E0
:1023D000C901039702C081E090E09D8F8C8F6C85CE
:1023E000663108F069C0C9019695879584319105D9
:1023F00010F0439702C081E090E09F8B8E8B369760
:1024000018F0C901059702C081E090E0998F888F8C
:10241000C901880F991F280F391F369527953695C2
:1024200027952D30310518F02C50310902C021E0DC
:1024300030E03B8F2A8F90916800683050F021E0A7
:102440006E3008F420E081E001C0880F2A95EAF799
:1024500001C084E0892B809368009C85983038F017
:102460009E3040F0963148F020E030E008C02DE684
:1024700030E005C02BE630E002C02CE630E03C8BBB
:102480002B8B983030F481E001C0880F9A95EAF7E1
:102490000EC0292F30E09E3018F42850310902C0B8
:1024A0002E50310981E001C0880F2A95EAF78D8B03
:1024B0008C8D9D8D0197F1F78A8D9B8D892BE1F095
:1024C0008091EE069091EF068C179D07A9F000977A
:1024D00011F00E94390F8E8D8E7F8E8F1092EC0638
:1024E0001092ED06D093EF06C093EE06EB89FC89BF
:1024F00090818D89892B8083DF91CF9108951F92E0
:102500000F920FB60F9211242F933F934F935F9327
:102510006F937F938F939F93AF93BF93EF93FF93AB
:10252000E091EE06F091EF06309709F451C0968DD8
:10253000A685B785858591FF04C09C91892329F4E0
:1025400047C09C91892309F043C0A389B4899C9119
:102550008589809589238C93868997890197F1F7DE
:10256000608D718DA685B785558538E020E0CB015B
:102570000197F1F7822F90E095958795282F4C9140
:10258000452309F02068315091F7868D81FD209513
:102590008091EC0690E001968F7399273091ED06BB
:1025A000381749F0A091EC06B0E0A455B94F2C9330
:1025B0008093EC0603C0868D8160868F828D938D1B
:1025C0000197F1F7A389B4899C918589892B8C9314
:1025D000FF91EF91BF91AF919F918F917F916F91FB
:1025E0005F914F913F912F910F900FBE0F901F90D1
:1025F0001895FC01EF52FF4F2081222331F0029603
:102600000E94623121E0892B09F420E0822F089595
:102610008F929F92AF92BF92CF92DF92EF92FF92F2
:102620000F931F93CF93DF93EC017C0182EDE80EB3
:10263000F11CF7018081811133C0CE0184529F4F7C
:102640000E94000F8E0109521F4F892BF9F40E943E
:102650006916F8010081118122813381AB01BC012F
:10266000401B510B620B730B349780819181A0E06A
:10267000B0E0481759076A077B0790F032978081CE
:10268000FE01E80FF11D128214E00BC00E946916D2
:10269000F801608371838283938381E0F7018083F3
:1026A00010E0F7018081813009F05CC07E01FCED13
:1026B000EF0EF11CC7010E94000F082F882349F07C
:1026C0000E946916FE01E952FF4F60837183828385
:1026D00093836E0181EDC80ED11C5E01EFECAE0E4E
:1026E000B11C002301F10150F6018081883CB8F44F
:1026F000F50180809180C7010E94180FF40180834A
:10270000F50180819181019691838083F60180811A
:102710008F5F8083FE01E80FF11D1282E2CFC701B7
:102720000E94180FDECF0E946916FE01E952FF4F8A
:10273000C080D180E280F380AB01BC014C195D09FF
:102740006E097F09329780819181A0E0B0E048173F
:1027500059076A077B0730F034978081C80FD11D75
:102760001A8211E0812FDF91CF911F910F91FF907D
:10277000EF90DF90CF90BF90AF909F908F90089593
:10278000CF93DF93EC01FC01EE52FF4F10823196A4
:10279000718360833296518340830E946916FE01E3
:1027A000E952FF4F60837183828393831A82389743
:1027B000CE0102969183808332961082CE010E94D0
:1027C00008138823D9F3DF91CF9108956F927F92F8
:1027D0008F929F92AF92BF92CF92DF92EF92FF9231
:1027E0000F931F93CF93DF93EC016B015A014901C3
:1027F000F12C8FEF3E019CED690E711CFE14F1F07F
:10280000FF2031F064EF71E080E090E00E942F162D
:10281000B601C3010E941515A401B501CE010E94A5
:10282000C013813039F4B801CE010E94F912882317
:1028300011F003C08FEFF394E1CF81E0DF91CF91EE
:102840001F910F91FF90EF90DF90CF90BF90AF90CE
:102850009F908F907F906F900895CF92DF92EF922C
:10286000FF920F931F93CF93DF936C017A018B013B
:10287000C0E0D0E0CE15DF0589F0D8016D918D0163
:10288000D601ED91FC910190F081E02DC6010995F2
:10289000892B11F47E0102C02196ECCFC701DF9194
:1028A000CF911F910F91FF90EF90DF90CF900895FF
:1028B000833081F028F4813099F08230A1F00895BE
:1028C0008730A9F08830B9F08430D1F4809180004D
:1028D0008F7D03C0809180008F7780938000089562
:1028E00084B58F7702C084B58F7D84BD08958091B3
:1028F000B0008F7703C08091B0008F7D8093B000CF
:1029000008953FB7F8948091F7069091F806A0914A
:10291000F906B091FA0626B5A89B05C02F3F19F01D
:102920000196A11DB11D3FBFBA2FA92F982F88274F
:10293000820F911DA11DB11DBC01CD0142E0660FAA
:10294000771F881F991F4A95D1F708950895089514
:10295000DC011696ED91FC91179712968C91481B0D
:10296000477081E090E001C0880F4A95EAF7E60FD2
:10297000F11D3081222311F0832B02C08095832327
:1029800080830895FC01808D8F5F089580E0089515
:102990000B96FC01849108950A96FC018491089598
:1029A0000E9428318AE194E00E945A2021E0892B7C
:1029B00009F420E0822F0895EF92FF920F931F9366
:1029C000CF93DF938C017B01C0E0D0E0F701EC0FE7
:1029D000FD1F6491662361F0D801ED91FC91019097
:1029E000F081E02DC8010995892B11F02196EECFD9
:1029F000CE01DF91CF911F910F91FF90EF9008953D
:102A00006115710579F0FB0101900020E9F731971C
:102A1000AF01461B570BDC01ED91FC910280F38165
:102A2000E02D099480E090E008950F931F93CF93D9
:102A3000DF93EC010E9400158C016EE572E0CE017F
:102A40000E940015800F911FDF91CF911F910F9170
:102A500008950C9400151F920F920FB60F92112437
:102A60002F933F934F935F936F937F938F939F9396
:102A7000AF93BF93EF93FF938AE194E00E941722F4
:102A8000FF91EF91BF91AF919F918F917F916F9146
:102A90005F914F913F912F910F900FBE0F901F901C
:102AA00018951F920F920FB60F9211242F938F93A8
:102AB0009F93EF93FF93E0912A04F0912B04808180
:102AC000E0913004F091310482FD12C09081809138
:102AD00033048F5F8F7320913404821751F0E0919B
:102AE0003304F0E0E65EFB4F958F8093330401C022
:102AF0008081FF91EF919F918F912F910F900FBE49
:102B00000F901F901895CF93DF93282F30E0F90195
:102B1000E757FE4E8491F901E75DFF4ED491F9012C
:102B2000EB5EFF4EC491CC2391F081110E945814AA
:102B3000EC2FF0E0EE0FFF1FE55FFF4EA591B49183
:102B4000EC91ED2381E090E021F480E002C080E090
:102B500090E0DF91CF9108951F93CF93DF93282FBB
:102B600030E0F901E757FE4E8491F901E75DFF4E31
:102B7000D491F901EB5EFF4EC491CC23C9F0162F1E
:102B800081110E945814EC2FF0E0EE0FFF1FEF5F51
:102B9000FF4EA591B4918FB7F894111105C09C9187
:102BA000ED2FE095E92302C0EC91ED2BEC938FBF64
:102BB000DF91CF911F910895CF93DF9390E0FC01B7
:102BC000E75DFF4E2491FC01EB5EFF4E849188236C
:102BD00061F190E0880F991FFC01E158FE4EC5910C
:102BE000D491FC01EF5FFF4EA591B491611109C032
:102BF0009FB7F8948881209582238883EC912E23B7
:102C00000BC0623061F49FB7F8943881822F8095B1
:102C100083238883EC912E2B2C939FBF06C08FB704
:102C2000F894E8812E2B28838FBFDF91CF910895F0
:102C30008E3008F08E508770806480937C00809185
:102C40007A00806480937A0080917A0086FDFCCFC0
:102C5000809178002091790090E0922B08958F92D6
:102C60009F92AF92BF92CF92DF92EF92FF926B0151
:102C70007C010E9481144B015C01C114D104E10468
:102C8000F104F1F00E948114DC01CB01881999094B
:102C9000AA09BB09883E9340A105B10570F321E064
:102CA000C21AD108E108F10888EE880E83E0981E68
:102CB000A11CB11CC114D104E104F10419F7DDCF4A
:102CC000FF90EF90DF90CF90BF90AF909F908F904C
:102CD00008952FB7F8946091F3067091F4068091EF
:102CE000F5069091F6062FBF08951F920F920FB62A
:102CF0000F9211242F933F938F939F93AF93BF9382
:102D00008091F3069091F406A091F506B091F60635
:102D10003091F20623E0230F2D3720F40196A11DF8
:102D2000B11D05C026E8230F0296A11DB11D2093F9
:102D3000F2068093F3069093F406A093F506B09301
:102D4000F6068091F7069091F806A091F906B091E9
:102D5000FA060196A11DB11D8093F7069093F8061F
:102D6000A093F906B093FA06BF91AF919F918F910E
:102D70003F912F910F900FBE0F901F901895DC017F
:102D8000E0E0615038F08D91E827F0E0E158FF4E27
:102D9000E491F7CF8E2F0895FC0190810180F2819C
:102DA000E02DF8948181892B81832281892F809560
:102DB00028232283A7E0B0E01197F1F72181822335
:102DC0008183A3E2B0E01197F1F780817894EFEC72
:102DD000F0E03197F1F7982381E009F480E008955D
:102DE000FC0190810180F281E02D892F809560FFA8
:102DF00012C0F8942281822382838181892B81836E
:102E0000A3E2B0E01197F1F78281982B9283789436
:102E100087ED90E011C0F894228182238283818122
:102E2000892B8183AFEFB0E01197F1F78281982B66
:102E3000928378948FE090E00197F1F70895CF9214
:102E4000DF92EF92FF920F931F93CF93DF931F9226
:102E5000CDB7DEB76C01E62E08E010E0FF24F39456
:102E600061E08F2D8E2109F460E0C60149830E9444
:102E7000F016FF0C0150110949810115110581F768
:102E8000411115C0F894D6011196ED91FC9112975D
:102E900091818C918095892381831196ED91FC918C
:102EA000129792818C9180958923828378940F90D8
:102EB000DF91CF911F910F91FF90EF90DF90CF9016
:102EC0000895CF92DF92EF92FF920F931F93CF93CB
:102ED000DF931F92CDB7DEB78C01F62E40E065E59B
:102EE00079830E941F17CF2C7981D72E760188E035
:102EF000E80EF11CF60161916F0140E0C8010E94EB
:102F00001F17CE14DF04B1F70F90DF91CF911F91FF
:102F10000F91FF90EF90DF90CF900895FC0190818A
:102F20000180F281E02DF8948181292F2095822360
:102F3000818378948DE743E050E0815021F1DA01FC
:102F40001197F1F730813923C1F3F89482818223FC
:102F500082838181892B81837894ABE7B7E01197D5
:102F6000F1F7F894818128232183A3E1B1E011973F
:102F7000F1F78081982381E009F080E07894E3E61E
:102F8000F6E03197F1F70895FB014181DC011296DB
:102F90002C911297421768F013962C9113972417CF
:102FA00040F0608115962C91621718F424810C94DE
:102FB000A8140895FC0180819281980F9283218149
:102FC000921760F494819F5F94839381890F821795
:102FD00010F08FEF820F838381E0089580E00895E1
:102FE000FC01128280818150838314820895DB0169
:102FF000ED91FC910994EF92FF920F931F93CF9361
:10300000DF931F92CDB7DEB78C01DC011296ED90F5
:10301000FC901397D196ED91FC91D29782E009959F
:1030200020E030E04AE0B701C8010E94F717F82E0F
:10303000D801D196ED91FC91D29783E00995D80102
:10304000D196ED91FC91D29780E00995FF20A1F1F6
:10305000F801628173819E012F5F3F4F46E4C801F2
:103060000E94F7178981D8018C9312966D917C91FB
:1030700013979E012F5F3F4F47E4C8010E94F71747
:103080008981F80181836281738120E030E048E426
:10309000C8010E94F717D8011B968C931B979801C3
:1030A0002D5C3F4F12966D917C91139747E1C801BB
:1030B0000E94F71781E001C080E00F90DF91CF916F
:1030C0001F910F91FF90EF9008952F923F925F9282
:1030D0006F927F928F929F92AF92BF92CF92DF9228
:1030E000EF92FF920F931F93CF93DF931F92CDB771
:1030F000DEB71C01C62E142FD22EDC011496ED90E3
:10310000FC901597C7010E94D710082FF101848108
:1031100095810E94DA10982E013019F48FE0A82EC4
:1031200002C0AA24AA94D10114968D919C9115975E
:103130000E94CC14082FF101848195810E94C8144B
:10314000B82ED10114968D919C9115970E94D110A3
:10315000B0E6BD1530F4009721F0E80EF91E01E647
:1031600011C0F101848195810E94D410F0E4FD1515
:1031700030F4009721F0E80EF91E01E403C021E1CC
:10318000E20EF11CBD1480F4D10150961C925097B0
:1031900053961C92539754961C92549751961C9296
:1031A000519752961C92C7C0B01670F3892D90E0CB
:1031B000F70124912F3F21F4FFEFEF1AFF0A5AC0C5
:1031C0000D114FC0D10114968D919C9115970E94BD
:1031D000D71097012F5F3F4FF701882311F08230FE
:1031E000E1F48491D10153968C935397F901249182
:1031F00054962C935497F7013396E4915096EC93A0
:103200005097F7013496E4915196EC935197F7015A
:103210003596E4915296EC9320C08491982F9F703C
:103220009250D10152969C93529782958F705196ED
:103230008C935197F9012491822F8F7054968C931F
:10324000549722952F7053962C935397F7013296EB
:10325000E491E295EF705096EC93E114F10479F467
:103260006AC0F7013296E491EA219C012E0F311DCC
:10327000E20EF31E0B1509F487CF0F5F99CFF10112
:10328000848195810E94DA10B82ED10153969C90CA
:1032900053975496DC90549751968C915197C80E41
:1032A00052969C919D0D512E591A0D2D292D452D6B
:1032B0006C2DC1010E94B1118823D1F1C7018B0D82
:1032C000911D5C0187E0890DF82EF694F694F69432
:1032D000D50C41019CE1890E911C6F2C712C5D1461
:1032E00039F15C2D8501802F8A198F15E8F4F801DA
:1032F0008491D10112966D917C9113975C965C93A9
:103300005C975D965C925D975F961C925F975E9668
:103310008C9394014BE3C10159830E94F7170F5F0F
:103320001F4F5981585FDFCFA60CB71C5394D7CFDE
:10333000F101808901C080E00F90DF91CF911F9152
:103340000F91FF90EF90DF90CF90BF90AF909F9044
:103350008F907F906F905F903F902F900895089589
:1033600080E090E00895CF93DF93EC011C161D06DA
:10337000B4F464E670E080E090E00E942F1661E013
:103380008AE00E94AC1564E670E080E090E00E9464
:103390002F1660E08AE00E94AC152197E7CFDF91FD
:1033A000CF9108952F923F924F925F926F927F92AA
:1033B0008F929F92AF92BF92CF92DF92EF92FF9245
:1033C0000F931F93CF93DF9300D01F92CDB7DEB73B
:1033D0006C012A013B014C018DEC880E911C81E0AF
:1033E000F4018083C60184529F4F9B838A830E948D
:1033F000D31116019BEC290E311C81E090E0F10104
:103400009183808373E0A72EB12C65E0E62E06E55C
:1034100013E024E630E044EF51E06EEA72E0C601CA
:103420000E94E6138F3F09F4FFC11982F1E0AF1A41
:10343000B10859F755E0E52E06E513E024E630E043
:1034400044EF51E06EEA72E0C6010E94E613FF24E9
:10345000F394813009F0F12C8981882309F47BC031
:1034600061EB72E08AE194E00E941515C12CD12C29
:10347000F6013197E730F10520F4EC5CFF4F0C9436
:103480000E3140EB54E060E070E08A819B810E9445
:10349000D31165E572E14CC040E659E060E070E0B0
:1034A0008A819B810E94D31168E472E141C040ECA3
:1034B00052E160E070E08A819B810E94D3116BE34E
:1034C00072E136C040E855E260E070E08A819B819D
:1034D0000E94D3116EE272E12BC040E05BE460E039
:1034E00070E08A819B810E94D31161E272E120C069
:1034F00040E056E960E070E08A819B810E94D31130
:1035000064E172E115C040E051EE60E070E08A8154
:103510009B810E94D31167E072E10AC040E052EC47
:1035200061E070E08A819B810E94D3116AEF71E1B2
:103530008A819B810E94DC149FEFC91AD90AE8E0B6
:10354000CE16D10409F094CF68ED72E08AE194E0E0
:103550000E94151566C145E0E42E06E513E024E659
:1035600030E044EF51E06EEA72E0C6010E94E613DB
:103570008111A4C0F110A2C0A12CB12CF50131978A
:10358000E730F10520F4E55CFF4F0C940E3140EB81
:1035900054E060E070E01DC040E659E060E070E09B
:1035A00018C040EC52E160E070E013C040E855E222
:1035B00060E070E00EC040E05BE460E070E009C0F5
:1035C00040E056E960E070E004C040E051EE60E0A9
:1035D00070E08A819B810E94D3111CC040E052ECB4
:1035E00061E070E08A819B810E94D3116DEE71E1F0
:1035F0008A819B810E94DC1440E855E260E070E023
:103600008A819B810E94D31164EF71E080E090E099
:103610000E942F1664E670E080E090E00E942F1672
:1036200035E0E32E06E513E024E630E044EF51E018
:103630006EEA72E0C6010E94E613813081F565EE04
:1036400071E18A819B810E94DC14B301A2018A810D
:103650009B810E94B80B63EA72E08A819B810E9481
:10366000291564EF71E080E090E00E942F16B3010D
:10367000A2018A819B810E94D31164E670E080E000
:1036800090E00E942F1624E630E044EF51E06EEA0D
:1036900072E0C6010E94E613FF24F39408C0FFEF16
:1036A000AF1ABF0A88E0A816B10409F067CFF60187
:1036B000E153FF4FC601029691838083F40110828B
:1036C000FF2009F48EC042E350E062E370E0C601DF
:1036D0000E94C013FF24F394F401F08285E0E82EE9
:1036E00006E513E022E330E048EE53E06DE173E0DD
:1036F000C6010E94E61322E330E044EF51E062E2AB
:1037000073E0C6010E94E613F401F082980144EFD1
:1037100051E063ED71E1C6010E946121980144EF1F
:1037200051E069EC71E1C6010E946121980144EF0A
:1037300051E06FEB71E1C6010E946121F401F0825A
:1037400092E0E92E22E330E048EE53E067E273E0D6
:10375000C6010E94E6132AE0E22E03E313E028EEFE
:1037600033E048EE53E06AE373E0C6010E94E613DB
:10377000F401108226E533E048EE53E062EB71E19C
:10378000C6010E94612121E533E044EF51E067EA80
:1037900071E1C6010E946121F401F08269E573E0E4
:1037A0008A819B810E94291540E050E0BA018A81FC
:1037B0009B810E94B80B63EA72E08A819B810E9420
:1037C000291564EF71E080E090E00E942F16F4016B
:1037D000108282E090E0F1019183808381E090E0AB
:1037E0003AC040E052EC61E070E08A819B810E9427
:1037F000D31168EE73E080E090E00E942F166DED2B
:1038000071E18A819B810E94DC14B301A2018A814B
:103810009B810E94B80B63EA72E08A819B810E94BF
:10382000291580E090E017C061E088E00E94AC15A7
:1038300060EB74E080E090E00E942F1660E088E08A
:103840000E94AC1560E177E280E090E00E942F16C4
:10385000F1E0F983EBCD0F900F900F90DF91CF91B6
:103860001F910F91FF90EF90DF90CF90BF90AF909E
:103870009F908F907F906F905F904F903F902F9090
:103880000895CF92DF92EF92FF920F931F93CF9301
:10389000DF931F92CDB7DEB76C01DC01DC961C9183
:1038A000DC97DB960C917C01B4E0EB0EF11CDC01A3
:1038B0005996ED91FC915A97C70169830995482F54
:1038C000410F2981602FC7010E946518F60123ADC1
:1038D000082E000C990B820F911D83AF81E090E0C0
:1038E0000F90DF91CF911F910F91FF90EF90DF909C
:1038F000CF9008950F931F93CF93DF93EC0189012D
:10390000FC01EE52FF4F1082319671836083329634
:10391000518340830E946916FE01E952FF4F608384
:103920007183828393831A823897CE0102969183A2
:10393000808332961082CE010E9408138823D9F327
:10394000813041F4B801CE010E94F912811104C006
:1039500083E003C084E001C082E0DF91CF911F913A
:103960000F9108950C94152E0C940D2E1F920F920A
:103970000FB60F9211242F933F934F935F936F9342
:103980007F938F939F93AF93BF93EF93FF93809118
:103990009D0390919E03009769F0019790939E0379
:1039A00080939D03892B31F4E0919F03F0E0E45272
:1039B000FC4F10822091DC03222371F180910007DB
:1039C00090910107009759F460E08BE00E94AC15DC
:1039D00060E08AE00E94AC1581E090E006C08A3089
:1039E000910544F4213031F40196909301078093BE
:1039F000000712C0223041F48091DB03882321F0BC
:103A000061E08AE00E94AC1561E08BE00E94AC1599
:103A10001092010710920007FF91EF91BF91AF91B3
:103A20009F918F917F916F915F914F913F912F91D6
:103A30000F900FBE0F901F9018952BEF36E010924D
:103A4000FB068F3F9105B1F0009789F09F938F930C
:103A500082ED91E09F938F933F932F930E947C314F
:103A60000F900F900F900F900F900F9009C06DE581
:103A700073E002C061E673E08BEF96E00E942D31A7
:103A80008BEF96E0089580E00E9418169C01C29783
:103A900074F0283A82E0380764F0243393E0390761
:103AA00054F081E0203733403CF080E0089584E01A
:103AB000089583E0089582E008950F931F93CF93B4
:103AC000DF930DED13E0C0E0D0E0CE010E94B41C06
:103AD000F80181938F012196C630D105B1F7DF91AE
:103AE000CF911F910F9108954F925F926F927F92A5
:103AF0008F929F92AF92BF92CF92DF92EF92FF92FE
:103B00000F931F93CF93DF93CDB7DEB7CA5BD10975
:103B10000FB6F894DEBF0FBECDBF1092FF06109215
:103B20009C03198281E08093A2039091BD039B3294
:103B3000C1F49091BE039B32A1F49091BF039B32DC
:103B400081F48093DC038093E40388E28093DB03B9
:103B500061E089E090E00E94B21C81E090E00E9468
:103B6000B3198091BD038D32C9F48091BE038D32AB
:103B7000A9F48091BF038D3289F41092DC03109276
:103B8000E40360E089E090E00E94B21C60E08BE01A
:103B90000E94AC1582E090E00E94B319E091FF060C
:103BA000F0E0E354FC4F80818F3309F084C18091B1
:103BB000DC03823049F464E673E0CE0101960E9492
:103BC0002D311092E40308C0813031F46CE673E0CB
:103BD000CE0101960E942D318091BC03811106C057
:103BE00061E773E0CE0101960E942D316DE773E02D
:103BF000CE0101960E942D3169E572E0CE01019659
:103C00000E942D318091A1031F928F9380EA92E050
:103C10009F938F938E010B541F4F1F930F930E94FE
:103C20007C31B801CE0101960E942D3166E873E027
:103C3000CE0101960E942D3137E0632E31E0732EC4
:103C40004DED442E43E0542E51E0A52E51E0B52E0B
:103C50000F900F900F900F900F900F90E12CF12C80
:103C600060EA862E62E0962E67012FEFC21AD20A12
:103C7000DF92CF929F928F921F930F930E947C317D
:103C8000B801CE0101960E942D316AE873E0CE01A1
:103C900001960E942D31F30181913F0190E0209126
:103CA000A00330E00F900F900F900F900F900F90A7
:103CB000821793071CF064EF71E013C0880F991FFF
:103CC000880F991FFC01ED55FC4F60817181828145
:103CD00093810E94072F6138FFEF7F0739F46CE86A
:103CE00073E0CE0101960E942D3113C07F936F9334
:103CF0009F928F921F930F930E947C31B801CE0147
:103D000001960E942D310F900F900F900F900F9001
:103D10000F9060E973E0CE0101960E942D318091F1
:103D20009F0390E001978E159F0549F480919D03B4
:103D300090919E03892B19F06FEA72E028C0F6017A
:103D4000E25AFE4FF0808F2D0E948315019779F47F
:103D5000F5018081811103C061E673E004C0813008
:103D600031F46DE573E0CE0101960E942D318F2D67
:103D70000E948315892B79F4F5018081811103C09C
:103D80006DE573E004C0813031F461E673E0CE018B
:103D900001960E942D3162E973E0CE0101960E94E6
:103DA0002D31F20181912F0190E00E941D1DBC0177
:103DB000CE0101960E942D316FE572E0CE01019691
:103DC0000E942D31FFEFAF1ABF0A760126E0C2161E
:103DD000D10409F049CFBE016F557F4F81E00E94A9
:103DE000390C813009F067C08AE1C754DF4F8883FE
:103DF000C95BD040C654DF4F1882CA5BD040E09107
:103E0000B704F091B8043697808191816DE971E132
:103E10008D569A4F0E94DC14E091B704F091B804DB
:103E2000369780819181BE016F557F4F8D569A4F95
:103E30000E942915E091B704F091B804369780816B
:103E400091816CEA72E08D569A4F0E94151524E319
:103E500032E044EF51E068EE73E089EB94E00E94B9
:103E60007A1C823031F5E091B704F091B8043697AE
:103E700080819181BE016F5F7F4F8D569A4F0E9466
:103E80002915E091B704F091B804369780819181AB
:103E9000BE0167547F4F8D569A4F0E94151525E934
:103EA00033E048EE53E060ED77E089EB94E00E9468
:103EB0007A1C10928605EDEBF3E001900020E9F703
:103EC0003197ED5BF340339708F49AC08091BD03BE
:103ED0008332C9F58091BF038D36A9F580919D038A
:103EE00090919E03892B79F51091BE031053109386
:103EF0009F038091C003CF55DF4F8883C15AD040C4
:103F00008091C103CE55DF4F8883C25AD040CE0185
:103F10008F559F4F0E94E72D21ED31E0AC01429F6C
:103F2000C001439F900D529F900D112490939E03CA
:103F300080939D03E12FF0E0E452FC4F8FEF8083EC
:103F400010939C035DC00DEB13E0E091FF06D801D8
:103F50000D900020E9F7F0E0CD01805C9340E81778
:103F6000F90708F04DC0E354FC4F8081833209F01B
:103F700041C082818A33F1F58181805380939C0313
:103F80002381CF55DF4F2883C15AD0409481CE552D
:103F9000DF4F9883C25AD0402D3239F49D3229F434
:103FA00090E060E001970E94B21CCF55DF4F8881FE
:103FB000C15AD0408B3271F4CE55DF4F8881C25A3E
:103FC000D0408B3239F480919C0390E06FEF0197E1
:103FD0000E94B21CCE018F559F4F0E94E72D1816EC
:103FE000190644F420919C0330E0682FC901019721
:103FF0000E94B21C8091FF068B5F8093FF06A5CFC5
:104000001092FF0680919D0390919E03892B11F4DD
:104010000E945D1D80919C03882319F0815080933C
:10402000E303C654DF4F0FB6F894DEBF0FBECDBF1B
:10403000DF91CF911F910F91FF90EF90DF90CF9084
:10404000BF90AF909F908F907F906F905F904F90B8
:104050000895FC01538D448D252F30E0842F90E08E
:10406000821B930B541710F0CF9608950197089573
:10407000FC01918D828D981761F0828DDF01A80F70
:10408000B11D5D968C91928D9F5F9F73928F90E092
:1040900008958FEF9FEF0895FC01918D828D981701
:1040A00031F0828DE80FF11D858D90E008958FEF3E
:1040B0009FEF0895FC01918D228D892F90E0805C07
:1040C0009F4F821B91098F739927089580E090E09C
:1040D000892B29F00E94D21481110C9400000895BC
:1040E000DF92EF92FF920F931F93CF93DF93082FEE
:1040F000D62FC42F142FF62EF40EEE24E394DD24D5
:10410000DA948F2D811B1830A8F06091C70570914B
:10411000C8050093E1058093E205E092E405D092A2
:10412000E30521EE35E04BE385EC95E00E94F717BF
:104130001850E7CF8C2F887FD80F4C2F477029F16C
:1041400097E049276091C7057091C8050093E10584
:10415000D093E20581E08093E4054F5F47708FEFD5
:1041600090E001C0880F4A95EAF78093E30521EEBD
:1041700035E04BE385EC95E0DF91CF911F910F91F6
:10418000FF90EF90DF900C94F717DF91CF911F9184
:104190000F91FF90EF90DF900895FF920F931F9380
:1041A000CF93DF93C82FD62F142FF22E022F242F58
:1041B000462F682F85EC95E00E94B111882359F0B5
:1041C0002F2D412F6D2F8C2FDF91CF911F910F91AC
:1041D000FF900C94D10DDF91CF911F910F91FF9023
:1041E0000895FF920F931F93CF93DF93182FC62F3D
:1041F000F42ED22F022F242F462F682F85EC95E026
:104200000E94B1118823E9F04F2D6C2F812F0E945D
:104210007A0D4D2F6C2F812F0E9470208FEF8F0D04
:104220004D2F6C2F810F0E947020D1506D2F6C0F7D
:104230004F2D812FDF91CF911F910F91FF900C9403
:104240007A0DDF91CF911F910F91FF9008950F93F9
:104250001F93CF93E091D305F091D405309719F0D7
:1042600085EC95E009950091C7051091C805E0918E
:10427000F605F091F70582E00995E091F605F091D9
:10428000F70581E0099520E030E045E1B80185ECD3
:1042900095E00E94F717C82F882341F028EF35E0FA
:1042A00047E1B80185EC95E00E94F717E091F6052B
:1042B000F091F70580E009958C2FCF911F910F9118
:1042C00008959F92AF92BF92CF92DF92EF92FF92AA
:1042D0000F931F93CF93DF93EC017B016A01590188
:1042E000912C8C0104521F4FB701C8010E94DC14AD
:1042F0006EE572E0C8010E94001542E350E0B6018D
:10430000CE010E94C013813039F4B501CE010E9464
:10431000F912882311F00CC08FEF939495E0991651
:1043200041F064EF71E080E090E00E942F16DCCF56
:1043300081E0DF91CF911F910F91FF90EF90DF907F
:10434000CF90BF90AF909F900895CF93DF93CDB75C
:10435000DEB729970FB6F894DEBF0FBECDBFFC01C4
:104360002081203119F1BE016F5F7F4F0E94160A34
:10437000882379F068E0CE0101960E94BF169985E6
:10438000891307C008C0803458F08F3569F08F3723
:1043900069F080E00CC08D818F33A9F78AE007C0F7
:1043A0008F31B9F789E003C08BE001C08CE029961A
:1043B0000FB6F894DEBF0FBECDBFDF91CF91089549
:1043C000CF9384EA8093BC0061E080E80E94ED1006
:1043D000882359F08091B900887F883041F080317E
:1043E00031F061E082E00E94E410C0E01DC088E787
:1043F0008093BB0084E88093BC0062E080E80E9468
:10440000ED10882391F380910207C82FC27081FDBF
:104410000AC08091B900887F883129F062E082E08B
:104420000E94E41001C0C1E08C2FCF910895FC01DF
:10443000848DDF01A80FB11DA35ABF4F2C91848D2D
:1044400090E001968F739927848FA689B7892C9362
:10445000A089B1898C9180648C93938D848D9813FD
:1044600006C00288F389E02D80818F7D80830895C6
:10447000EF92FF920F931F93CF93DF93EC0181E0B4
:10448000888F9B8D8C8D981305C0E889F989808170
:1044900085FD24C0F62E0B8D10E00F5F1F4F0F73AC
:1044A0001127E02E8C8DE8120CC00FB607FCFACF56
:1044B000E889F989808185FFF5CFCE010E94172216
:1044C000F1CF8B8DFE01E80FF11DE35AFF4FF08213
:1044D0000B8FEA89FB898081806207C0EE89FF89A2
:1044E0006083E889F98980818064808381E090E03D
:1044F000DF91CF911F910F91FF90EF900895CF938F
:10450000DF93EC01888D8823C9F0EA89FB898081DB
:1045100085FD05C0A889B9898C9186FD0FC00FB6AD
:1045200007FCF5CF808185FFF2CFA889B9898C91EE
:1045300085FFEDCFCE010E941722E7CFDF91CF910B
:104540000895CF93DF93CDB7DEB7C054D1090FB62E
:10455000F894DEBF0FBECDBF789484B5826084BD71
:1045600084B5816084BD85B5826085BD85B5816077
:1045700085BD80916E00816080936E0010928100F5
:1045800080918100826080938100809181008160B0
:104590008093810080918000816080938000809171
:1045A000B10084608093B1008091B00081608093FD
:1045B000B00080917A00846080937A0080917A00C4
:1045C000826080937A0080917A00816080937A0083
:1045D00080917A00806880937A001092C1000FB6B3
:1045E000F894A89580916000886180936000109293
:1045F00060000FBE61E08BE00E94DC1561E08AE0A4
:104600000E94DC15F89410928000109281001092A4
:1046100085001092840080ED97E09093890080934C
:104620008800809181008860809381008091810062
:1046300085608093810080916F00826080936F001D
:10464000789480914701909148019A838983FE0173
:10465000339626E1DF011D922A95E9F79A8F898F1B
:10466000789681E1DF011D928A95E9F782EC94E169
:104670009093DB058093DA0584E890E00E94080DB2
:10468000E0910406F0910506138615861486DF0175
:104690001B9633961E92AE17BF07E1F710920306E2
:1046A00011E0BE016A5C7F4F80910406909105067F
:1046B0000E94C20A882309F452C067E0CE01C69660
:1046C0000E94BF169DAD8913ECCF8091FF0581112B
:1046D00028C080910406909105060E948E17BE01A5
:1046E0006A5C7F4F80910406909105060E946117D5
:1046F00040E064EB80910406909105060E941F172C
:1047000080910406909105060E94CC16082F809196
:104710000406909105060E948E17002311F40C9454
:10472000292CBE01635D7F4FCE01C6960E94160AFA
:1047300000910006CE01C6960E94A521801718F4AC
:104740008091000604C0CE01C6960E94A5218093E8
:104750000006809103068F5F80930306A2CF00912D
:1047600003060093A003F6EECF2EF3E0DF2EE12C3C
:10477000F12C10E0E016F1065CF46E2DC6010E94EB
:10478000520BBFEFEB1AFB0AE8E0CE0ED11CF2CFC2
:104790000E94431D8430E1F00E94AD0999C147EDAC
:1047A00051E06AE08AE00E94E20948EE51E060E4EC
:1047B0008DE40E94E2090E9427218111F0CF0E941E
:1047C000431D182F809319048FEF810F823018F04A
:1047D0000E94AD09E4CF68EE73E080E090E00E94B3
:1047E0002F16123081F400E010E060E0C8010E9452
:1047F000B21C0F5F1F4F0115F4E01F07B1F71092B5
:10480000190410929C0380911904813061F070EFBB
:10481000672E71E0772E8E01035D1F4FE7EFCE2EDE
:10482000E1E0DE2E1DC057E0C52E51E0D52E61E03F
:10483000E62E61E0F62E0AE010E0C8010E94B41CEA
:10484000D6018D936D01C80106960E94B41CF70134
:1048500081937F010F5F1F4F0031110571F7D7CF93
:104860000E94AD0980919C03873010F010929C0348
:104870000E94431D813029F480919C038F5F8093B7
:104880009C030E94431D823051F4E0919C03F0E0B0
:10489000EF5FFE4F81E09081911180E080830E9464
:1048A000431D833059F4E0919C03F0E0E95FFE4F33
:1048B00080818F5F8083863008F010820E94870B92
:1048C00046EEA42E43E0B42EE12CF12C8091A003FF
:1048D00090E0E816F90674F5C5010E946B0A81386C
:1048E000F4EE9F076CF0BC01990F880B990B0E94A6
:1048F0003F2F20E030E040E05CE30E944C3004C0F9
:1049000060E070E08EEF92EC0E94072F7F936F9330
:104910007F926F921F930F930E947C31B801CE015A
:1049200001960E942D310F900F900F900F900F90D5
:104930000F9006C064EF71E0CE0101960E942D3108
:104940002FEFE21AF20A38E0A30EB11C86E0E81657
:10495000F10409F0BBCF198E1DA627E0422E21E0FD
:10496000522E31E0232E31E0332E51014201E12C51
:10497000F12CD4018D914D0190E001969F938F937E
:10498000DF92CF921F930F930E947C31F5018191AA
:104990005F010F900F900F900F900F900F9081304C
:1049A00019F46BEF71E002C06FE872E0CE01499636
:1049B0000E942D31B801CE0149960E942D31F5E0BB
:1049C000EF16F10431F06FE872E0CE0149960E94D3
:1049D0002D312FEFE21AF20A36E0E316F10449F620
:1049E00095E1F92E8091E503813069F480919C0373
:1049F0008F9D802D112441E1480F24E364E38D5FF6
:104A00000E94950C06C04FE852E06AE080E00E94E8
:104A1000E2090E94431D882359F04DEF51E069E1FE
:104A200080E20E94E20947E052E060E48EE10AC0C1
:104A300042E152E069E189E00E94E20943E252E08A
:104A400060E480E00E94E209AE014F5F5F4F64E2E4
:104A500080E00E94E20926E24DE766E280E00E94E3
:104A6000950CAE01475E5F4F63E385E00E94E2096B
:104A70000E9427218111B6CF1982198E8091E503FA
:104A8000813019F41092E50303C081E08093E503BF
:104A90006AEF70E080E090E00E942F160E94431DB4
:104AA000843009F0DDCE0AE010E0D2016D912D01D5
:104AB000C8010E94B21CF10161911F01C801069654
:104AC0000E94B21C0F5F1F4F0031110571F764CEB9
:104AD00046E352E06AE086E20E94E2090E94272152
:104AE0008111F6CF40E855E260E070E089EB94E098
:104AF0000E94D219892B21F081E08093150402C015
:104B00001092150411E0C12E11E0D12E07E0A02E65
:104B100001E0B02E8AE0E82EF12CC7010E94B41CFF
:104B2000082FD5018D935D01C70106960E94B41C24
:104B3000882EF60181936F010093140410E0F801B0
:104B4000E15AFE4F908061E0892D0E94DC158110B2
:104B500002C060E001C061E0892D0E94AC15C8016F
:104B6000880F991F880F991F9C012D553C4F4901B3
:104B7000F801E352FC4F608170E080E090E00E9419
:104B80003F2F9B01AC01D4016D917D918D919C9142
:104B90000E94902EF801E25FFB4F87FF03C081E087
:104BA000808301C01082BFEFEB1AFB0AE0E1EE1632
:104BB000F10409F0B2CF0E945D1D89E090E00E94EF
:104BC000B41C823018F48093DC0302C01092DC0322
:104BD0001092E5031092A20381E08093BC0361E090
:104BE00080E10E94AC1560E080E10E94DC1599E252
:104BF00088E10FB6F894A895809360000FBE90935B
:104C000060006EE372E08AE194E00E942915109240
:104C1000BD037E01FDE2EF0EF11CE091B704F091BF
:104C2000B80436978081918161E572E08D569A4F84
:104C30000E94151526E533E042E350E06AEF70E08C
:104C400089EB94E00E947A1C68E572E089EB94E0BD
:104C50000E94F9128823B1F160E27AE38BEB94E0D1
:104C60000E94383143E050E0BC01CE0101960E9421
:104C700053311C82CE0101960E94E72DBC01990F91
:104C8000880B990B0E943F2F20E030E048EF51E461
:104C90000E94952E20E030E048EC52E40E944C3017
:104CA00020E030E048EC51E40E94952E20E030E016
:104CB00040EC5FE30E94242E0E947A2F0E940E2F68
:104CC0006093A1038091E403813071F46091C70582
:104CD0007091C80520E030E040E185EC95E00E944D
:104CE000F71782E08093E4038091E40381110EC002
:104CF0006091C7057091C80520E030E041E185EC86
:104D000095E00E94F71783E08093E4030E94431D1F
:104D100080931904882341F08091E403823021F4C8
:104D20001092E403109219049091190480911804D0
:104D3000913079F4811128C08091E3038F5F8093D3
:104D4000E30393E0909318048630F0F01092E303AD
:104D50001BC0923081F4811117C08091E303815010
:104D60008093E30393E0909318048F3F69F485E008
:104D70008093E30309C0943039F4811105C081E0C8
:104D8000809318041092190480911804813009F05E
:104D90005AC0D0901904D11006C0809117048F5FBB
:104DA0008093170402C0109217046BE171E085E64E
:104DB00091E00E944C31E091E303F0E0E95FFE4FA7
:104DC000008110E003521C4FD8018C91811108C062
:104DD000B3E0DB1205C08FEFF80180831092190455
:104DE000D8018C91882339F080911904833019F40B
:104DF0001C92109219040E94431D813081F4F80125
:104E00008081811102C08FE08083D8018C918E3126
:104E100010F08DE18C93F80180818F5F80830E9478
:104E2000431D823081F4D8018C918F3F11F48AE1C7
:104E30008C93F8018081813110F481E18083D80165
:104E40008C9181508C931091DC03123040F0809152
:104E5000DB03882321F081508093DB0317C060E0DF
:104E60008AE00E94AC15113089F483E00E94181684
:104E7000813991405CF082E08093DC038FE3809382
:104E8000BD0383E00E94741D1092BD038091BC039A
:104E9000813031F480E10E948315019709F4DDC46B
:104EA0008091BC03811106C080E10E948315892B8B
:104EB00009F4E0C41092160480918605811173C034
:104EC00081E080938605E091B704F091B8043697AD
:104ED000008111810D561A4F65E974E0C8010E94E6
:104EE000DC146EE572E0C8010E94001510928B057B
:104EF00088E893E190938D0580938C058CED95E087
:104F000090938F0580938E050E946916609390059B
:104F10007093910580939205909393051092BB0432
:104F20008BEB94E0909389058093880510928A0515
:104F300066E573E089EB94E00E94F91281110CC0E0
:104F400089EB94E00E940813882391F3813021F0CB
:104F5000843009F51EEF20C061E672E089EB94E031
:104F60000E94F912882369F06AE370E08BEB94E009
:104F70000E943831009729F001960E94E72D182FE2
:104F800001C010E044E150E064E170E089EB94E09E
:104F90000E94C01301C010E010928605112309F48D
:104FA00019C1C12E02C0CC24CA948091150481304D
:104FB00009F010C1909186059111D0C080938605AB
:104FC000198EE091B704F091B804369780819181F1
:104FD00063EA74E08D569A4F0E94DC14E091B704A6
:104FE000F091B8043697008111810D561A4F4C2D5F
:104FF00050E060E070E0C8010E94B80B6EE572E01E
:10500000C8010E94001528E632E044E650E068E856
:1050100073E189EB94E00E947A1C823031F0843095
:1050200009F05FC0AEEFDA2E5DC06EE672E089EB8C
:1050300094E00E94F91281110BC06BE772E089EBDA
:1050400094E00E94F912811106C0F3E0DF2E05C042
:10505000DD24D39402C0E2E0DE2E6CE270E08BEB44
:1050600094E00E94383102965C0162E270E00E9496
:1050700038318C01009739F0FC011082B501CE0166
:1050800049960E944C316AE070E0C80101960E9486
:105090003831009739F18C010F5F1F4F6DE070E0E0
:1050A000C8010E943831009711F0DC011C92F80110
:1050B00001900020E9F73197E01BF10BED3130F45E
:1050C000B8018DEB93E00E944C310CC08CE1F801EB
:1050D000ADEBB3E001900D928A95E1F71092DA03FF
:1050E00001C0D12C109286051D14C4F5B2E0DB126C
:1050F00035C011E0BE016F5F7F4F812F0E94390CD8
:10510000813049F566E872E08AE194E00E94291551
:10511000BE01675E7F4F8AE194E00E94151561E948
:1051200072E08AE194E00E942915BE016F5F7F4F13
:105130008AE194E00E941515BE016F5F7F4FCE019A
:1051400049960E944331892B31F41092DB0382E0AF
:105150000E94741D03C01F5F143061F6A89568EBB0
:105160007BE080E090E00E942F16809186058111FF
:1051700031C081E080938605E091B704F091B804D6
:105180003697808191816CEA74E08D569A4F0E9427
:10519000DC14E091B704F091B804369700811181D6
:1051A0000D561A4F4C2D50E060E070E0C8010E948F
:1051B000B80B6EE572E0C8010E94001526E533E0E9
:1051C00042E350E068E873E189EB94E00E947A1CC6
:1051D000109286051092BD030E94870B73EAC72EBA
:1051E00073E0D72E10E0612FCE0101960E94520B82
:1051F000811105C060E070E08EEF92EC14C0CE012A
:1052000001960E946B0A8138E4EE9E079CF3BC0174
:10521000990F880B990B0E943F2F20E030E040E06F
:105220005CE30E944C30D6016D937D938D939D93EA
:105230006D011F5F1630B9F6EDEDF3E02196FFAF7B
:10524000EEAF21970EE014E041E0A42E41E0B42E31
:105250005FE5C52E51E0D52E67E0662E61E0762E23
:10526000D301ED913D01E0931404B4E0EB9FF00114
:105270001124ED55FC4F20803180428053802196CF
:10528000EEADFFAD219721912196FFAFEEAF2197B3
:105290002EAF822E912CB4016F5F7F4F072E000C32
:1052A000880B990B0E943F2F9B01AC01C201B101F9
:1052B0000E94902E87FF04C0D8018C91813019F094
:1052C000BEADBF3F81F4F5018081811104C061E072
:1052D000D6018C9105C0813041F460E0F6018081F7
:1052E0000E94AC1502C0D8011C92B401990C880B25
:1052F000990B0E943F2F9B01AC01C201B1010E949A
:105300004730181624F4F8018081882319F0FEAD87
:10531000F11110C0D5018C91811104C060E0F6013B
:10532000808105C0813049F461E0D6018C910E94F2
:10533000AC1503C081E0F8018083FFEFCF1ADF0ACC
:105340000F5F1F4F2FEFA21AB20A3DE0631631E044
:10535000730609F085CF0E94AD0930EB932E809142
:105360001804882319F0833009F07EC020E04AE059
:1053700060E080E00E94950C20E045E06AE085E076
:105380000E94950C25E045E060E080E00E94950CCD
:1053900020E04AE065E085E00E94950C8091A10341
:1053A000823030F028E049E06AE089E00E94950C04
:1053B0008091A103833030F026E04CE06AE08CE07D
:1053C0000E94950C8091A103843030F024E04FE0DE
:1053D0006AE08FE00E94950C8091A103853030F047
:1053E00022E042E16AE082E10E94950C8091A103F3
:1053F000863030F020E045E16AE085E10E94950CBE
:105400008091A203813091F42BE04FE060E089E1CC
:105410000E94F12025E040E261E08AE10E94950CC3
:1054200021E046E265E080E20E94950C8091DC0379
:105430008823D1F02CE04CE060E08AE50E94F12066
:1054400028E048E062E08CE50E94F1208091DC03D6
:10545000823051F48091000180FF06C028E048E0CE
:1054600062E08CE50E94CD2029E041E161E08CE61C
:105470000E94F12025E042E063E08AE60E94CD2010
:105480008091BC03811104C08091000180FF18C08D
:1054900025E042E063E08EE60E94CD2025E043E077
:1054A00063E081E70E94CD2025E043E063E085E7EB
:1054B0000E94CD2025E042E063E089E70E94CD20F4
:1054C0001982E091E303F0E0E95FFE4F808190E014
:1054D0002091A00330E0821793073CF064EF71E065
:1054E000CE0101960E942D3122C0880F991F880F8E
:1054F000991FFC01ED55FC4F608171818281938180
:105500000E94072F7F936F93A0EFB1E0BF93AF93FB
:10551000FF92EF920E947C31B701CE0101960E946A
:105520002D310F900F900F900F900F900F90809152
:10553000000182FD3EC082E29DE00E94080DAE01A6
:105540004F5F5F4F67E385E50E94E20906E026E0D2
:105550004BE168E785EC95E00E94B111882319F0D2
:1055600082E00E94550D08E028E04AE167E785ECFB
:1055700095E00E94B111882319F083E00E94550D37
:105580008091E30390E001969F938F93AEE2B1E0A8
:10559000BF93AF93FF92EF920E947C31A70167E324
:1055A00080E00E94E2090F900F900F900F900F90F3
:1055B0000F908091000182FFE5C085EB94E00E948E
:1055C000080DAE014F5F5F4F6BE18AE60E94E20972
:1055D00019824AE952E067E28DE60E94E209E09111
:1055E000E303F0E0E352FC4F808190E00E941D1D38
:1055F000BC01CE0101960E942D318981082E000C3C
:10560000990BC0970A9708F49B82AE014F5F5F4FDA
:105610006BE180E00E94E209198281E0C82E81E0FE
:10562000D82E9FE5A92E91E0B92E00E010E06FE89A
:1056300072E0CE0101960E942D31D5018D905D0161
:10564000882D0E9483150197F9F4F601808181115C
:1056500013C080919F0390E001978017910749F450
:1056600080919D0390919E03892B19F06FEA72E05F
:1056700007C06CE972E004C0813031F46EE972E079
:10568000CE0101960E942D31882D0E948315892B11
:10569000F9F4D6018C91811103C06EE972E014C057
:1056A0008130B1F480919F0390E0019780179107BA
:1056B00049F480919D0390919E03892B19F06FEA24
:1056C00072E002C06CE972E0CE0101960E942D31B9
:1056D0000F5F1F4FBFEFCB1ADB0A0630110509F031
:1056E000A6CFAE014F5F5F4F62E282E10E94E20906
:1056F0001982C12CD12C6FE872E0CE0101960E9474
:105700002D318091E30390E086010F5F1F4FC81693
:10571000D90659F48091000180FF07C06FE872E05C
:10572000CE0101960E942D3115C01F930F93A0EA60
:10573000B2E0BF93AF93FF92EF920E947C31B7012A
:10574000CE0101960E942D310F900F900F900F9077
:105750000F900F9068010630110569F6AE014F5F9A
:105760005F4F6EE282E10E94E209198222E34DE777
:1057700062E380E00E94950C45E651E060E480E041
:105780000E94E2090E9427218111E9CD809118042D
:10579000833041F4109218046AEF70E080E090E0EA
:1057A0000E942F1680911804823021F080911704F6
:1057B0008530F9F464E371E085E691E00E944C31B4
:1057C0001092180410921704E091E303F0E0E95FEF
:1057D000FE4F808190E0FC01E352FC4F60810E940B
:1057E000B21C0E945D1D6AEF70E080E090E00E94B4
:1057F0002F1683E00E941816813991405CF080E1F9
:10580000809300016091C7057091C80520E030E0E9
:1058100041E115C0809100018150809300018823EF
:1058200021F080911804813071F480E180930001AF
:105830006091C7057091C80520E030E040E185EC3B
:1058400095E00E94F717A8951092A2030E94662087
:10585000E4C91093FF050C9491231092BC038FE3CD
:105860008093BD031092BE0383E00E94741D1092CA
:10587000BD0316CB81E08093BC038FE38093BD030F
:105880001092BE0383E00E94741D1092BD0312CBE0
:1058900010921D0410921C0448EE53E060E070E08A
:1058A00040931E0450931F046093200470932104BE
:1058B00082E891E090931B0480931A0485EC90E0B9
:1058C000909327048093260484EC90E0909329041D
:1058D0008093280480EC90E090932B0480932A041A
:1058E00081EC90E090932D0480932C0482EC90E066
:1058F00090932F0480932E0486EC90E090933104D3
:1059000080933004109233041092340410923504C2
:105910001092360483E090E0909393068093920671
:10592000909395068093940690939706809396069D
:1059300090939906809398069093C0058093BF0535
:1059400086EA91E09093BA048093B90481E090E0F4
:105950009093850580938405109298051092970581
:105960004093990550939A0560939B0570939C050D
:1059700084E991E090939605809395051092AC058B
:105980001092AB051092AE051092AD051092B005C5
:105990001092AF051092B2051092B1056091B30557
:1059A0006E7F6D7F6093B3056695617081E06827B7
:1059B00083E00E94AC1561E083E00E94DC15ECE21C
:1059C000F0E1E491E093A505E8E1F0E1E491F0E095
:1059D000EE0FFF1FEF5FFF4E859194919093A70507
:1059E0008093A60560E082E00E94DC158091B305FB
:1059F00081FD04C061E082E00E94AC1582E08093EA
:105A0000A105EBE2F0E1E491E093A205E7E1F0E12A
:105A1000E491F0E0EE0FFF1FE55FFF4E859194915A
:105A20009093A4058093A30585E995E09093B5052F
:105A30008093B40580E197E2A0E0B0E08093B605E2
:105A40009093B705A093B805B093B90581E0809312
:105A5000BE058EEA91E09093B8048093B70488EB7A
:105A600091E09093BA048093B90483E090E090931E
:105A70009B0680939A069093AB068093AA0660E0FB
:105A80008FE00E94DC15E8E3F0E1E491E0939C06EE
:105A9000E4E2F0E1E491F0E0EE0FFF1FE55FFF4E7E
:105AA0008591949190939E0680939D061092A706EF
:105AB0001092A9061092A806E7EAF6E0129286E094
:105AC000EF39F807D9F786EA94E1909311068093AD
:105AD00010068CE996E090930506809304061092D8
